{
  "_format": "hh-sol-artifact-1",
  "contractName": "Radrr",
  "sourceName": "src/Radrr.sol",
  "abi": [
    {
      "inputs": [
        {
          "internalType": "address",
          "name": "_platformWallet",
          "type": "address"
        },
        {
          "internalType": "address",
          "name": "_safetyFundWallet",
          "type": "address"
        }
      ],
      "stateMutability": "nonpayable",
      "type": "constructor"
    },
    {
      "anonymous": false,
      "inputs": [
        {
          "indexed": true,
          "internalType": "string",
          "name": "recordingId",
          "type": "string"
        },
        {
          "indexed": false,
          "internalType": "string",
          "name": "cid",
          "type": "string"
        }
      ],
      "name": "CidUpdated",
      "type": "event"
    },
    {
      "anonymous": false,
      "inputs": [
        {
          "indexed": true,
          "internalType": "string",
          "name": "recordingId",
          "type": "string"
        },
        {
          "indexed": false,
          "internalType": "uint256",
          "name": "bundleSize",
          "type": "uint256"
        }
      ],
      "name": "CorroborationUpdated",
      "type": "event"
    },
    {
      "anonymous": false,
      "inputs": [
        {
          "indexed": true,
          "internalType": "address",
          "name": "account",
          "type": "address"
        },
        {
          "indexed": false,
          "internalType": "uint256",
          "name": "newScore",
          "type": "uint256"
        }
      ],
      "name": "CredibilityUpdated",
      "type": "event"
    },
    {
      "anonymous": false,
      "inputs": [
        {
          "indexed": true,
          "internalType": "string",
          "name": "recordingId",
          "type": "string"
        }
      ],
      "name": "EncryptedCidUpdated",
      "type": "event"
    },
    {
      "anonymous": false,
      "inputs": [
        {
          "indexed": true,
          "internalType": "address",
          "name": "account",
          "type": "address"
        },
        {
          "indexed": false,
          "internalType": "string",
          "name": "pseudonym",
          "type": "string"
        },
        {
          "indexed": false,
          "internalType": "bool",
          "name": "worldIdVerified",
          "type": "bool"
        }
      ],
      "name": "IdentityRegistered",
      "type": "event"
    },
    {
      "anonymous": false,
      "inputs": [
        {
          "indexed": true,
          "internalType": "string",
          "name": "recordingId",
          "type": "string"
        },
        {
          "indexed": true,
          "internalType": "address",
          "name": "witness",
          "type": "address"
        },
        {
          "indexed": false,
          "internalType": "uint256",
          "name": "priceWei",
          "type": "uint256"
        }
      ],
      "name": "RecordingAnchored",
      "type": "event"
    },
    {
      "anonymous": false,
      "inputs": [
        {
          "indexed": true,
          "internalType": "string",
          "name": "recordingId",
          "type": "string"
        },
        {
          "indexed": true,
          "internalType": "address",
          "name": "buyer",
          "type": "address"
        },
        {
          "indexed": false,
          "internalType": "uint256",
          "name": "amount",
          "type": "uint256"
        }
      ],
      "name": "RecordingPurchased",
      "type": "event"
    },
    {
      "inputs": [
        {
          "internalType": "string",
          "name": "recordingId",
          "type": "string"
        },
        {
          "internalType": "string",
          "name": "merkleRoot",
          "type": "string"
        },
        {
          "internalType": "string",
          "name": "gpsApprox",
          "type": "string"
        },
        {
          "internalType": "string",
          "name": "title",
          "type": "string"
        },
        {
          "internalType": "uint256",
          "name": "priceWei",
          "type": "uint256"
        }
      ],
      "name": "anchorRecording",
      "outputs": [],
      "stateMutability": "nonpayable",
      "type": "function"
    },
    {
      "inputs": [
        {
          "internalType": "address",
          "name": "account",
          "type": "address"
        }
      ],
      "name": "getIdentity",
      "outputs": [
        {
          "components": [
            {
              "internalType": "address",
              "name": "account",
              "type": "address"
            },
            {
              "internalType": "string",
              "name": "pseudonym",
              "type": "string"
            },
            {
              "internalType": "string",
              "name": "worldIdHash",
              "type": "string"
            },
            {
              "internalType": "bool",
              "name": "worldIdVerified",
              "type": "bool"
            },
            {
              "internalType": "uint256",
              "name": "credibilityScore",
              "type": "uint256"
            },
            {
              "internalType": "uint256",
              "name": "recordingCount",
              "type": "uint256"
            },
            {
              "internalType": "uint256",
              "name": "totalSales",
              "type": "uint256"
            }
          ],
          "internalType": "struct Radrr.Identity",
          "name": "",
          "type": "tuple"
        }
      ],
      "stateMutability": "view",
      "type": "function"
    },
    {
      "inputs": [
        {
          "internalType": "string",
          "name": "recordingId",
          "type": "string"
        }
      ],
      "name": "getRecording",
      "outputs": [
        {
          "components": [
            {
              "internalType": "string",
              "name": "recordingId",
              "type": "string"
            },
            {
              "internalType": "string",
              "name": "merkleRoot",
              "type": "string"
            },
            {
              "internalType": "string",
              "name": "gpsApprox",
              "type": "string"
            },
            {
              "internalType": "uint256",
              "name": "timestamp",
              "type": "uint256"
            },
            {
              "internalType": "string",
              "name": "cid",
              "type": "string"
            },
            {
              "internalType": "string",
              "name": "encryptedCid",
              "type": "string"
            },
            {
              "internalType": "address",
              "name": "witness",
              "type": "address"
            },
            {
              "internalType": "string",
              "name": "title",
              "type": "string"
            },
            {
              "internalType": "uint256",
              "name": "priceWei",
              "type": "uint256"
            },
            {
              "internalType": "bool",
              "name": "sold",
              "type": "bool"
            },
            {
              "internalType": "address",
              "name": "buyer",
              "type": "address"
            },
            {
              "internalType": "string[]",
              "name": "corroborationBundle",
              "type": "string[]"
            }
          ],
          "internalType": "struct Radrr.Recording",
          "name": "",
          "type": "tuple"
        }
      ],
      "stateMutability": "view",
      "type": "function"
    },
    {
      "inputs": [
        {
          "internalType": "uint256",
          "name": "fromIndex",
          "type": "uint256"
        },
        {
          "internalType": "uint256",
          "name": "limit",
          "type": "uint256"
        }
      ],
      "name": "getRecordings",
      "outputs": [
        {
          "components": [
            {
              "internalType": "string",
              "name": "recordingId",
              "type": "string"
            },
            {
              "internalType": "string",
              "name": "merkleRoot",
              "type": "string"
            },
            {
              "internalType": "string",
              "name": "gpsApprox",
              "type": "string"
            },
            {
              "internalType": "uint256",
              "name": "timestamp",
              "type": "uint256"
            },
            {
              "internalType": "string",
              "name": "cid",
              "type": "string"
            },
            {
              "internalType": "string",
              "name": "encryptedCid",
              "type": "string"
            },
            {
              "internalType": "address",
              "name": "witness",
              "type": "address"
            },
            {
              "internalType": "string",
              "name": "title",
              "type": "string"
            },
            {
              "internalType": "uint256",
              "name": "priceWei",
              "type": "uint256"
            },
            {
              "internalType": "bool",
              "name": "sold",
              "type": "bool"
            },
            {
              "internalType": "address",
              "name": "buyer",
              "type": "address"
            },
            {
              "internalType": "string[]",
              "name": "corroborationBundle",
              "type": "string[]"
            }
          ],
          "internalType": "struct Radrr.Recording[]",
          "name": "",
          "type": "tuple[]"
        }
      ],
      "stateMutability": "view",
      "type": "function"
    },
    {
      "inputs": [
        {
          "internalType": "string",
          "name": "gpsApprox",
          "type": "string"
        }
      ],
      "name": "getRecordingsByGps",
      "outputs": [
        {
          "internalType": "string[]",
          "name": "",
          "type": "string[]"
        }
      ],
      "stateMutability": "view",
      "type": "function"
    },
    {
      "inputs": [
        {
          "internalType": "address",
          "name": "witness",
          "type": "address"
        }
      ],
      "name": "getRecordingsByWitness",
      "outputs": [
        {
          "components": [
            {
              "internalType": "string",
              "name": "recordingId",
              "type": "string"
            },
            {
              "internalType": "string",
              "name": "merkleRoot",
              "type": "string"
            },
            {
              "internalType": "string",
              "name": "gpsApprox",
              "type": "string"
            },
            {
              "internalType": "uint256",
              "name": "timestamp",
              "type": "uint256"
            },
            {
              "internalType": "string",
              "name": "cid",
              "type": "string"
            },
            {
              "internalType": "string",
              "name": "encryptedCid",
              "type": "string"
            },
            {
              "internalType": "address",
              "name": "witness",
              "type": "address"
            },
            {
              "internalType": "string",
              "name": "title",
              "type": "string"
            },
            {
              "internalType": "uint256",
              "name": "priceWei",
              "type": "uint256"
            },
            {
              "internalType": "bool",
              "name": "sold",
              "type": "bool"
            },
            {
              "internalType": "address",
              "name": "buyer",
              "type": "address"
            },
            {
              "internalType": "string[]",
              "name": "corroborationBundle",
              "type": "string[]"
            }
          ],
          "internalType": "struct Radrr.Recording[]",
          "name": "",
          "type": "tuple[]"
        }
      ],
      "stateMutability": "view",
      "type": "function"
    },
    {
      "inputs": [
        {
          "internalType": "address",
          "name": "account",
          "type": "address"
        },
        {
          "internalType": "uint256",
          "name": "points",
          "type": "uint256"
        }
      ],
      "name": "incrementCredibility",
      "outputs": [],
      "stateMutability": "nonpayable",
      "type": "function"
    },
    {
      "inputs": [
        {
          "internalType": "string",
          "name": "recordingId",
          "type": "string"
        },
        {
          "internalType": "address",
          "name": "buyer",
          "type": "address"
        }
      ],
      "name": "isPurchased",
      "outputs": [
        {
          "internalType": "bool",
          "name": "",
          "type": "bool"
        }
      ],
      "stateMutability": "view",
      "type": "function"
    },
    {
      "inputs": [],
      "name": "owner",
      "outputs": [
        {
          "internalType": "address",
          "name": "",
          "type": "address"
        }
      ],
      "stateMutability": "view",
      "type": "function"
    },
    {
      "inputs": [],
      "name": "platformWallet",
      "outputs": [
        {
          "internalType": "address",
          "name": "",
          "type": "address"
        }
      ],
      "stateMutability": "view",
      "type": "function"
    },
    {
      "inputs": [
        {
          "internalType": "string",
          "name": "recordingId",
          "type": "string"
        }
      ],
      "name": "purchase",
      "outputs": [],
      "stateMutability": "payable",
      "type": "function"
    },
    {
      "inputs": [
        {
          "internalType": "string",
          "name": "pseudonym",
          "type": "string"
        },
        {
          "internalType": "string",
          "name": "worldIdHash",
          "type": "string"
        }
      ],
      "name": "registerIdentity",
      "outputs": [],
      "stateMutability": "nonpayable",
      "type": "function"
    },
    {
      "inputs": [],
      "name": "safetyFundWallet",
      "outputs": [
        {
          "internalType": "address",
          "name": "",
          "type": "address"
        }
      ],
      "stateMutability": "view",
      "type": "function"
    },
    {
      "inputs": [],
      "name": "totalRecordings",
      "outputs": [
        {
          "internalType": "uint256",
          "name": "",
          "type": "uint256"
        }
      ],
      "stateMutability": "view",
      "type": "function"
    },
    {
      "inputs": [
        {
          "internalType": "string",
          "name": "recordingId",
          "type": "string"
        },
        {
          "internalType": "string",
          "name": "cid",
          "type": "string"
        }
      ],
      "name": "updateCid",
      "outputs": [],
      "stateMutability": "nonpayable",
      "type": "function"
    },
    {
      "inputs": [
        {
          "internalType": "string",
          "name": "recordingId",
          "type": "string"
        },
        {
          "internalType": "string[]",
          "name": "bundleIds",
          "type": "string[]"
        }
      ],
      "name": "updateCorroboration",
      "outputs": [],
      "stateMutability": "nonpayable",
      "type": "function"
    },
    {
      "inputs": [
        {
          "internalType": "string",
          "name": "recordingId",
          "type": "string"
        },
        {
          "internalType": "string",
          "name": "encryptedCid",
          "type": "string"
        }
      ],
      "name": "updateEncryptedCid",
      "outputs": [],
      "stateMutability": "nonpayable",
      "type": "function"
    }
  ],
  "bytecode": "0x6080346200009b57601f620025b838819003918201601f19168301916001600160401b03831184841017620000a05780849260409485528339810103126200009b576200005a60206200005283620000b6565b9201620000b6565b9060018060a01b0319913383600054161760005560018060a01b03809216836001541617600155169060025416176002556040516124ec9081620000cc8239f35b600080fd5b634e487b7160e01b600052604160045260246000fd5b51906001600160a01b03821682036200009b5756fe608080604052600436101561001357600080fd5b60003560e01c9081630be8293f146117375750806320023e8d146116ba5780632fea7b8114611589578063323ff2ab14610bc257806336c4786a14610ac857806349c26c2114610a595780634a70b7d1146109de5780634cadec821461094c5780634dce6627146109235780635338dcb21461090557806359f5e0ce1461044b5780638da5cb5b146104225780639200789a14610381578063989ad1fd1461034f578063a1d01bb11461026e578063dedd85b7146101085763fa2af9da146100da57600080fd5b34610103576000366003190112610103576001546040516001600160a01b039091168152602090f35b600080fd5b34610103576040366003190112610103576001600160401b0360043581811161010357610139903690600401611aae565b916024928335928284116101035736602385011215610103578360040135938385116101035736868660051b830101116101035761018260018060a01b0360005416331461203f565b60405193838386376101ae6101a7868681016003815260209889910301902054611dd6565b151561207b565b600a6040518585823786818781016003815203019020016101cf8782611ea6565b60009081528581209736849003604219018482015b89841061022c57897f6be0157aefd903bd417a5aaff634f221ed1f881917d0fd29cf4662d69f3467328a8a8a81604051928392833781016000815203902092604051908152a2005b803582811215610103578601838101359086821161010357604401908036038213610103576001926102628c928f948695611f6d565b019b01930192996101e4565b346101035761027c36611adb565b92916040518184823760038183019081528190036020019020600601546001600160a01b0316330361031b577f7dc2939b3b7e8c9de4685741e0eebde455351a6ef7ef94c4860b7a2fb317998e926102ec8584600460405186868237602081888101600381520301902001611f6d565b81604051928392833781016000815203902092610316604051928392602084526020840191611e6e565b0390a2005b60405162461bcd60e51b815260206004820152600c60248201526b4f6e6c79207769746e65737360a01b6044820152606490fd5b346101035760403660031901126101035761037d610371602435600435612400565b60405191829182611cbb565b0390f35b34610103576103e961039236611adb565b906103ab60018060a09795971b0360005416331461203f565b6103cc6101a760405187878237602081898101600381520301902054611dd6565b600560405186868237602081888101600381520301902001611f6d565b8160405192839283378101600081520390207fd3a6bda789b0f9a153b59e95009474b8f2848faf271075194219fe5102d5b270600080a2005b34610103576000366003190112610103576000546040516001600160a01b039091168152602090f35b6020366003190112610103576004356001600160401b03811161010357610476903690600401611aae565b604051818382376020818381016003815203019020916104996101a78454611dd6565b6009830180549060ff82166108d15760068501546001600160a01b0316331461088c576008850154948534106108505760558602908615928783046055148417156107ab57600a880293888504600a1417156107ab5761053e90600161050e60648704610509606488048d6120b3565b6120b3565b610100600160a81b03199091166001600160a81b0319909716969096173360081b610100600160a81b0316179055565b604051602081019061056481610556338b8b876120c0565b03601f198101835282611d6f565b519020604051908160808101106001600160401b0360808401111761083a5760808201604052610595368989611d90565b8252336020830152886040830152426060830152600052600660205260406000209080518051906001600160401b03821161083a576105de826105d88654611dd6565b86611e27565b602090601f83116001146107cc579180600394926060946000926107c1575b50508160011b9160001990861b1c19161784555b6001840160018060a01b036020830151166001600160601b0360a01b82541617905560408101516002850155015191015560018060a01b03600682015416600052600460205260066040600020016106698154612030565b905560018060a01b0360068201541660005260046020526004604060002001805490600582018092116107ab57556006015460009182918291829182916001600160a01b039091169060648104156107a1575b6064900491f1156107795760008080809360018060a01b036001541682916064810415610797575b6064900491f115610779576002546000918291829182916001600160a01b031682821561078e575bf1156107795782341161075a575b8160405192839283378101600081520390206040519182527f649fd51450201af39d9d6ae69e8d8d43b6ca949117f1079100b9573be4ae71ce60203393a3005b600080808061076987346120b3565b818115610785575b3390f161071a575b6040513d6000823e3d90fd5b506108fc610771565b506108fc61070c565b6108fc92506106e4565b6108fc92506106bc565b634e487b7160e01b600052601160045260246000fd5b015190508d806105fd565b908460005260206000209160005b601f19851681106108225750926003949260019260609583601f1981161061080a575b505050811b018455610611565b015160001983881b60f8161c191690558d80806107fd565b919260206001819286850151815501940192016107da565b634e487b7160e01b600052604160045260246000fd5b60405162461bcd60e51b8152602060048201526014602482015273125b9cdd59999a58da595b9d081c185e5b595b9d60621b6044820152606490fd5b60405162461bcd60e51b815260206004820152601860248201527f43616e6e6f7420627579206f776e207265636f7264696e6700000000000000006044820152606490fd5b60405162461bcd60e51b815260206004820152600c60248201526b105b1c9958591e481cdbdb1960a21b6044820152606490fd5b34610103576000366003190112610103576020600754604051908152f35b34610103576000366003190112610103576002546040516001600160a01b039091168152602090f35b3461010357604036600319011261010357610965611b25565b6000546001600160a01b03919061097f908316331461203f565b16806000526004602052600460406000200161099e60243582546120de565b90558060005260046020527fe523e59b52b7d053ab06b9be8218d0c6836f8c3d7db5e4093d445b5bceab98a16020600460406000200154604051908152a2005b34610103576020366003190112610103576004356001600160401b03811161010357610a45610a366020610a23610a1c61037d953690600401611aae565b3691611d90565b8160405193828580945193849201611b3b565b810160058152030190206121ed565b604051918291602083526020830190611b83565b34610103576020366003190112610103576004356001600160401b03811161010357610ab46020610a9161037d933690600401611aae565b9190610a9b6120eb565b5082604051938492833781016003815203019020612242565b604051918291602083526020830190611bdf565b3461010357602036600319011261010357610ae1611b25565b6007546001600160a01b03918216916000805b838110610b865750610b0590612309565b9260009160005b848110610b21576040518061037d8882611cbb565b8083836006610b3b610b35610b4896611f36565b50612359565b01541614610b4d57612030565b610b0c565b610b80610b5c610b3583611f36565b95610b6f610b6982612030565b97612242565b610b79828b6123ec565b52886123ec565b50612030565b84836006610b96610b3585611f36565b01541614610bad575b610ba890612030565b610af4565b90610bba610ba891612030565b919050610b9f565b346101035760a0366003190112610103576004356001600160401b03811161010357610bf2903690600401611aae565b906024356001600160401b03811161010357610c12903690600401611aae565b906044356001600160401b03811161010357610c32903690600401611aae565b9290916064356001600160401b03811161010357610c54903690600401611aae565b9033600052600460205260018060a01b03604060002054161561154457610c8f604051898982376020818b8101600381520301902054611dd6565b61150b57610d1e91610ccc60405194610ca786611d54565b6000865260405196610cb888611d38565b610cc3368d8d611d90565b88523691611d90565b6020860152610cdc368888611d90565b6040860152426060860152604051610cf381611d54565b600081526080860152604051610d0881611d54565b6000815260a08601523360c08601523691611d90565b60e08301526084356101008301526000610120830152600061014083015261016082015260405185858237602081878101600381520301902081518051906001600160401b03821161083a578190610d7a826105d88654611dd6565b602090601f831160011461149f57600092611494575b50508160011b916000199060031b1c19161781555b60208201518051906001600160401b03821161083a578190610dd782610dce6001870154611dd6565b60018701611e27565b602090601f831160011461142257600092611417575b50508160011b916000199060031b1c19161760018201555b60408201518051906001600160401b03821161083a578190610e3782610e2e6002870154611dd6565b60028701611e27565b602090601f83116001146113a55760009261139a575b50508160011b916000199060031b1c19161760028201555b6060820151600382015560808201518051906001600160401b03821161083a578190610ea182610e986004870154611dd6565b60048701611e27565b602090601f83116001146113285760009261131d575b50508160011b916000199060031b1c19161760048201555b60a08201518051906001600160401b03821161083a578190610f0182610ef86005870154611dd6565b60058701611e27565b602090601f83116001146112ab576000926112a0575b50508160011b916000199060031b1c19161760058201555b6006810160018060a01b0360c0840151166001600160601b0360a01b82541617905560e08201518051906001600160401b03821161083a57610f8182610f786007860154611dd6565b60078601611e27565b602090601f831160011461122a5791806101609492600a9460009261121f575b50508160011b916000199060031b1c19161760078201555b610100840151600882015561101060098201610fe86101208701511515829060ff801983541691151516179055565b6101408601518154610100600160a81b03191660089190911b610100600160a81b0316179055565b0191015160208151916110238385611ea6565b01916000526020600020916000905b82821061113c575050505060075491600160401b928381101561083a5780600161105f9201600755611f36565b6111265761107892602092610a1c8888610a2395611f6d565b810160058152030190209081549081101561083a5760018101808355811015611110578284916110b093600052602060002001611f6d565b33600052600460205260056040600020016110cb8154612030565b90558160405192839283378101600081520390206040519060843582527f0b444c12ba330ac6b032fb2cd3e6caf87e4d8928c467be72f33933b43c36ba8760203393a3005b634e487b7160e01b600052603260045260246000fd5b634e487b7160e01b600052600060045260246000fd5b80518051906001600160401b03821161083a576111638261115d8854611dd6565b88611e27565b602090601f83116001146111af5792826001949360209386956000926111a4575b5050600019600383901b1c191690841b1787555b01940191019092611032565b015190508d80611184565b908660005260206000209160005b601f1985168110611207575083602093600196938796938794601f198116106111ee575b505050811b018755611198565b015160001960f88460031b161c191690558d80806111e1565b919260206001819286850151815501940192016111bd565b015190508a80610fa1565b906007840160005260206000209160005b601f19851681106112885750926101609492600192600a9583601f1981161061126f575b505050811b016007820155610fb9565b015160001960f88460031b161c191690558a808061125f565b9192602060018192868501518155019401920161123b565b015190508880610f17565b9250600584016000526020600020906000935b601f1984168510611302576001945083601f198116106112e9575b505050811b016005820155610f2f565b015160001960f88460031b161c191690558880806112d9565b818101518355602094850194600190930192909101906112be565b015190508880610eb7565b9250600484016000526020600020906000935b601f198416851061137f576001945083601f19811610611366575b505050811b016004820155610ecf565b015160001960f88460031b161c19169055888080611356565b8181015183556020948501946001909301929091019061133b565b015190508880610e4d565b9250600284016000526020600020906000935b601f19841685106113fc576001945083601f198116106113e3575b505050811b016002820155610e65565b015160001960f88460031b161c191690558880806113d3565b818101518355602094850194600190930192909101906113b8565b015190508880610ded565b9250600184016000526020600020906000935b601f1984168510611479576001945083601f19811610611460575b505050811b016001820155610e05565b015160001960f88460031b161c19169055888080611450565b81810151835560209485019460019093019290910190611435565b015190508880610d90565b9250836000526020600020906000935b601f19841685106114f0576001945083601f198116106114d7575b505050811b018155610da5565b015160001960f88460031b161c191690558880806114ca565b818101518355602094850194600190930192909101906114af565b60405162461bcd60e51b8152602060048201526011602482015270494420616c72656164792065786973747360781b6044820152606490fd5b60405162461bcd60e51b815260206004820152601760248201527f5265676973746572206964656e746974792066697273740000000000000000006044820152606490fd5b3461010357602080600319360112610103576115a3611b25565b90600060c06040516115b481611d1d565b828152606084820152606060408201528260608201528260808201528260a0820152015260018060a01b03809216600052600481526040600020604051916115fb83611d1d565b83825416835261160d60018301612149565b9181840192835261162060028201612149565b926040850193845261169b60ff6003840154169460608701951515865261168860048501549360808901948552600660058701549660a08b0197885201549660c08a019788526040519a8b9a828c525116908a01525160e060408a0152610100890190611b5e565b9051878203601f19016060890152611b5e565b9351151560808601525160a08501525160c08401525160e08301520390f35b34610103576040366003190112610103576004356001600160401b038111610103576116ea903690600401611aae565b906001600160a01b039060243582811681036101035761171960209461055660405193849288840196876120c0565b51902060005260068252600160406000200154161515604051908152f35b346101035761174536611adb565b92909333600052600460205260018060a01b03908160406000205416611a7757508215611a3d578315611a35576019945b60ff6040519661178588611d1d565b3388526117a6611796368888611d90565b9360208a01948552883691611d90565b60408901528615156060890152166080870152600060a0870152600060c08701523360005260046020526040600020918651166001600160601b0360a01b83541617825551948551956001600160401b039687811161083a57806001850192611813826105d88654611dd6565b602090601f83116001146119cf576000926119c4575b50508160011b916000199060031b1c19161790555b604081015195865190811161083a576118678161185e6002860154611dd6565b60028601611e27565b6020601f82116001146119295761190e9493928260069360c0937f4ab0314c8a84eb15acd288a1e7ab89a8da3fc57c9b2ea0cf20071209add7cc699a9b60009261191e575b50508160011b916000199060031b1c19161760028501555b6118e360608201511515600386019060ff801983541691151516179055565b6080810151600485015560a08101516005850155015191015560405192604084526040840191611e6e565b92151560208201528033930390a2005b015190508b806118ac565b6002840160005260206000209760005b601f19841681106119ac5750926001837f4ab0314c8a84eb15acd288a1e7ab89a8da3fc57c9b2ea0cf20071209add7cc69999a60c09461190e999897600697601f19811610611993575b505050811b0160028501556118c4565b015160001960f88460031b161c191690558b8080611983565b828201518a5560019099019860209283019201611939565b015190508980611829565b6000858152602081209350601f198516905b818110611a1d5750908460019594939210611a04575b505050811b01905561183e565b015160001960f88460031b161c191690558980806119f7565b929360206001819287860151815501950193016119e1565b600a94611776565b60405162461bcd60e51b8152602060048201526012602482015271141cd95d591bdb9e5b481c995c5d5a5c995960721b6044820152606490fd5b62461bcd60e51b8152602060048201526012602482015271105b1c9958591e481c9959da5cdd195c995960721b6044820152606490fd5b9181601f84011215610103578235916001600160401b038311610103576020838186019501011161010357565b6040600319820112610103576001600160401b03916004358381116101035782611b0791600401611aae565b9390939260243591821161010357611b2191600401611aae565b9091565b600435906001600160a01b038216820361010357565b60005b838110611b4e5750506000910152565b8181015183820152602001611b3e565b90602091611b7781518092818552858086019101611b3b565b601f01601f1916010190565b908082519081815260208091019281808460051b8301019501936000915b848310611bb15750505050505090565b9091929394958480611bcf600193601f198682030187528a51611b5e565b9801930193019194939290611ba1565b90611cb891611c55611c43611c27611c15611c038551610180808952880190611b5e565b60208601518782036020890152611b5e565b60408501518682036040880152611b5e565b6060840151606086015260808401518582036080870152611b5e565b60a083015184820360a0860152611b5e565b91611c7f60018060a01b03938460c08501511660c084015260e084015183820360e0850152611b5e565b92610100808401519083015261012080840151151590830152610140908184015116908201526101608092015191818403910152611b83565b90565b602080820190808352835180925260408301928160408460051b8301019501936000915b848310611cef5750505050505090565b9091929394958480611d0d600193603f198682030187528a51611bdf565b9801930193019194939290611cdf565b60e081019081106001600160401b0382111761083a57604052565b61018081019081106001600160401b0382111761083a57604052565b602081019081106001600160401b0382111761083a57604052565b90601f801991011681019081106001600160401b0382111761083a57604052565b9291926001600160401b03821161083a5760405191611db9601f8201601f191660200184611d6f565b829481845281830111610103578281602093846000960137010152565b90600182811c92168015611e06575b6020831014611df057565b634e487b7160e01b600052602260045260246000fd5b91607f1691611de5565b818110611e1b575050565b60008155600101611e10565b9190601f8111611e3657505050565b611e62926000526020600020906020601f840160051c83019310611e64575b601f0160051c0190611e10565b565b9091508190611e55565b908060209392818452848401376000828201840152601f01601f1916010190565b6001600160401b03811161083a5760051b60200190565b600160401b821161083a57805491808255828110611ec357505050565b600091825260209081832093840193015b838110611ee15750505050565b8083611eef60019354611dd6565b80611efd575b505001611ed4565b601f8082118514611f1457505081555b8338611ef5565b611f2d90848452868420920160051c8201858301611e10565b81835555611f0d565b6007548110156111105760076000527fa66cc928b5edb82af9bd49922954155ab7b0942694bea4ce44661d9a8736c6880190600090565b9092916001600160401b03811161083a57611f9281611f8c8454611dd6565b84611e27565b6000601f8211600114611fcc5781929394600092611fc1575b50508160011b916000199060031b1c1916179055565b013590503880611fab565b601f198216948382526020918281209281905b88821061201857505083600195969710611ffe575b505050811b019055565b0135600019600384901b60f8161c19169055388080611ff4565b80600184968294958701358155019501920190611fdf565b60001981146107ab5760010190565b1561204657565b60405162461bcd60e51b815260206004820152600d60248201526c4f6e6c7920706c6174666f726d60981b6044820152606490fd5b1561208257565b60405162461bcd60e51b8152602060048201526009602482015268139bdd08199bdd5b9960ba1b6044820152606490fd5b919082039182116107ab57565b826014949392823701906001600160601b03199060601b1681520190565b919082018092116107ab57565b604051906120f882611d38565b816101606060918281528260208201528260408201526000838201528260808201528260a0820152600060c08201528260e08201526000610100820152600061012082015260006101408201520152565b906040519182600082549261215d84611dd6565b9081845260019485811690816000146121ca5750600114612187575b5050611e6292500383611d6f565b9093915060005260209081600020936000915b8183106121b2575050611e6293508201013880612179565b8554888401850152948501948794509183019161219a565b915050611e6294506020925060ff191682840152151560051b8201013880612179565b9081546121f981611e8f565b926122076040519485611d6f565b818452600090815260208082208186015b848410612226575050505050565b600183819261223485612149565b815201920193019290612218565b9060405161224f81611d38565b610160612304600a839561226281612149565b855261227060018201612149565b602086015261228160028201612149565b60408601526003810154606086015261229c60048201612149565b60808601526122ad60058201612149565b60a086015260068101546001600160a01b0390811660c08701526122d360078301612149565b60e08701526008820154610100870152600982015460ff8116151561012088015260081c16610140860152016121ed565b910152565b9061231382611e8f565b6123206040519182611d6f565b8281528092612331601f1991611e8f565b019060005b82811061234257505050565b60209061234d6120eb565b82828501015201612336565b60405190816000825461236b81611dd6565b936001918083169081156123d05750600114612393575b505060209250600381520301902090565b90915060005260209081600020906000915b8583106123bc575050505060209181013880612382565b8054878401528694509183019181016123a5565b92505050602093915060ff191682528015150281013880612382565b80518210156111105760209160051b010190565b9060328111156124b1575060325b600754908183101561249b578161242582856120de565b111561248b57505b61243f61243a83836120b3565b612309565b91805b82811061244f5750505090565b80610b80612462610b3561248694611f36565b61247561246f86856120b3565b91612242565b61247f82896123ec565b52866123ec565b612442565b6124969150826120de565b61242d565b5050506040516124aa81611d54565b6000815290565b61240e56fea26469706673582212208fd9da596f5fe37c94dce9775ecaa5a45a05c2a68268bc0f68e416f7b6bd9e4764736f6c63430008140033",
  "linkReferences": {},
  "deployedLinkReferences": {}
}