{
  "_format": "hh-sol-artifact-1",
  "contractName": "AgentRegistry",
  "sourceName": "src/AgentRegistry.sol",
  "abi": [
    {
      "inputs": [],
      "stateMutability": "nonpayable",
      "type": "constructor"
    },
    {
      "anonymous": false,
      "inputs": [
        {
          "indexed": true,
          "internalType": "address",
          "name": "agent",
          "type": "address"
        }
      ],
      "name": "AgentDeactivated",
      "type": "event"
    },
    {
      "anonymous": false,
      "inputs": [
        {
          "indexed": true,
          "internalType": "address",
          "name": "agent",
          "type": "address"
        },
        {
          "indexed": true,
          "internalType": "address",
          "name": "operator",
          "type": "address"
        },
        {
          "indexed": false,
          "internalType": "string",
          "name": "did",
          "type": "string"
        }
      ],
      "name": "AgentRegistered",
      "type": "event"
    },
    {
      "anonymous": false,
      "inputs": [
        {
          "indexed": true,
          "internalType": "address",
          "name": "agent",
          "type": "address"
        },
        {
          "indexed": true,
          "internalType": "address",
          "name": "issuer",
          "type": "address"
        },
        {
          "indexed": false,
          "internalType": "string",
          "name": "credentialType",
          "type": "string"
        }
      ],
      "name": "CredentialIssued",
      "type": "event"
    },
    {
      "anonymous": false,
      "inputs": [
        {
          "indexed": true,
          "internalType": "address",
          "name": "agent",
          "type": "address"
        },
        {
          "indexed": false,
          "internalType": "string",
          "name": "credentialType",
          "type": "string"
        }
      ],
      "name": "CredentialRevoked",
      "type": "event"
    },
    {
      "anonymous": false,
      "inputs": [
        {
          "indexed": true,
          "internalType": "address",
          "name": "agent",
          "type": "address"
        },
        {
          "indexed": false,
          "internalType": "uint256",
          "name": "newScore",
          "type": "uint256"
        },
        {
          "indexed": false,
          "internalType": "string",
          "name": "reason",
          "type": "string"
        }
      ],
      "name": "ReputationUpdated",
      "type": "event"
    },
    {
      "inputs": [
        {
          "internalType": "bytes32",
          "name": "",
          "type": "bytes32"
        }
      ],
      "name": "credentials",
      "outputs": [
        {
          "internalType": "address",
          "name": "agent",
          "type": "address"
        },
        {
          "internalType": "address",
          "name": "issuer",
          "type": "address"
        },
        {
          "internalType": "string",
          "name": "credentialType",
          "type": "string"
        },
        {
          "internalType": "string",
          "name": "evidenceCid",
          "type": "string"
        },
        {
          "internalType": "uint256",
          "name": "issuedAt",
          "type": "uint256"
        },
        {
          "internalType": "bool",
          "name": "revoked",
          "type": "bool"
        }
      ],
      "stateMutability": "view",
      "type": "function"
    },
    {
      "inputs": [
        {
          "internalType": "address",
          "name": "agent",
          "type": "address"
        }
      ],
      "name": "deactivateAgent",
      "outputs": [],
      "stateMutability": "nonpayable",
      "type": "function"
    },
    {
      "inputs": [
        {
          "internalType": "address",
          "name": "agent",
          "type": "address"
        }
      ],
      "name": "getAgentIdentity",
      "outputs": [
        {
          "components": [
            {
              "internalType": "address",
              "name": "agent",
              "type": "address"
            },
            {
              "internalType": "address",
              "name": "operator",
              "type": "address"
            },
            {
              "internalType": "string",
              "name": "did",
              "type": "string"
            },
            {
              "internalType": "string",
              "name": "name",
              "type": "string"
            },
            {
              "internalType": "string[]",
              "name": "capabilities",
              "type": "string[]"
            },
            {
              "internalType": "string",
              "name": "metadataUri",
              "type": "string"
            },
            {
              "internalType": "uint256",
              "name": "registeredAt",
              "type": "uint256"
            },
            {
              "internalType": "bool",
              "name": "active",
              "type": "bool"
            }
          ],
          "internalType": "struct AgentRegistry.AgentIdentity",
          "name": "",
          "type": "tuple"
        }
      ],
      "stateMutability": "view",
      "type": "function"
    },
    {
      "inputs": [
        {
          "internalType": "address",
          "name": "agent",
          "type": "address"
        }
      ],
      "name": "getAgentReputation",
      "outputs": [
        {
          "components": [
            {
              "internalType": "uint256",
              "name": "score",
              "type": "uint256"
            },
            {
              "internalType": "uint256",
              "name": "tasksCompleted",
              "type": "uint256"
            },
            {
              "internalType": "uint256",
              "name": "tasksFailed",
              "type": "uint256"
            },
            {
              "internalType": "uint256",
              "name": "lastUpdated",
              "type": "uint256"
            }
          ],
          "internalType": "struct AgentRegistry.AgentReputation",
          "name": "",
          "type": "tuple"
        }
      ],
      "stateMutability": "view",
      "type": "function"
    },
    {
      "inputs": [
        {
          "internalType": "address",
          "name": "agent",
          "type": "address"
        },
        {
          "internalType": "string",
          "name": "credentialType",
          "type": "string"
        }
      ],
      "name": "getCredential",
      "outputs": [
        {
          "components": [
            {
              "internalType": "address",
              "name": "agent",
              "type": "address"
            },
            {
              "internalType": "address",
              "name": "issuer",
              "type": "address"
            },
            {
              "internalType": "string",
              "name": "credentialType",
              "type": "string"
            },
            {
              "internalType": "string",
              "name": "evidenceCid",
              "type": "string"
            },
            {
              "internalType": "uint256",
              "name": "issuedAt",
              "type": "uint256"
            },
            {
              "internalType": "bool",
              "name": "revoked",
              "type": "bool"
            }
          ],
          "internalType": "struct AgentRegistry.ValidationCredential",
          "name": "",
          "type": "tuple"
        }
      ],
      "stateMutability": "view",
      "type": "function"
    },
    {
      "inputs": [
        {
          "internalType": "address",
          "name": "agent",
          "type": "address"
        },
        {
          "internalType": "string",
          "name": "credentialType",
          "type": "string"
        }
      ],
      "name": "hasCredential",
      "outputs": [
        {
          "internalType": "bool",
          "name": "",
          "type": "bool"
        }
      ],
      "stateMutability": "view",
      "type": "function"
    },
    {
      "inputs": [
        {
          "internalType": "address",
          "name": "",
          "type": "address"
        }
      ],
      "name": "identities",
      "outputs": [
        {
          "internalType": "address",
          "name": "agent",
          "type": "address"
        },
        {
          "internalType": "address",
          "name": "operator",
          "type": "address"
        },
        {
          "internalType": "string",
          "name": "did",
          "type": "string"
        },
        {
          "internalType": "string",
          "name": "name",
          "type": "string"
        },
        {
          "internalType": "string",
          "name": "metadataUri",
          "type": "string"
        },
        {
          "internalType": "uint256",
          "name": "registeredAt",
          "type": "uint256"
        },
        {
          "internalType": "bool",
          "name": "active",
          "type": "bool"
        }
      ],
      "stateMutability": "view",
      "type": "function"
    },
    {
      "inputs": [
        {
          "internalType": "address",
          "name": "agent",
          "type": "address"
        },
        {
          "internalType": "string",
          "name": "credentialType",
          "type": "string"
        },
        {
          "internalType": "string",
          "name": "evidenceCid",
          "type": "string"
        }
      ],
      "name": "issueCredential",
      "outputs": [],
      "stateMutability": "nonpayable",
      "type": "function"
    },
    {
      "inputs": [],
      "name": "owner",
      "outputs": [
        {
          "internalType": "address",
          "name": "",
          "type": "address"
        }
      ],
      "stateMutability": "view",
      "type": "function"
    },
    {
      "inputs": [
        {
          "internalType": "address",
          "name": "agent",
          "type": "address"
        },
        {
          "internalType": "string",
          "name": "reason",
          "type": "string"
        }
      ],
      "name": "recordTaskFailure",
      "outputs": [],
      "stateMutability": "nonpayable",
      "type": "function"
    },
    {
      "inputs": [
        {
          "internalType": "address",
          "name": "agent",
          "type": "address"
        },
        {
          "internalType": "string",
          "name": "reason",
          "type": "string"
        }
      ],
      "name": "recordTaskSuccess",
      "outputs": [],
      "stateMutability": "nonpayable",
      "type": "function"
    },
    {
      "inputs": [
        {
          "internalType": "address",
          "name": "agent",
          "type": "address"
        },
        {
          "internalType": "string",
          "name": "did",
          "type": "string"
        },
        {
          "internalType": "string",
          "name": "name",
          "type": "string"
        },
        {
          "internalType": "string[]",
          "name": "capabilities",
          "type": "string[]"
        },
        {
          "internalType": "string",
          "name": "metadataUri",
          "type": "string"
        }
      ],
      "name": "registerAgent",
      "outputs": [],
      "stateMutability": "nonpayable",
      "type": "function"
    },
    {
      "inputs": [
        {
          "internalType": "uint256",
          "name": "",
          "type": "uint256"
        }
      ],
      "name": "registeredAgents",
      "outputs": [
        {
          "internalType": "address",
          "name": "",
          "type": "address"
        }
      ],
      "stateMutability": "view",
      "type": "function"
    },
    {
      "inputs": [
        {
          "internalType": "address",
          "name": "",
          "type": "address"
        }
      ],
      "name": "reputations",
      "outputs": [
        {
          "internalType": "uint256",
          "name": "score",
          "type": "uint256"
        },
        {
          "internalType": "uint256",
          "name": "tasksCompleted",
          "type": "uint256"
        },
        {
          "internalType": "uint256",
          "name": "tasksFailed",
          "type": "uint256"
        },
        {
          "internalType": "uint256",
          "name": "lastUpdated",
          "type": "uint256"
        }
      ],
      "stateMutability": "view",
      "type": "function"
    },
    {
      "inputs": [
        {
          "internalType": "address",
          "name": "agent",
          "type": "address"
        },
        {
          "internalType": "string",
          "name": "credentialType",
          "type": "string"
        }
      ],
      "name": "revokeCredential",
      "outputs": [],
      "stateMutability": "nonpayable",
      "type": "function"
    },
    {
      "inputs": [],
      "name": "totalAgents",
      "outputs": [
        {
          "internalType": "uint256",
          "name": "",
          "type": "uint256"
        }
      ],
      "stateMutability": "view",
      "type": "function"
    }
  ],
  "bytecode": "0x6080806040523461002857600080546001600160a01b03191633179055611b78908161002e8239f35b600080fdfe608080604052600436101561001357600080fd5b60003560e01c90816306fa15a71461174457508063299d0348146116a75780632f4b5ad31461156b57806341d08f7a14610cc05780638a1ec4dc14610aa15780638d8fc2f7146109ca5780638da5cb5b146109a15780639f4ed4fb146105b3578063a6050c59146104cb578063a7bd211c14610489578063b0a0a927146103bf578063b94f550c14610323578063c505371214610305578063d985444214610239578063ebeae587146101985763f653b81e146100cf57600080fd5b34610193576020366003190112610193576001600160a01b03806100f161179c565b1660005260016020526040600020908082541690600183015416916101186002820161185f565b6101826101276003840161185f565b6101746101366005860161185f565b9161016660ff600760068901549801541695604051998a998a5260208a015260e060408a015260e0890190611905565b908782036060890152611905565b908582036080870152611905565b9160a0840152151560c08301520390f35b600080fd5b34610193576020366003190112610193576101b161179c565b600060606040516101c181611823565b828152826020820152826040820152015260018060a01b03166000526002602052608060406000206040516101f581611823565b815491828252600181015460208301908152606060036002840154936040860194855201549301928352604051938452516020840152516040830152516060820152f35b346101935761026f61024a36611972565b919290610261604051938492602084019687611b1e565b03601f19810183528261183e565b5190206000526003602052602060406000206040519061028e826117ec565b80546001600160a01b03908116835260018201548116848401529060ff906005906102bb6002820161185f565b60408601526102cc6003820161185f565b6060860152600481015460808601520154161591821560a08201525116151590816102fd575b506040519015158152f35b9050826102f2565b34610193576000366003190112610193576020600454604051908152f35b34610193577f47b59d3599ed2ba34f6334425c05eff11ba50848c9b4c4a10d73ddcc9c8c8d0261035236611972565b92916103ba60018060a01b039261036e84600054163314611a97565b6040516020810190610386816102618a868987611b1e565b51902060005260036020526005604060002001600160ff198254161790556040519384936020855216956020840191611a76565b0390a2005b34610193576020366003190112610193576001600160a01b03806103e161179c565b16908160005260016020528060016040600020015416331490811561047b575b501561044757806000526001602052600760406000200160ff1981541690557fa58c733780f5c1527d6106ff1e731cbf2e9ffc0eb11ad399ca33ea55f057ddf4600080a2005b60405162461bcd60e51b815260206004820152600c60248201526b2737ba1037b832b930ba37b960a11b6044820152606490fd5b905060005416331482610401565b3461019357602036600319011261019357600435600454811015610193576104b26020916119b5565b905460405160039290921b1c6001600160a01b03168152f35b34610193576104d936611972565b60005490926001600160a01b03916104f49083163314611a97565b169182600052600160205261051360ff60076040600020015416611ad0565b82600052600260205260406000206001810161052f8154611b0f565b90558054600a810180911161059d577fc17e77081800e4bec45161da763d23d62f41146fb2629ee32a8fea0765743a12936103ba916103e890818111156105955750925b8381556003429101556040519384938452604060208501526040840191611a76565b905092610573565b634e487b7160e01b600052601160045260246000fd5b34610193576060366003190112610193576105cc61179c565b6024356001600160401b038111610193576105eb903690600401611945565b6044929192356001600160401b0381116101935761060d903690600401611945565b939060018060a01b0390818516600052600160205261063660ff60076040600020015416611ad0565b604051602081019061064e8161026188888b87611b1e565b519020956040519661065f886117ec565b8387168852610689602089019333855261067a368989611a02565b9360408b019485523691611a02565b6060890152426080890152600060a08901526000526003602052604060002091838851166001600160601b0360a01b9081855416178455846001850192511690825416179055518051906001600160401b0382116108d95781906106f060028501546117b2565b601f811161096c575b50602090601f83116001146108fa576000926108ef575b50508160011b916000199060031b1c19161760028201555b60608601519586516001600160401b0381116108d95761074b60038401546117b2565b601f8111610899575b506020601f82116001146107fe576107d393928260059360a0937f5e411fa350dbdf70682c0a3c1115999a6ef7a54143c1a6748b2a0d53da4717fd9a9b9c6000926107f3575b50508160011b916000199060031b1c19161760038501555b608081015160048501550151151591019060ff801983541691151516179055565b6107ee60405192839260208452339716956020840191611a76565b0390a3005b015190508c8061079a565b6003840160005260206000209860005b601f19841681106108815750926001837f5e411fa350dbdf70682c0a3c1115999a6ef7a54143c1a6748b2a0d53da4717fd999a9b60a0946107d39897600597601f19811610610868575b505050811b0160038501556107b2565b015160001960f88460031b161c191690558c8080610858565b828201518b556001909a01996020928301920161080e565b6108c990600385016000526020600020601f840160051c810191602085106108cf575b601f0160051c0190611a5f565b88610754565b90915081906108bc565b634e487b7160e01b600052604160045260246000fd5b015190508880610710565b9250600284016000526020600020906000935b601f1984168510610951576001945083601f19811610610938575b505050811b016002820155610728565b015160001960f88460031b161c19169055888080610928565b8181015183556020948501946001909301929091019061090d565b61099b90600286016000526020600020601f850160051c810191602086106108cf57601f0160051c0190611a5f565b896106f9565b34610193576000366003190112610193576000546040516001600160a01b039091168152602090f35b34610193576109d836611972565b60005490926001600160a01b03916109f39083163314611a97565b1691826000526002602052604060002060028101610a118154611b0f565b905580546014811015610a6957506103ba7fc17e77081800e4bec45161da763d23d62f41146fb2629ee32a8fea0765743a12936000928381556003429101556040519384938452604060208501526040840191611a76565b601319810190811161059d577fc17e77081800e4bec45161da763d23d62f41146fb2629ee32a8fea0765743a12936103ba9192610573565b3461019357602036600319011261019357610aba61179c565b60405190610ac782611807565b6000825260006020830152600060e060609384604082015284808201528460808201528460a08201528260c0820152015260018060a01b03809116600052600160205260406000209160405190610b1d82611807565b828454168252826001850154169260208301938452610b3e6002860161185f565b60408401908152610b516003870161185f565b9183850192835260048701968754610b6881611a48565b98610b766040519a8b61183e565b818a5260208a019060005260206000206000915b838310610ca3575050505091610bfb9160ff6007610c0e969560808a019b8c52610bb66005820161185f565b60a08b0152600681015460c08b0152015416151560e088015260405197602089528188511660208a015251166040880152516101008095880152610120870190611905565b9051858203601f19016080870152611905565b935193601f198482030160a0850152845180825260208201906020808260051b8501019701916000905b828210610c75578780888860e0610c5f8e60a0850151601f198783030160c0880152611905565b9260c08101518286015201511515908301520390f35b9091929397602080610c93600193601f198d82030186528851611905565b9a96019493919091019101610c38565b600160208192610cb28561185f565b815201920192019190610b8a565b346101935760a036600319011261019357610cd961179c565b6024356001600160401b03811161019357610cf8903690600401611945565b906044356001600160401b03811161019357610d18903690600401611945565b906001600160401b036064351161019357366023606435011215610193576001600160401b036064356004013511610193573660246064356004013560051b606435010111610193576001600160401b036084351161019357610d8036608435600401611945565b6001600160a01b0387811660009081526001602052604090205492939192166115265785156114f257610de39060405194610dba86611807565b6001600160a01b0389168652336020870152610dd7368989611a02565b60408701523691611a02565b6060840152610df760643560040135611a48565b610e04604051918261183e565b60643560048101358252602401602082015b60246064356004013560051b606435010182106114ab5750506080840152610e4091369190611a02565b60a08201524260c0820152600160e082015260018060a01b038416600052600160205260406000209060018060a01b038151166001600160601b0360a01b9081845416178355600183019060018060a01b036020840151169082541617905560408101518051906001600160401b0382116108d9578190610ec460028601546117b2565b601f8111611476575b50602090601f8311600114611404576000926113f9575b50508160011b916000199060031b1c19161760028301555b60608101518051906001600160401b0382116108d9578190610f2160038601546117b2565b601f81116113c4575b50602090601f831160011461135257600092611347575b50508160011b916000199060031b1c19161760038301555b6080810151805190600160401b82116108d95760048401548260048601558083106112cf575b5060200190600484016000526020600020916000905b8282106111ba575050505060a08101518051906001600160401b0382116108d957610fc360058501546117b2565b601f8111611185575b50602090601f831160011461110c57928260079360e0936110299796600092611101575b50508160011b916000199060031b1c19161760058501555b60c081015160068501550151151591019060ff801983541691151516179055565b60405161103581611823565b60648152600360208201600081526040830160008152606084019142835260018060a01b038816600052600260205260406000209451855551600185015551600284015551910155600454600160401b8110156108d9577fd73ee4827561fd4bd6453ab3bab25535b087fed01b153b3e5e7890b21c5057f7916110c18260016107ee94016004556119b5565b81549060031b9060018060a01b038816821b9160018060a01b03901b191617905560405191829160208352339660018060a01b0316956020840191611a76565b015190508a80610ff0565b906005850160005260206000209160005b601f198516811061116d57508360e093611029979693600193600797601f19811610611154575b505050811b016005850155611008565b015160001960f88460031b161c191690558a8080611144565b9192602060018192868501518155019401920161111d565b6111b490600586016000526020600020601f850160051c810191602086106108cf57601f0160051c0190611a5f565b87610fcc565b80518051906001600160401b0382116108d9576111d786546117b2565b601f811161129d575b50602090601f831160011461122d579282600194936020938695600092611222575b5050600019600383901b1c191690841b1787555b01940191019092610f95565b015190508e80611202565b908660005260206000209160005b601f1985168110611285575083602093600196938796938794601f1981161061126c575b505050811b018755611216565b015160001960f88460031b161c191690558e808061125f565b9192602060018192868501518155019401920161123b565b6112c990876000526020600020601f850160051c810191602086106108cf57601f0160051c0190611a5f565b8b6111e0565b600485016000526020600020908382015b81830181106112f0575050610f7f565b806112fd600192546117b2565b8061130a575b50016112e0565b601f811183146113205750600081555b8b611303565b60009082825261133e601f60208420920160051c8201858301611a5f565b8183555561131a565b015190508780610f41565b9250600385016000526020600020906000935b601f19841685106113a9576001945083601f19811610611390575b505050811b016003830155610f59565b015160001960f88460031b161c19169055878080611380565b81810151835560209485019460019093019290910190611365565b6113f390600387016000526020600020601f850160051c810191602086106108cf57601f0160051c0190611a5f565b88610f2a565b015190508780610ee4565b9250600285016000526020600020906000935b601f198416851061145b576001945083601f19811610611442575b505050811b016002830155610efc565b015160001960f88460031b161c19169055878080611432565b81810151835560209485019460019093019290910190611417565b6114a590600287016000526020600020601f850160051c810191602086106108cf57601f0160051c0190611a5f565b88610ecd565b81356001600160401b0381116101935736604382606435010112156101935760209182916114e790369060643501602481013590604401611a02565b815201910190610e16565b60405162461bcd60e51b815260206004820152600c60248201526b111251081c995c5d5a5c995960a21b6044820152606490fd5b60405162461bcd60e51b815260206004820152601860248201527f4167656e7420616c7265616479207265676973746572656400000000000000006044820152606490fd5b346101935761157936611972565b9160405191611587836117ec565b60008352600060a060209482868201526060604082015260608082015282608082015201526115bf6040519485928584019485611b1e565b03926115d3601f199485810183528261183e565b519020600052600381526040600020604051916115ef836117ec565b81546001600160a01b03908116845260018301548116828501908152909461169491906116836116216002870161185f565b60408801908152886116356003890161185f565b9460608a0195865260ff600560048b01549a60808d019b8c520154169760a08b0198151589526040519b8c9b828d525116908b0152511660408901525160c0606089015260e0880190611905565b915190868303016080870152611905565b915160a084015251151560c08301520390f35b34610193576020366003190112610193576004356000526003602052604060002060018060a01b038082541690600183015416916116e76002820161185f565b6117336116f66003840161185f565b61172560ff6005600487015496015416936040519788978852602088015260c0604088015260c0870190611905565b908582036060870152611905565b916080840152151560a08301520390f35b34610193576020366003190112610193576080906001600160a01b0361176861179c565b1660005260026020526040600020805490600181015460036002830154920154928452602084015260408301526060820152f35b600435906001600160a01b038216820361019357565b90600182811c921680156117e2575b60208310146117cc57565b634e487b7160e01b600052602260045260246000fd5b91607f16916117c1565b60c081019081106001600160401b038211176108d957604052565b61010081019081106001600160401b038211176108d957604052565b608081019081106001600160401b038211176108d957604052565b90601f801991011681019081106001600160401b038211176108d957604052565b9060405191826000825492611873846117b2565b9081845260019485811690816000146118e2575060011461189f575b505061189d9250038361183e565b565b9093915060005260209081600020936000915b8183106118ca57505061189d9350820101388061188f565b855488840185015294850194879450918301916118b2565b91505061189d94506020925060ff191682840152151560051b820101388061188f565b919082519283825260005b848110611931575050826000602080949584010152601f8019910116010190565b602081830181015184830182015201611910565b9181601f84011215610193578235916001600160401b038311610193576020838186019501011161019357565b906040600319830112610193576004356001600160a01b03811681036101935791602435906001600160401b038211610193576119b191600401611945565b9091565b6004548110156119ec5760046000527f8a35acfbc15ff81a39ae7d344fd709f28e8600b4aa8c65c6b64bfe7fe36bd19b0190600090565b634e487b7160e01b600052603260045260246000fd5b9291926001600160401b0382116108d95760405191611a2b601f8201601f19166020018461183e565b829481845281830111610193578281602093846000960137010152565b6001600160401b0381116108d95760051b60200190565b818110611a6a575050565b60008155600101611a5f565b908060209392818452848401376000828201840152601f01601f1916010190565b15611a9e57565b60405162461bcd60e51b815260206004820152600a60248201526927b7363c9037bbb732b960b11b6044820152606490fd5b15611ad757565b60405162461bcd60e51b815260206004820152601060248201526f4167656e74206e6f742061637469766560801b6044820152606490fd5b600019811461059d5760010190565b909280926014946001600160601b03199060601b168352848301370101600081529056fea2646970667358221220f44dfaa5a6fac2ba37aa8c94da8a483eaa4e664ba2e85b222cd45fd43f415a4864736f6c63430008140033",
  "linkReferences": {},
  "deployedLinkReferences": {}
}