{"src/AgentRegistry.sol":{"AgentRegistry":{"abi":[{"inputs":[],"stateMutability":"nonpayable","type":"constructor"},{"anonymous":false,"inputs":[{"indexed":true,"internalType":"address","name":"agent","type":"address"}],"name":"AgentDeactivated","type":"event"},{"anonymous":false,"inputs":[{"indexed":true,"internalType":"address","name":"agent","type":"address"},{"indexed":true,"internalType":"address","name":"operator","type":"address"},{"indexed":false,"internalType":"string","name":"did","type":"string"}],"name":"AgentRegistered","type":"event"},{"anonymous":false,"inputs":[{"indexed":true,"internalType":"address","name":"agent","type":"address"},{"indexed":true,"internalType":"address","name":"issuer","type":"address"},{"indexed":false,"internalType":"string","name":"credentialType","type":"string"}],"name":"CredentialIssued","type":"event"},{"anonymous":false,"inputs":[{"indexed":true,"internalType":"address","name":"agent","type":"address"},{"indexed":false,"internalType":"string","name":"credentialType","type":"string"}],"name":"CredentialRevoked","type":"event"},{"anonymous":false,"inputs":[{"indexed":true,"internalType":"address","name":"agent","type":"address"},{"indexed":false,"internalType":"uint256","name":"newScore","type":"uint256"},{"indexed":false,"internalType":"string","name":"reason","type":"string"}],"name":"ReputationUpdated","type":"event"},{"inputs":[{"internalType":"bytes32","name":"","type":"bytes32"}],"name":"credentials","outputs":[{"internalType":"address","name":"agent","type":"address"},{"internalType":"address","name":"issuer","type":"address"},{"internalType":"string","name":"credentialType","type":"string"},{"internalType":"string","name":"evidenceCid","type":"string"},{"internalType":"uint256","name":"issuedAt","type":"uint256"},{"internalType":"bool","name":"revoked","type":"bool"}],"stateMutability":"view","type":"function"},{"inputs":[{"internalType":"address","name":"agent","type":"address"}],"name":"deactivateAgent","outputs":[],"stateMutability":"nonpayable","type":"function"},{"inputs":[{"internalType":"address","name":"agent","type":"address"}],"name":"getAgentIdentity","outputs":[{"components":[{"internalType":"address","name":"agent","type":"address"},{"internalType":"address","name":"operator","type":"address"},{"internalType":"string","name":"did","type":"string"},{"internalType":"string","name":"name","type":"string"},{"internalType":"string[]","name":"capabilities","type":"string[]"},{"internalType":"string","name":"metadataUri","type":"string"},{"internalType":"uint256","name":"registeredAt","type":"uint256"},{"internalType":"bool","name":"active","type":"bool"}],"internalType":"struct AgentRegistry.AgentIdentity","name":"","type":"tuple"}],"stateMutability":"view","type":"function"},{"inputs":[{"internalType":"address","name":"agent","type":"address"}],"name":"getAgentReputation","outputs":[{"components":[{"internalType":"uint256","name":"score","type":"uint256"},{"internalType":"uint256","name":"tasksCompleted","type":"uint256"},{"internalType":"uint256","name":"tasksFailed","type":"uint256"},{"internalType":"uint256","name":"lastUpdated","type":"uint256"}],"internalType":"struct AgentRegistry.AgentReputation","name":"","type":"tuple"}],"stateMutability":"view","type":"function"},{"inputs":[{"internalType":"address","name":"agent","type":"address"},{"internalType":"string","name":"credentialType","type":"string"}],"name":"getCredential","outputs":[{"components":[{"internalType":"address","name":"agent","type":"address"},{"internalType":"address","name":"issuer","type":"address"},{"internalType":"string","name":"credentialType","type":"string"},{"internalType":"string","name":"evidenceCid","type":"string"},{"internalType":"uint256","name":"issuedAt","type":"uint256"},{"internalType":"bool","name":"revoked","type":"bool"}],"internalType":"struct AgentRegistry.ValidationCredential","name":"","type":"tuple"}],"stateMutability":"view","type":"function"},{"inputs":[{"internalType":"address","name":"agent","type":"address"},{"internalType":"string","name":"credentialType","type":"string"}],"name":"hasCredential","outputs":[{"internalType":"bool","name":"","type":"bool"}],"stateMutability":"view","type":"function"},{"inputs":[{"internalType":"address","name":"","type":"address"}],"name":"identities","outputs":[{"internalType":"address","name":"agent","type":"address"},{"internalType":"address","name":"operator","type":"address"},{"internalType":"string","name":"did","type":"string"},{"internalType":"string","name":"name","type":"string"},{"internalType":"string","name":"metadataUri","type":"string"},{"internalType":"uint256","name":"registeredAt","type":"uint256"},{"internalType":"bool","name":"active","type":"bool"}],"stateMutability":"view","type":"function"},{"inputs":[{"internalType":"address","name":"agent","type":"address"},{"internalType":"string","name":"credentialType","type":"string"},{"internalType":"string","name":"evidenceCid","type":"string"}],"name":"issueCredential","outputs":[],"stateMutability":"nonpayable","type":"function"},{"inputs":[],"name":"owner","outputs":[{"internalType":"address","name":"","type":"address"}],"stateMutability":"view","type":"function"},{"inputs":[{"internalType":"address","name":"agent","type":"address"},{"internalType":"string","name":"reason","type":"string"}],"name":"recordTaskFailure","outputs":[],"stateMutability":"nonpayable","type":"function"},{"inputs":[{"internalType":"address","name":"agent","type":"address"},{"internalType":"string","name":"reason","type":"string"}],"name":"recordTaskSuccess","outputs":[],"stateMutability":"nonpayable","type":"function"},{"inputs":[{"internalType":"address","name":"agent","type":"address"},{"internalType":"string","name":"did","type":"string"},{"internalType":"string","name":"name","type":"string"},{"internalType":"string[]","name":"capabilities","type":"string[]"},{"internalType":"string","name":"metadataUri","type":"string"}],"name":"registerAgent","outputs":[],"stateMutability":"nonpayable","type":"function"},{"inputs":[{"internalType":"uint256","name":"","type":"uint256"}],"name":"registeredAgents","outputs":[{"internalType":"address","name":"","type":"address"}],"stateMutability":"view","type":"function"},{"inputs":[{"internalType":"address","name":"","type":"address"}],"name":"reputations","outputs":[{"internalType":"uint256","name":"score","type":"uint256"},{"internalType":"uint256","name":"tasksCompleted","type":"uint256"},{"internalType":"uint256","name":"tasksFailed","type":"uint256"},{"internalType":"uint256","name":"lastUpdated","type":"uint256"}],"stateMutability":"view","type":"function"},{"inputs":[{"internalType":"address","name":"agent","type":"address"},{"internalType":"string","name":"credentialType","type":"string"}],"name":"revokeCredential","outputs":[],"stateMutability":"nonpayable","type":"function"},{"inputs":[],"name":"totalAgents","outputs":[{"internalType":"uint256","name":"","type":"uint256"}],"stateMutability":"view","type":"function"}],"evm":{"bytecode":{"linkReferences":{},"object":"6080806040523461002857600080546001600160a01b03191633179055611b78908161002e8239f35b600080fdfe608080604052600436101561001357600080fd5b60003560e01c90816306fa15a71461174457508063299d0348146116a75780632f4b5ad31461156b57806341d08f7a14610cc05780638a1ec4dc14610aa15780638d8fc2f7146109ca5780638da5cb5b146109a15780639f4ed4fb146105b3578063a6050c59146104cb578063a7bd211c14610489578063b0a0a927146103bf578063b94f550c14610323578063c505371214610305578063d985444214610239578063ebeae587146101985763f653b81e146100cf57600080fd5b34610193576020366003190112610193576001600160a01b03806100f161179c565b1660005260016020526040600020908082541690600183015416916101186002820161185f565b6101826101276003840161185f565b6101746101366005860161185f565b9161016660ff600760068901549801541695604051998a998a5260208a015260e060408a015260e0890190611905565b908782036060890152611905565b908582036080870152611905565b9160a0840152151560c08301520390f35b600080fd5b34610193576020366003190112610193576101b161179c565b600060606040516101c181611823565b828152826020820152826040820152015260018060a01b03166000526002602052608060406000206040516101f581611823565b815491828252600181015460208301908152606060036002840154936040860194855201549301928352604051938452516020840152516040830152516060820152f35b346101935761026f61024a36611972565b919290610261604051938492602084019687611b1e565b03601f19810183528261183e565b5190206000526003602052602060406000206040519061028e826117ec565b80546001600160a01b03908116835260018201548116848401529060ff906005906102bb6002820161185f565b60408601526102cc6003820161185f565b6060860152600481015460808601520154161591821560a08201525116151590816102fd575b506040519015158152f35b9050826102f2565b34610193576000366003190112610193576020600454604051908152f35b34610193577f47b59d3599ed2ba34f6334425c05eff11ba50848c9b4c4a10d73ddcc9c8c8d0261035236611972565b92916103ba60018060a01b039261036e84600054163314611a97565b6040516020810190610386816102618a868987611b1e565b51902060005260036020526005604060002001600160ff198254161790556040519384936020855216956020840191611a76565b0390a2005b34610193576020366003190112610193576001600160a01b03806103e161179c565b16908160005260016020528060016040600020015416331490811561047b575b501561044757806000526001602052600760406000200160ff1981541690557fa58c733780f5c1527d6106ff1e731cbf2e9ffc0eb11ad399ca33ea55f057ddf4600080a2005b60405162461bcd60e51b815260206004820152600c60248201526b2737ba1037b832b930ba37b960a11b6044820152606490fd5b905060005416331482610401565b3461019357602036600319011261019357600435600454811015610193576104b26020916119b5565b905460405160039290921b1c6001600160a01b03168152f35b34610193576104d936611972565b60005490926001600160a01b03916104f49083163314611a97565b169182600052600160205261051360ff60076040600020015416611ad0565b82600052600260205260406000206001810161052f8154611b0f565b90558054600a810180911161059d577fc17e77081800e4bec45161da763d23d62f41146fb2629ee32a8fea0765743a12936103ba916103e890818111156105955750925b8381556003429101556040519384938452604060208501526040840191611a76565b905092610573565b634e487b7160e01b600052601160045260246000fd5b34610193576060366003190112610193576105cc61179c565b6024356001600160401b038111610193576105eb903690600401611945565b6044929192356001600160401b0381116101935761060d903690600401611945565b939060018060a01b0390818516600052600160205261063660ff60076040600020015416611ad0565b604051602081019061064e8161026188888b87611b1e565b519020956040519661065f886117ec565b8387168852610689602089019333855261067a368989611a02565b9360408b019485523691611a02565b6060890152426080890152600060a08901526000526003602052604060002091838851166001600160601b0360a01b9081855416178455846001850192511690825416179055518051906001600160401b0382116108d95781906106f060028501546117b2565b601f811161096c575b50602090601f83116001146108fa576000926108ef575b50508160011b916000199060031b1c19161760028201555b60608601519586516001600160401b0381116108d95761074b60038401546117b2565b601f8111610899575b506020601f82116001146107fe576107d393928260059360a0937f5e411fa350dbdf70682c0a3c1115999a6ef7a54143c1a6748b2a0d53da4717fd9a9b9c6000926107f3575b50508160011b916000199060031b1c19161760038501555b608081015160048501550151151591019060ff801983541691151516179055565b6107ee60405192839260208452339716956020840191611a76565b0390a3005b015190508c8061079a565b6003840160005260206000209860005b601f19841681106108815750926001837f5e411fa350dbdf70682c0a3c1115999a6ef7a54143c1a6748b2a0d53da4717fd999a9b60a0946107d39897600597601f19811610610868575b505050811b0160038501556107b2565b015160001960f88460031b161c191690558c8080610858565b828201518b556001909a01996020928301920161080e565b6108c990600385016000526020600020601f840160051c810191602085106108cf575b601f0160051c0190611a5f565b88610754565b90915081906108bc565b634e487b7160e01b600052604160045260246000fd5b015190508880610710565b9250600284016000526020600020906000935b601f1984168510610951576001945083601f19811610610938575b505050811b016002820155610728565b015160001960f88460031b161c19169055888080610928565b8181015183556020948501946001909301929091019061090d565b61099b90600286016000526020600020601f850160051c810191602086106108cf57601f0160051c0190611a5f565b896106f9565b34610193576000366003190112610193576000546040516001600160a01b039091168152602090f35b34610193576109d836611972565b60005490926001600160a01b03916109f39083163314611a97565b1691826000526002602052604060002060028101610a118154611b0f565b905580546014811015610a6957506103ba7fc17e77081800e4bec45161da763d23d62f41146fb2629ee32a8fea0765743a12936000928381556003429101556040519384938452604060208501526040840191611a76565b601319810190811161059d577fc17e77081800e4bec45161da763d23d62f41146fb2629ee32a8fea0765743a12936103ba9192610573565b3461019357602036600319011261019357610aba61179c565b60405190610ac782611807565b6000825260006020830152600060e060609384604082015284808201528460808201528460a08201528260c0820152015260018060a01b03809116600052600160205260406000209160405190610b1d82611807565b828454168252826001850154169260208301938452610b3e6002860161185f565b60408401908152610b516003870161185f565b9183850192835260048701968754610b6881611a48565b98610b766040519a8b61183e565b818a5260208a019060005260206000206000915b838310610ca3575050505091610bfb9160ff6007610c0e969560808a019b8c52610bb66005820161185f565b60a08b0152600681015460c08b0152015416151560e088015260405197602089528188511660208a015251166040880152516101008095880152610120870190611905565b9051858203601f19016080870152611905565b935193601f198482030160a0850152845180825260208201906020808260051b8501019701916000905b828210610c75578780888860e0610c5f8e60a0850151601f198783030160c0880152611905565b9260c08101518286015201511515908301520390f35b9091929397602080610c93600193601f198d82030186528851611905565b9a96019493919091019101610c38565b600160208192610cb28561185f565b815201920192019190610b8a565b346101935760a036600319011261019357610cd961179c565b6024356001600160401b03811161019357610cf8903690600401611945565b906044356001600160401b03811161019357610d18903690600401611945565b906001600160401b036064351161019357366023606435011215610193576001600160401b036064356004013511610193573660246064356004013560051b606435010111610193576001600160401b036084351161019357610d8036608435600401611945565b6001600160a01b0387811660009081526001602052604090205492939192166115265785156114f257610de39060405194610dba86611807565b6001600160a01b0389168652336020870152610dd7368989611a02565b60408701523691611a02565b6060840152610df760643560040135611a48565b610e04604051918261183e565b60643560048101358252602401602082015b60246064356004013560051b606435010182106114ab5750506080840152610e4091369190611a02565b60a08201524260c0820152600160e082015260018060a01b038416600052600160205260406000209060018060a01b038151166001600160601b0360a01b9081845416178355600183019060018060a01b036020840151169082541617905560408101518051906001600160401b0382116108d9578190610ec460028601546117b2565b601f8111611476575b50602090601f8311600114611404576000926113f9575b50508160011b916000199060031b1c19161760028301555b60608101518051906001600160401b0382116108d9578190610f2160038601546117b2565b601f81116113c4575b50602090601f831160011461135257600092611347575b50508160011b916000199060031b1c19161760038301555b6080810151805190600160401b82116108d95760048401548260048601558083106112cf575b5060200190600484016000526020600020916000905b8282106111ba575050505060a08101518051906001600160401b0382116108d957610fc360058501546117b2565b601f8111611185575b50602090601f831160011461110c57928260079360e0936110299796600092611101575b50508160011b916000199060031b1c19161760058501555b60c081015160068501550151151591019060ff801983541691151516179055565b60405161103581611823565b60648152600360208201600081526040830160008152606084019142835260018060a01b038816600052600260205260406000209451855551600185015551600284015551910155600454600160401b8110156108d9577fd73ee4827561fd4bd6453ab3bab25535b087fed01b153b3e5e7890b21c5057f7916110c18260016107ee94016004556119b5565b81549060031b9060018060a01b038816821b9160018060a01b03901b191617905560405191829160208352339660018060a01b0316956020840191611a76565b015190508a80610ff0565b906005850160005260206000209160005b601f198516811061116d57508360e093611029979693600193600797601f19811610611154575b505050811b016005850155611008565b015160001960f88460031b161c191690558a8080611144565b9192602060018192868501518155019401920161111d565b6111b490600586016000526020600020601f850160051c810191602086106108cf57601f0160051c0190611a5f565b87610fcc565b80518051906001600160401b0382116108d9576111d786546117b2565b601f811161129d575b50602090601f831160011461122d579282600194936020938695600092611222575b5050600019600383901b1c191690841b1787555b01940191019092610f95565b015190508e80611202565b908660005260206000209160005b601f1985168110611285575083602093600196938796938794601f1981161061126c575b505050811b018755611216565b015160001960f88460031b161c191690558e808061125f565b9192602060018192868501518155019401920161123b565b6112c990876000526020600020601f850160051c810191602086106108cf57601f0160051c0190611a5f565b8b6111e0565b600485016000526020600020908382015b81830181106112f0575050610f7f565b806112fd600192546117b2565b8061130a575b50016112e0565b601f811183146113205750600081555b8b611303565b60009082825261133e601f60208420920160051c8201858301611a5f565b8183555561131a565b015190508780610f41565b9250600385016000526020600020906000935b601f19841685106113a9576001945083601f19811610611390575b505050811b016003830155610f59565b015160001960f88460031b161c19169055878080611380565b81810151835560209485019460019093019290910190611365565b6113f390600387016000526020600020601f850160051c810191602086106108cf57601f0160051c0190611a5f565b88610f2a565b015190508780610ee4565b9250600285016000526020600020906000935b601f198416851061145b576001945083601f19811610611442575b505050811b016002830155610efc565b015160001960f88460031b161c19169055878080611432565b81810151835560209485019460019093019290910190611417565b6114a590600287016000526020600020601f850160051c810191602086106108cf57601f0160051c0190611a5f565b88610ecd565b81356001600160401b0381116101935736604382606435010112156101935760209182916114e790369060643501602481013590604401611a02565b815201910190610e16565b60405162461bcd60e51b815260206004820152600c60248201526b111251081c995c5d5a5c995960a21b6044820152606490fd5b60405162461bcd60e51b815260206004820152601860248201527f4167656e7420616c7265616479207265676973746572656400000000000000006044820152606490fd5b346101935761157936611972565b9160405191611587836117ec565b60008352600060a060209482868201526060604082015260608082015282608082015201526115bf6040519485928584019485611b1e565b03926115d3601f199485810183528261183e565b519020600052600381526040600020604051916115ef836117ec565b81546001600160a01b03908116845260018301548116828501908152909461169491906116836116216002870161185f565b60408801908152886116356003890161185f565b9460608a0195865260ff600560048b01549a60808d019b8c520154169760a08b0198151589526040519b8c9b828d525116908b0152511660408901525160c0606089015260e0880190611905565b915190868303016080870152611905565b915160a084015251151560c08301520390f35b34610193576020366003190112610193576004356000526003602052604060002060018060a01b038082541690600183015416916116e76002820161185f565b6117336116f66003840161185f565b61172560ff6005600487015496015416936040519788978852602088015260c0604088015260c0870190611905565b908582036060870152611905565b916080840152151560a08301520390f35b34610193576020366003190112610193576080906001600160a01b0361176861179c565b1660005260026020526040600020805490600181015460036002830154920154928452602084015260408301526060820152f35b600435906001600160a01b038216820361019357565b90600182811c921680156117e2575b60208310146117cc57565b634e487b7160e01b600052602260045260246000fd5b91607f16916117c1565b60c081019081106001600160401b038211176108d957604052565b61010081019081106001600160401b038211176108d957604052565b608081019081106001600160401b038211176108d957604052565b90601f801991011681019081106001600160401b038211176108d957604052565b9060405191826000825492611873846117b2565b9081845260019485811690816000146118e2575060011461189f575b505061189d9250038361183e565b565b9093915060005260209081600020936000915b8183106118ca57505061189d9350820101388061188f565b855488840185015294850194879450918301916118b2565b91505061189d94506020925060ff191682840152151560051b820101388061188f565b919082519283825260005b848110611931575050826000602080949584010152601f8019910116010190565b602081830181015184830182015201611910565b9181601f84011215610193578235916001600160401b038311610193576020838186019501011161019357565b906040600319830112610193576004356001600160a01b03811681036101935791602435906001600160401b038211610193576119b191600401611945565b9091565b6004548110156119ec5760046000527f8a35acfbc15ff81a39ae7d344fd709f28e8600b4aa8c65c6b64bfe7fe36bd19b0190600090565b634e487b7160e01b600052603260045260246000fd5b9291926001600160401b0382116108d95760405191611a2b601f8201601f19166020018461183e565b829481845281830111610193578281602093846000960137010152565b6001600160401b0381116108d95760051b60200190565b818110611a6a575050565b60008155600101611a5f565b908060209392818452848401376000828201840152601f01601f1916010190565b15611a9e57565b60405162461bcd60e51b815260206004820152600a60248201526927b7363c9037bbb732b960b11b6044820152606490fd5b15611ad757565b60405162461bcd60e51b815260206004820152601060248201526f4167656e74206e6f742061637469766560801b6044820152606490fd5b600019811461059d5760010190565b909280926014946001600160601b03199060601b168352848301370101600081529056fea2646970667358221220f44dfaa5a6fac2ba37aa8c94da8a483eaa4e664ba2e85b222cd45fd43f415a4864736f6c63430008140033","opcodes":"PUSH1 0x80 DUP1 PUSH1 0x40 MSTORE CALLVALUE PUSH2 0x28 JUMPI PUSH1 0x0 DUP1 SLOAD PUSH1 0x1 PUSH1 0x1 PUSH1 0xA0 SHL SUB NOT AND CALLER OR SWAP1 SSTORE PUSH2 0x1B78 SWAP1 DUP2 PUSH2 0x2E DUP3 CODECOPY RETURN JUMPDEST PUSH1 0x0 DUP1 REVERT INVALID PUSH1 0x80 DUP1 PUSH1 0x40 MSTORE PUSH1 0x4 CALLDATASIZE LT ISZERO PUSH2 0x13 JUMPI PUSH1 0x0 DUP1 REVERT JUMPDEST PUSH1 0x0 CALLDATALOAD PUSH1 0xE0 SHR SWAP1 DUP2 PUSH4 0x6FA15A7 EQ PUSH2 0x1744 JUMPI POP DUP1 PUSH4 0x299D0348 EQ PUSH2 0x16A7 JUMPI DUP1 PUSH4 0x2F4B5AD3 EQ PUSH2 0x156B JUMPI DUP1 PUSH4 0x41D08F7A EQ PUSH2 0xCC0 JUMPI DUP1 PUSH4 0x8A1EC4DC EQ PUSH2 0xAA1 JUMPI DUP1 PUSH4 0x8D8FC2F7 EQ PUSH2 0x9CA JUMPI DUP1 PUSH4 0x8DA5CB5B EQ PUSH2 0x9A1 JUMPI DUP1 PUSH4 0x9F4ED4FB EQ PUSH2 0x5B3 JUMPI DUP1 PUSH4 0xA6050C59 EQ PUSH2 0x4CB JUMPI DUP1 PUSH4 0xA7BD211C EQ PUSH2 0x489 JUMPI DUP1 PUSH4 0xB0A0A927 EQ PUSH2 0x3BF JUMPI DUP1 PUSH4 0xB94F550C EQ PUSH2 0x323 JUMPI DUP1 PUSH4 0xC5053712 EQ PUSH2 0x305 JUMPI DUP1 PUSH4 0xD9854442 EQ PUSH2 0x239 JUMPI DUP1 PUSH4 0xEBEAE587 EQ PUSH2 0x198 JUMPI PUSH4 0xF653B81E EQ PUSH2 0xCF JUMPI PUSH1 0x0 DUP1 REVERT JUMPDEST CALLVALUE PUSH2 0x193 JUMPI PUSH1 0x20 CALLDATASIZE PUSH1 0x3 NOT ADD SLT PUSH2 0x193 JUMPI PUSH1 0x1 PUSH1 0x1 PUSH1 0xA0 SHL SUB DUP1 PUSH2 0xF1 PUSH2 0x179C JUMP JUMPDEST AND PUSH1 0x0 MSTORE PUSH1 0x1 PUSH1 0x20 MSTORE PUSH1 0x40 PUSH1 0x0 KECCAK256 SWAP1 DUP1 DUP3 SLOAD AND SWAP1 PUSH1 0x1 DUP4 ADD SLOAD AND SWAP2 PUSH2 0x118 PUSH1 0x2 DUP3 ADD PUSH2 0x185F JUMP JUMPDEST PUSH2 0x182 PUSH2 0x127 PUSH1 0x3 DUP5 ADD PUSH2 0x185F JUMP JUMPDEST PUSH2 0x174 PUSH2 0x136 PUSH1 0x5 DUP7 ADD PUSH2 0x185F JUMP JUMPDEST SWAP2 PUSH2 0x166 PUSH1 0xFF PUSH1 0x7 PUSH1 0x6 DUP10 ADD SLOAD SWAP9 ADD SLOAD AND SWAP6 PUSH1 0x40 MLOAD SWAP10 DUP11 SWAP10 DUP11 MSTORE PUSH1 0x20 DUP11 ADD MSTORE PUSH1 0xE0 PUSH1 0x40 DUP11 ADD MSTORE PUSH1 0xE0 DUP10 ADD SWAP1 PUSH2 0x1905 JUMP JUMPDEST SWAP1 DUP8 DUP3 SUB PUSH1 0x60 DUP10 ADD MSTORE PUSH2 0x1905 JUMP JUMPDEST SWAP1 DUP6 DUP3 SUB PUSH1 0x80 DUP8 ADD MSTORE PUSH2 0x1905 JUMP JUMPDEST SWAP2 PUSH1 0xA0 DUP5 ADD MSTORE ISZERO ISZERO PUSH1 0xC0 DUP4 ADD MSTORE SUB SWAP1 RETURN JUMPDEST PUSH1 0x0 DUP1 REVERT JUMPDEST CALLVALUE PUSH2 0x193 JUMPI PUSH1 0x20 CALLDATASIZE PUSH1 0x3 NOT ADD SLT PUSH2 0x193 JUMPI PUSH2 0x1B1 PUSH2 0x179C JUMP JUMPDEST PUSH1 0x0 PUSH1 0x60 PUSH1 0x40 MLOAD PUSH2 0x1C1 DUP2 PUSH2 0x1823 JUMP JUMPDEST DUP3 DUP2 MSTORE DUP3 PUSH1 0x20 DUP3 ADD MSTORE DUP3 PUSH1 0x40 DUP3 ADD MSTORE ADD MSTORE PUSH1 0x1 DUP1 PUSH1 0xA0 SHL SUB AND PUSH1 0x0 MSTORE PUSH1 0x2 PUSH1 0x20 MSTORE PUSH1 0x80 PUSH1 0x40 PUSH1 0x0 KECCAK256 PUSH1 0x40 MLOAD PUSH2 0x1F5 DUP2 PUSH2 0x1823 JUMP JUMPDEST DUP2 SLOAD SWAP2 DUP3 DUP3 MSTORE PUSH1 0x1 DUP2 ADD SLOAD PUSH1 0x20 DUP4 ADD SWAP1 DUP2 MSTORE PUSH1 0x60 PUSH1 0x3 PUSH1 0x2 DUP5 ADD SLOAD SWAP4 PUSH1 0x40 DUP7 ADD SWAP5 DUP6 MSTORE ADD SLOAD SWAP4 ADD SWAP3 DUP4 MSTORE PUSH1 0x40 MLOAD SWAP4 DUP5 MSTORE MLOAD PUSH1 0x20 DUP5 ADD MSTORE MLOAD PUSH1 0x40 DUP4 ADD MSTORE MLOAD PUSH1 0x60 DUP3 ADD MSTORE RETURN JUMPDEST CALLVALUE PUSH2 0x193 JUMPI PUSH2 0x26F PUSH2 0x24A CALLDATASIZE PUSH2 0x1972 JUMP JUMPDEST SWAP2 SWAP3 SWAP1 PUSH2 0x261 PUSH1 0x40 MLOAD SWAP4 DUP5 SWAP3 PUSH1 0x20 DUP5 ADD SWAP7 DUP8 PUSH2 0x1B1E JUMP JUMPDEST SUB PUSH1 0x1F NOT DUP2 ADD DUP4 MSTORE DUP3 PUSH2 0x183E JUMP JUMPDEST MLOAD SWAP1 KECCAK256 PUSH1 0x0 MSTORE PUSH1 0x3 PUSH1 0x20 MSTORE PUSH1 0x20 PUSH1 0x40 PUSH1 0x0 KECCAK256 PUSH1 0x40 MLOAD SWAP1 PUSH2 0x28E DUP3 PUSH2 0x17EC JUMP JUMPDEST DUP1 SLOAD PUSH1 0x1 PUSH1 0x1 PUSH1 0xA0 SHL SUB SWAP1 DUP2 AND DUP4 MSTORE PUSH1 0x1 DUP3 ADD SLOAD DUP2 AND DUP5 DUP5 ADD MSTORE SWAP1 PUSH1 0xFF SWAP1 PUSH1 0x5 SWAP1 PUSH2 0x2BB PUSH1 0x2 DUP3 ADD PUSH2 0x185F JUMP JUMPDEST PUSH1 0x40 DUP7 ADD MSTORE PUSH2 0x2CC PUSH1 0x3 DUP3 ADD PUSH2 0x185F JUMP JUMPDEST PUSH1 0x60 DUP7 ADD MSTORE PUSH1 0x4 DUP2 ADD SLOAD PUSH1 0x80 DUP7 ADD MSTORE ADD SLOAD AND ISZERO SWAP2 DUP3 ISZERO PUSH1 0xA0 DUP3 ADD MSTORE MLOAD AND ISZERO ISZERO SWAP1 DUP2 PUSH2 0x2FD JUMPI JUMPDEST POP PUSH1 0x40 MLOAD SWAP1 ISZERO ISZERO DUP2 MSTORE RETURN JUMPDEST SWAP1 POP DUP3 PUSH2 0x2F2 JUMP JUMPDEST CALLVALUE PUSH2 0x193 JUMPI PUSH1 0x0 CALLDATASIZE PUSH1 0x3 NOT ADD SLT PUSH2 0x193 JUMPI PUSH1 0x20 PUSH1 0x4 SLOAD PUSH1 0x40 MLOAD SWAP1 DUP2 MSTORE RETURN JUMPDEST CALLVALUE PUSH2 0x193 JUMPI PUSH32 0x47B59D3599ED2BA34F6334425C05EFF11BA50848C9B4C4A10D73DDCC9C8C8D02 PUSH2 0x352 CALLDATASIZE PUSH2 0x1972 JUMP JUMPDEST SWAP3 SWAP2 PUSH2 0x3BA PUSH1 0x1 DUP1 PUSH1 0xA0 SHL SUB SWAP3 PUSH2 0x36E DUP5 PUSH1 0x0 SLOAD AND CALLER EQ PUSH2 0x1A97 JUMP JUMPDEST PUSH1 0x40 MLOAD PUSH1 0x20 DUP2 ADD SWAP1 PUSH2 0x386 DUP2 PUSH2 0x261 DUP11 DUP7 DUP10 DUP8 PUSH2 0x1B1E JUMP JUMPDEST MLOAD SWAP1 KECCAK256 PUSH1 0x0 MSTORE PUSH1 0x3 PUSH1 0x20 MSTORE PUSH1 0x5 PUSH1 0x40 PUSH1 0x0 KECCAK256 ADD PUSH1 0x1 PUSH1 0xFF NOT DUP3 SLOAD AND OR SWAP1 SSTORE PUSH1 0x40 MLOAD SWAP4 DUP5 SWAP4 PUSH1 0x20 DUP6 MSTORE AND SWAP6 PUSH1 0x20 DUP5 ADD SWAP2 PUSH2 0x1A76 JUMP JUMPDEST SUB SWAP1 LOG2 STOP JUMPDEST CALLVALUE PUSH2 0x193 JUMPI PUSH1 0x20 CALLDATASIZE PUSH1 0x3 NOT ADD SLT PUSH2 0x193 JUMPI PUSH1 0x1 PUSH1 0x1 PUSH1 0xA0 SHL SUB DUP1 PUSH2 0x3E1 PUSH2 0x179C JUMP JUMPDEST AND SWAP1 DUP2 PUSH1 0x0 MSTORE PUSH1 0x1 PUSH1 0x20 MSTORE DUP1 PUSH1 0x1 PUSH1 0x40 PUSH1 0x0 KECCAK256 ADD SLOAD AND CALLER EQ SWAP1 DUP2 ISZERO PUSH2 0x47B JUMPI JUMPDEST POP ISZERO PUSH2 0x447 JUMPI DUP1 PUSH1 0x0 MSTORE PUSH1 0x1 PUSH1 0x20 MSTORE PUSH1 0x7 PUSH1 0x40 PUSH1 0x0 KECCAK256 ADD PUSH1 0xFF NOT DUP2 SLOAD AND SWAP1 SSTORE PUSH32 0xA58C733780F5C1527D6106FF1E731CBF2E9FFC0EB11AD399CA33EA55F057DDF4 PUSH1 0x0 DUP1 LOG2 STOP JUMPDEST PUSH1 0x40 MLOAD PUSH3 0x461BCD PUSH1 0xE5 SHL DUP2 MSTORE PUSH1 0x20 PUSH1 0x4 DUP3 ADD MSTORE PUSH1 0xC PUSH1 0x24 DUP3 ADD MSTORE PUSH12 0x2737BA1037B832B930BA37B9 PUSH1 0xA1 SHL PUSH1 0x44 DUP3 ADD MSTORE PUSH1 0x64 SWAP1 REVERT JUMPDEST SWAP1 POP PUSH1 0x0 SLOAD AND CALLER EQ DUP3 PUSH2 0x401 JUMP JUMPDEST CALLVALUE PUSH2 0x193 JUMPI PUSH1 0x20 CALLDATASIZE PUSH1 0x3 NOT ADD SLT PUSH2 0x193 JUMPI PUSH1 0x4 CALLDATALOAD PUSH1 0x4 SLOAD DUP2 LT ISZERO PUSH2 0x193 JUMPI PUSH2 0x4B2 PUSH1 0x20 SWAP2 PUSH2 0x19B5 JUMP JUMPDEST SWAP1 SLOAD PUSH1 0x40 MLOAD PUSH1 0x3 SWAP3 SWAP1 SWAP3 SHL SHR PUSH1 0x1 PUSH1 0x1 PUSH1 0xA0 SHL SUB AND DUP2 MSTORE RETURN JUMPDEST CALLVALUE PUSH2 0x193 JUMPI PUSH2 0x4D9 CALLDATASIZE PUSH2 0x1972 JUMP JUMPDEST PUSH1 0x0 SLOAD SWAP1 SWAP3 PUSH1 0x1 PUSH1 0x1 PUSH1 0xA0 SHL SUB SWAP2 PUSH2 0x4F4 SWAP1 DUP4 AND CALLER EQ PUSH2 0x1A97 JUMP JUMPDEST AND SWAP2 DUP3 PUSH1 0x0 MSTORE PUSH1 0x1 PUSH1 0x20 MSTORE PUSH2 0x513 PUSH1 0xFF PUSH1 0x7 PUSH1 0x40 PUSH1 0x0 KECCAK256 ADD SLOAD AND PUSH2 0x1AD0 JUMP JUMPDEST DUP3 PUSH1 0x0 MSTORE PUSH1 0x2 PUSH1 0x20 MSTORE PUSH1 0x40 PUSH1 0x0 KECCAK256 PUSH1 0x1 DUP2 ADD PUSH2 0x52F DUP2 SLOAD PUSH2 0x1B0F JUMP JUMPDEST SWAP1 SSTORE DUP1 SLOAD PUSH1 0xA DUP2 ADD DUP1 SWAP2 GT PUSH2 0x59D JUMPI PUSH32 0xC17E77081800E4BEC45161DA763D23D62F41146FB2629EE32A8FEA0765743A12 SWAP4 PUSH2 0x3BA SWAP2 PUSH2 0x3E8 SWAP1 DUP2 DUP2 GT ISZERO PUSH2 0x595 JUMPI POP SWAP3 JUMPDEST DUP4 DUP2 SSTORE PUSH1 0x3 TIMESTAMP SWAP2 ADD SSTORE PUSH1 0x40 MLOAD SWAP4 DUP5 SWAP4 DUP5 MSTORE PUSH1 0x40 PUSH1 0x20 DUP6 ADD MSTORE PUSH1 0x40 DUP5 ADD SWAP2 PUSH2 0x1A76 JUMP JUMPDEST SWAP1 POP SWAP3 PUSH2 0x573 JUMP JUMPDEST PUSH4 0x4E487B71 PUSH1 0xE0 SHL PUSH1 0x0 MSTORE PUSH1 0x11 PUSH1 0x4 MSTORE PUSH1 0x24 PUSH1 0x0 REVERT JUMPDEST CALLVALUE PUSH2 0x193 JUMPI PUSH1 0x60 CALLDATASIZE PUSH1 0x3 NOT ADD SLT PUSH2 0x193 JUMPI PUSH2 0x5CC PUSH2 0x179C JUMP JUMPDEST PUSH1 0x24 CALLDATALOAD PUSH1 0x1 PUSH1 0x1 PUSH1 0x40 SHL SUB DUP2 GT PUSH2 0x193 JUMPI PUSH2 0x5EB SWAP1 CALLDATASIZE SWAP1 PUSH1 0x4 ADD PUSH2 0x1945 JUMP JUMPDEST PUSH1 0x44 SWAP3 SWAP2 SWAP3 CALLDATALOAD PUSH1 0x1 PUSH1 0x1 PUSH1 0x40 SHL SUB DUP2 GT PUSH2 0x193 JUMPI PUSH2 0x60D SWAP1 CALLDATASIZE SWAP1 PUSH1 0x4 ADD PUSH2 0x1945 JUMP JUMPDEST SWAP4 SWAP1 PUSH1 0x1 DUP1 PUSH1 0xA0 SHL SUB SWAP1 DUP2 DUP6 AND PUSH1 0x0 MSTORE PUSH1 0x1 PUSH1 0x20 MSTORE PUSH2 0x636 PUSH1 0xFF PUSH1 0x7 PUSH1 0x40 PUSH1 0x0 KECCAK256 ADD SLOAD AND PUSH2 0x1AD0 JUMP JUMPDEST PUSH1 0x40 MLOAD PUSH1 0x20 DUP2 ADD SWAP1 PUSH2 0x64E DUP2 PUSH2 0x261 DUP9 DUP9 DUP12 DUP8 PUSH2 0x1B1E JUMP JUMPDEST MLOAD SWAP1 KECCAK256 SWAP6 PUSH1 0x40 MLOAD SWAP7 PUSH2 0x65F DUP9 PUSH2 0x17EC JUMP JUMPDEST DUP4 DUP8 AND DUP9 MSTORE PUSH2 0x689 PUSH1 0x20 DUP10 ADD SWAP4 CALLER DUP6 MSTORE PUSH2 0x67A CALLDATASIZE DUP10 DUP10 PUSH2 0x1A02 JUMP JUMPDEST SWAP4 PUSH1 0x40 DUP12 ADD SWAP5 DUP6 MSTORE CALLDATASIZE SWAP2 PUSH2 0x1A02 JUMP JUMPDEST PUSH1 0x60 DUP10 ADD MSTORE TIMESTAMP PUSH1 0x80 DUP10 ADD MSTORE PUSH1 0x0 PUSH1 0xA0 DUP10 ADD MSTORE PUSH1 0x0 MSTORE PUSH1 0x3 PUSH1 0x20 MSTORE PUSH1 0x40 PUSH1 0x0 KECCAK256 SWAP2 DUP4 DUP9 MLOAD AND PUSH1 0x1 PUSH1 0x1 PUSH1 0x60 SHL SUB PUSH1 0xA0 SHL SWAP1 DUP2 DUP6 SLOAD AND OR DUP5 SSTORE DUP5 PUSH1 0x1 DUP6 ADD SWAP3 MLOAD AND SWAP1 DUP3 SLOAD AND OR SWAP1 SSTORE MLOAD DUP1 MLOAD SWAP1 PUSH1 0x1 PUSH1 0x1 PUSH1 0x40 SHL SUB DUP3 GT PUSH2 0x8D9 JUMPI DUP2 SWAP1 PUSH2 0x6F0 PUSH1 0x2 DUP6 ADD SLOAD PUSH2 0x17B2 JUMP JUMPDEST PUSH1 0x1F DUP2 GT PUSH2 0x96C JUMPI JUMPDEST POP PUSH1 0x20 SWAP1 PUSH1 0x1F DUP4 GT PUSH1 0x1 EQ PUSH2 0x8FA JUMPI PUSH1 0x0 SWAP3 PUSH2 0x8EF JUMPI JUMPDEST POP POP DUP2 PUSH1 0x1 SHL SWAP2 PUSH1 0x0 NOT SWAP1 PUSH1 0x3 SHL SHR NOT AND OR PUSH1 0x2 DUP3 ADD SSTORE JUMPDEST PUSH1 0x60 DUP7 ADD MLOAD SWAP6 DUP7 MLOAD PUSH1 0x1 PUSH1 0x1 PUSH1 0x40 SHL SUB DUP2 GT PUSH2 0x8D9 JUMPI PUSH2 0x74B PUSH1 0x3 DUP5 ADD SLOAD PUSH2 0x17B2 JUMP JUMPDEST PUSH1 0x1F DUP2 GT PUSH2 0x899 JUMPI JUMPDEST POP PUSH1 0x20 PUSH1 0x1F DUP3 GT PUSH1 0x1 EQ PUSH2 0x7FE JUMPI PUSH2 0x7D3 SWAP4 SWAP3 DUP3 PUSH1 0x5 SWAP4 PUSH1 0xA0 SWAP4 PUSH32 0x5E411FA350DBDF70682C0A3C1115999A6EF7A54143C1A6748B2A0D53DA4717FD SWAP11 SWAP12 SWAP13 PUSH1 0x0 SWAP3 PUSH2 0x7F3 JUMPI JUMPDEST POP POP DUP2 PUSH1 0x1 SHL SWAP2 PUSH1 0x0 NOT SWAP1 PUSH1 0x3 SHL SHR NOT AND OR PUSH1 0x3 DUP6 ADD SSTORE JUMPDEST PUSH1 0x80 DUP2 ADD MLOAD PUSH1 0x4 DUP6 ADD SSTORE ADD MLOAD ISZERO ISZERO SWAP2 ADD SWAP1 PUSH1 0xFF DUP1 NOT DUP4 SLOAD AND SWAP2 ISZERO ISZERO AND OR SWAP1 SSTORE JUMP JUMPDEST PUSH2 0x7EE PUSH1 0x40 MLOAD SWAP3 DUP4 SWAP3 PUSH1 0x20 DUP5 MSTORE CALLER SWAP8 AND SWAP6 PUSH1 0x20 DUP5 ADD SWAP2 PUSH2 0x1A76 JUMP JUMPDEST SUB SWAP1 LOG3 STOP JUMPDEST ADD MLOAD SWAP1 POP DUP13 DUP1 PUSH2 0x79A JUMP JUMPDEST PUSH1 0x3 DUP5 ADD PUSH1 0x0 MSTORE PUSH1 0x20 PUSH1 0x0 KECCAK256 SWAP9 PUSH1 0x0 JUMPDEST PUSH1 0x1F NOT DUP5 AND DUP2 LT PUSH2 0x881 JUMPI POP SWAP3 PUSH1 0x1 DUP4 PUSH32 0x5E411FA350DBDF70682C0A3C1115999A6EF7A54143C1A6748B2A0D53DA4717FD SWAP10 SWAP11 SWAP12 PUSH1 0xA0 SWAP5 PUSH2 0x7D3 SWAP9 SWAP8 PUSH1 0x5 SWAP8 PUSH1 0x1F NOT DUP2 AND LT PUSH2 0x868 JUMPI JUMPDEST POP POP POP DUP2 SHL ADD PUSH1 0x3 DUP6 ADD SSTORE PUSH2 0x7B2 JUMP JUMPDEST ADD MLOAD PUSH1 0x0 NOT PUSH1 0xF8 DUP5 PUSH1 0x3 SHL AND SHR NOT AND SWAP1 SSTORE DUP13 DUP1 DUP1 PUSH2 0x858 JUMP JUMPDEST DUP3 DUP3 ADD MLOAD DUP12 SSTORE PUSH1 0x1 SWAP1 SWAP11 ADD SWAP10 PUSH1 0x20 SWAP3 DUP4 ADD SWAP3 ADD PUSH2 0x80E JUMP JUMPDEST PUSH2 0x8C9 SWAP1 PUSH1 0x3 DUP6 ADD PUSH1 0x0 MSTORE PUSH1 0x20 PUSH1 0x0 KECCAK256 PUSH1 0x1F DUP5 ADD PUSH1 0x5 SHR DUP2 ADD SWAP2 PUSH1 0x20 DUP6 LT PUSH2 0x8CF JUMPI JUMPDEST PUSH1 0x1F ADD PUSH1 0x5 SHR ADD SWAP1 PUSH2 0x1A5F JUMP JUMPDEST DUP9 PUSH2 0x754 JUMP JUMPDEST SWAP1 SWAP2 POP DUP2 SWAP1 PUSH2 0x8BC JUMP JUMPDEST PUSH4 0x4E487B71 PUSH1 0xE0 SHL PUSH1 0x0 MSTORE PUSH1 0x41 PUSH1 0x4 MSTORE PUSH1 0x24 PUSH1 0x0 REVERT JUMPDEST ADD MLOAD SWAP1 POP DUP9 DUP1 PUSH2 0x710 JUMP JUMPDEST SWAP3 POP PUSH1 0x2 DUP5 ADD PUSH1 0x0 MSTORE PUSH1 0x20 PUSH1 0x0 KECCAK256 SWAP1 PUSH1 0x0 SWAP4 JUMPDEST PUSH1 0x1F NOT DUP5 AND DUP6 LT PUSH2 0x951 JUMPI PUSH1 0x1 SWAP5 POP DUP4 PUSH1 0x1F NOT DUP2 AND LT PUSH2 0x938 JUMPI JUMPDEST POP POP POP DUP2 SHL ADD PUSH1 0x2 DUP3 ADD SSTORE PUSH2 0x728 JUMP JUMPDEST ADD MLOAD PUSH1 0x0 NOT PUSH1 0xF8 DUP5 PUSH1 0x3 SHL AND SHR NOT AND SWAP1 SSTORE DUP9 DUP1 DUP1 PUSH2 0x928 JUMP JUMPDEST DUP2 DUP2 ADD MLOAD DUP4 SSTORE PUSH1 0x20 SWAP5 DUP6 ADD SWAP5 PUSH1 0x1 SWAP1 SWAP4 ADD SWAP3 SWAP1 SWAP2 ADD SWAP1 PUSH2 0x90D JUMP JUMPDEST PUSH2 0x99B SWAP1 PUSH1 0x2 DUP7 ADD PUSH1 0x0 MSTORE PUSH1 0x20 PUSH1 0x0 KECCAK256 PUSH1 0x1F DUP6 ADD PUSH1 0x5 SHR DUP2 ADD SWAP2 PUSH1 0x20 DUP7 LT PUSH2 0x8CF JUMPI PUSH1 0x1F ADD PUSH1 0x5 SHR ADD SWAP1 PUSH2 0x1A5F JUMP JUMPDEST DUP10 PUSH2 0x6F9 JUMP JUMPDEST CALLVALUE PUSH2 0x193 JUMPI PUSH1 0x0 CALLDATASIZE PUSH1 0x3 NOT ADD SLT PUSH2 0x193 JUMPI PUSH1 0x0 SLOAD PUSH1 0x40 MLOAD PUSH1 0x1 PUSH1 0x1 PUSH1 0xA0 SHL SUB SWAP1 SWAP2 AND DUP2 MSTORE PUSH1 0x20 SWAP1 RETURN JUMPDEST CALLVALUE PUSH2 0x193 JUMPI PUSH2 0x9D8 CALLDATASIZE PUSH2 0x1972 JUMP JUMPDEST PUSH1 0x0 SLOAD SWAP1 SWAP3 PUSH1 0x1 PUSH1 0x1 PUSH1 0xA0 SHL SUB SWAP2 PUSH2 0x9F3 SWAP1 DUP4 AND CALLER EQ PUSH2 0x1A97 JUMP JUMPDEST AND SWAP2 DUP3 PUSH1 0x0 MSTORE PUSH1 0x2 PUSH1 0x20 MSTORE PUSH1 0x40 PUSH1 0x0 KECCAK256 PUSH1 0x2 DUP2 ADD PUSH2 0xA11 DUP2 SLOAD PUSH2 0x1B0F JUMP JUMPDEST SWAP1 SSTORE DUP1 SLOAD PUSH1 0x14 DUP2 LT ISZERO PUSH2 0xA69 JUMPI POP PUSH2 0x3BA PUSH32 0xC17E77081800E4BEC45161DA763D23D62F41146FB2629EE32A8FEA0765743A12 SWAP4 PUSH1 0x0 SWAP3 DUP4 DUP2 SSTORE PUSH1 0x3 TIMESTAMP SWAP2 ADD SSTORE PUSH1 0x40 MLOAD SWAP4 DUP5 SWAP4 DUP5 MSTORE PUSH1 0x40 PUSH1 0x20 DUP6 ADD MSTORE PUSH1 0x40 DUP5 ADD SWAP2 PUSH2 0x1A76 JUMP JUMPDEST PUSH1 0x13 NOT DUP2 ADD SWAP1 DUP2 GT PUSH2 0x59D JUMPI PUSH32 0xC17E77081800E4BEC45161DA763D23D62F41146FB2629EE32A8FEA0765743A12 SWAP4 PUSH2 0x3BA SWAP2 SWAP3 PUSH2 0x573 JUMP JUMPDEST CALLVALUE PUSH2 0x193 JUMPI PUSH1 0x20 CALLDATASIZE PUSH1 0x3 NOT ADD SLT PUSH2 0x193 JUMPI PUSH2 0xABA PUSH2 0x179C JUMP JUMPDEST PUSH1 0x40 MLOAD SWAP1 PUSH2 0xAC7 DUP3 PUSH2 0x1807 JUMP JUMPDEST PUSH1 0x0 DUP3 MSTORE PUSH1 0x0 PUSH1 0x20 DUP4 ADD MSTORE PUSH1 0x0 PUSH1 0xE0 PUSH1 0x60 SWAP4 DUP5 PUSH1 0x40 DUP3 ADD MSTORE DUP5 DUP1 DUP3 ADD MSTORE DUP5 PUSH1 0x80 DUP3 ADD MSTORE DUP5 PUSH1 0xA0 DUP3 ADD MSTORE DUP3 PUSH1 0xC0 DUP3 ADD MSTORE ADD MSTORE PUSH1 0x1 DUP1 PUSH1 0xA0 SHL SUB DUP1 SWAP2 AND PUSH1 0x0 MSTORE PUSH1 0x1 PUSH1 0x20 MSTORE PUSH1 0x40 PUSH1 0x0 KECCAK256 SWAP2 PUSH1 0x40 MLOAD SWAP1 PUSH2 0xB1D DUP3 PUSH2 0x1807 JUMP JUMPDEST DUP3 DUP5 SLOAD AND DUP3 MSTORE DUP3 PUSH1 0x1 DUP6 ADD SLOAD AND SWAP3 PUSH1 0x20 DUP4 ADD SWAP4 DUP5 MSTORE PUSH2 0xB3E PUSH1 0x2 DUP7 ADD PUSH2 0x185F JUMP JUMPDEST PUSH1 0x40 DUP5 ADD SWAP1 DUP2 MSTORE PUSH2 0xB51 PUSH1 0x3 DUP8 ADD PUSH2 0x185F JUMP JUMPDEST SWAP2 DUP4 DUP6 ADD SWAP3 DUP4 MSTORE PUSH1 0x4 DUP8 ADD SWAP7 DUP8 SLOAD PUSH2 0xB68 DUP2 PUSH2 0x1A48 JUMP JUMPDEST SWAP9 PUSH2 0xB76 PUSH1 0x40 MLOAD SWAP11 DUP12 PUSH2 0x183E JUMP JUMPDEST DUP2 DUP11 MSTORE PUSH1 0x20 DUP11 ADD SWAP1 PUSH1 0x0 MSTORE PUSH1 0x20 PUSH1 0x0 KECCAK256 PUSH1 0x0 SWAP2 JUMPDEST DUP4 DUP4 LT PUSH2 0xCA3 JUMPI POP POP POP POP SWAP2 PUSH2 0xBFB SWAP2 PUSH1 0xFF PUSH1 0x7 PUSH2 0xC0E SWAP7 SWAP6 PUSH1 0x80 DUP11 ADD SWAP12 DUP13 MSTORE PUSH2 0xBB6 PUSH1 0x5 DUP3 ADD PUSH2 0x185F JUMP JUMPDEST PUSH1 0xA0 DUP12 ADD MSTORE PUSH1 0x6 DUP2 ADD SLOAD PUSH1 0xC0 DUP12 ADD MSTORE ADD SLOAD AND ISZERO ISZERO PUSH1 0xE0 DUP9 ADD MSTORE PUSH1 0x40 MLOAD SWAP8 PUSH1 0x20 DUP10 MSTORE DUP2 DUP9 MLOAD AND PUSH1 0x20 DUP11 ADD MSTORE MLOAD AND PUSH1 0x40 DUP9 ADD MSTORE MLOAD PUSH2 0x100 DUP1 SWAP6 DUP9 ADD MSTORE PUSH2 0x120 DUP8 ADD SWAP1 PUSH2 0x1905 JUMP JUMPDEST SWAP1 MLOAD DUP6 DUP3 SUB PUSH1 0x1F NOT ADD PUSH1 0x80 DUP8 ADD MSTORE PUSH2 0x1905 JUMP JUMPDEST SWAP4 MLOAD SWAP4 PUSH1 0x1F NOT DUP5 DUP3 SUB ADD PUSH1 0xA0 DUP6 ADD MSTORE DUP5 MLOAD DUP1 DUP3 MSTORE PUSH1 0x20 DUP3 ADD SWAP1 PUSH1 0x20 DUP1 DUP3 PUSH1 0x5 SHL DUP6 ADD ADD SWAP8 ADD SWAP2 PUSH1 0x0 SWAP1 JUMPDEST DUP3 DUP3 LT PUSH2 0xC75 JUMPI DUP8 DUP1 DUP9 DUP9 PUSH1 0xE0 PUSH2 0xC5F DUP15 PUSH1 0xA0 DUP6 ADD MLOAD PUSH1 0x1F NOT DUP8 DUP4 SUB ADD PUSH1 0xC0 DUP9 ADD MSTORE PUSH2 0x1905 JUMP JUMPDEST SWAP3 PUSH1 0xC0 DUP2 ADD MLOAD DUP3 DUP7 ADD MSTORE ADD MLOAD ISZERO ISZERO SWAP1 DUP4 ADD MSTORE SUB SWAP1 RETURN JUMPDEST SWAP1 SWAP2 SWAP3 SWAP4 SWAP8 PUSH1 0x20 DUP1 PUSH2 0xC93 PUSH1 0x1 SWAP4 PUSH1 0x1F NOT DUP14 DUP3 SUB ADD DUP7 MSTORE DUP9 MLOAD PUSH2 0x1905 JUMP JUMPDEST SWAP11 SWAP7 ADD SWAP5 SWAP4 SWAP2 SWAP1 SWAP2 ADD SWAP2 ADD PUSH2 0xC38 JUMP JUMPDEST PUSH1 0x1 PUSH1 0x20 DUP2 SWAP3 PUSH2 0xCB2 DUP6 PUSH2 0x185F JUMP JUMPDEST DUP2 MSTORE ADD SWAP3 ADD SWAP3 ADD SWAP2 SWAP1 PUSH2 0xB8A JUMP JUMPDEST CALLVALUE PUSH2 0x193 JUMPI PUSH1 0xA0 CALLDATASIZE PUSH1 0x3 NOT ADD SLT PUSH2 0x193 JUMPI PUSH2 0xCD9 PUSH2 0x179C JUMP JUMPDEST PUSH1 0x24 CALLDATALOAD PUSH1 0x1 PUSH1 0x1 PUSH1 0x40 SHL SUB DUP2 GT PUSH2 0x193 JUMPI PUSH2 0xCF8 SWAP1 CALLDATASIZE SWAP1 PUSH1 0x4 ADD PUSH2 0x1945 JUMP JUMPDEST SWAP1 PUSH1 0x44 CALLDATALOAD PUSH1 0x1 PUSH1 0x1 PUSH1 0x40 SHL SUB DUP2 GT PUSH2 0x193 JUMPI PUSH2 0xD18 SWAP1 CALLDATASIZE SWAP1 PUSH1 0x4 ADD PUSH2 0x1945 JUMP JUMPDEST SWAP1 PUSH1 0x1 PUSH1 0x1 PUSH1 0x40 SHL SUB PUSH1 0x64 CALLDATALOAD GT PUSH2 0x193 JUMPI CALLDATASIZE PUSH1 0x23 PUSH1 0x64 CALLDATALOAD ADD SLT ISZERO PUSH2 0x193 JUMPI PUSH1 0x1 PUSH1 0x1 PUSH1 0x40 SHL SUB PUSH1 0x64 CALLDATALOAD PUSH1 0x4 ADD CALLDATALOAD GT PUSH2 0x193 JUMPI CALLDATASIZE PUSH1 0x24 PUSH1 0x64 CALLDATALOAD PUSH1 0x4 ADD CALLDATALOAD PUSH1 0x5 SHL PUSH1 0x64 CALLDATALOAD ADD ADD GT PUSH2 0x193 JUMPI PUSH1 0x1 PUSH1 0x1 PUSH1 0x40 SHL SUB PUSH1 0x84 CALLDATALOAD GT PUSH2 0x193 JUMPI PUSH2 0xD80 CALLDATASIZE PUSH1 0x84 CALLDATALOAD PUSH1 0x4 ADD PUSH2 0x1945 JUMP JUMPDEST PUSH1 0x1 PUSH1 0x1 PUSH1 0xA0 SHL SUB DUP8 DUP2 AND PUSH1 0x0 SWAP1 DUP2 MSTORE PUSH1 0x1 PUSH1 0x20 MSTORE PUSH1 0x40 SWAP1 KECCAK256 SLOAD SWAP3 SWAP4 SWAP2 SWAP3 AND PUSH2 0x1526 JUMPI DUP6 ISZERO PUSH2 0x14F2 JUMPI PUSH2 0xDE3 SWAP1 PUSH1 0x40 MLOAD SWAP5 PUSH2 0xDBA DUP7 PUSH2 0x1807 JUMP JUMPDEST PUSH1 0x1 PUSH1 0x1 PUSH1 0xA0 SHL SUB DUP10 AND DUP7 MSTORE CALLER PUSH1 0x20 DUP8 ADD MSTORE PUSH2 0xDD7 CALLDATASIZE DUP10 DUP10 PUSH2 0x1A02 JUMP JUMPDEST PUSH1 0x40 DUP8 ADD MSTORE CALLDATASIZE SWAP2 PUSH2 0x1A02 JUMP JUMPDEST PUSH1 0x60 DUP5 ADD MSTORE PUSH2 0xDF7 PUSH1 0x64 CALLDATALOAD PUSH1 0x4 ADD CALLDATALOAD PUSH2 0x1A48 JUMP JUMPDEST PUSH2 0xE04 PUSH1 0x40 MLOAD SWAP2 DUP3 PUSH2 0x183E JUMP JUMPDEST PUSH1 0x64 CALLDATALOAD PUSH1 0x4 DUP2 ADD CALLDATALOAD DUP3 MSTORE PUSH1 0x24 ADD PUSH1 0x20 DUP3 ADD JUMPDEST PUSH1 0x24 PUSH1 0x64 CALLDATALOAD PUSH1 0x4 ADD CALLDATALOAD PUSH1 0x5 SHL PUSH1 0x64 CALLDATALOAD ADD ADD DUP3 LT PUSH2 0x14AB JUMPI POP POP PUSH1 0x80 DUP5 ADD MSTORE PUSH2 0xE40 SWAP2 CALLDATASIZE SWAP2 SWAP1 PUSH2 0x1A02 JUMP JUMPDEST PUSH1 0xA0 DUP3 ADD MSTORE TIMESTAMP PUSH1 0xC0 DUP3 ADD MSTORE PUSH1 0x1 PUSH1 0xE0 DUP3 ADD MSTORE PUSH1 0x1 DUP1 PUSH1 0xA0 SHL SUB DUP5 AND PUSH1 0x0 MSTORE PUSH1 0x1 PUSH1 0x20 MSTORE PUSH1 0x40 PUSH1 0x0 KECCAK256 SWAP1 PUSH1 0x1 DUP1 PUSH1 0xA0 SHL SUB DUP2 MLOAD AND PUSH1 0x1 PUSH1 0x1 PUSH1 0x60 SHL SUB PUSH1 0xA0 SHL SWAP1 DUP2 DUP5 SLOAD AND OR DUP4 SSTORE PUSH1 0x1 DUP4 ADD SWAP1 PUSH1 0x1 DUP1 PUSH1 0xA0 SHL SUB PUSH1 0x20 DUP5 ADD MLOAD AND SWAP1 DUP3 SLOAD AND OR SWAP1 SSTORE PUSH1 0x40 DUP2 ADD MLOAD DUP1 MLOAD SWAP1 PUSH1 0x1 PUSH1 0x1 PUSH1 0x40 SHL SUB DUP3 GT PUSH2 0x8D9 JUMPI DUP2 SWAP1 PUSH2 0xEC4 PUSH1 0x2 DUP7 ADD SLOAD PUSH2 0x17B2 JUMP JUMPDEST PUSH1 0x1F DUP2 GT PUSH2 0x1476 JUMPI JUMPDEST POP PUSH1 0x20 SWAP1 PUSH1 0x1F DUP4 GT PUSH1 0x1 EQ PUSH2 0x1404 JUMPI PUSH1 0x0 SWAP3 PUSH2 0x13F9 JUMPI JUMPDEST POP POP DUP2 PUSH1 0x1 SHL SWAP2 PUSH1 0x0 NOT SWAP1 PUSH1 0x3 SHL SHR NOT AND OR PUSH1 0x2 DUP4 ADD SSTORE JUMPDEST PUSH1 0x60 DUP2 ADD MLOAD DUP1 MLOAD SWAP1 PUSH1 0x1 PUSH1 0x1 PUSH1 0x40 SHL SUB DUP3 GT PUSH2 0x8D9 JUMPI DUP2 SWAP1 PUSH2 0xF21 PUSH1 0x3 DUP7 ADD SLOAD PUSH2 0x17B2 JUMP JUMPDEST PUSH1 0x1F DUP2 GT PUSH2 0x13C4 JUMPI JUMPDEST POP PUSH1 0x20 SWAP1 PUSH1 0x1F DUP4 GT PUSH1 0x1 EQ PUSH2 0x1352 JUMPI PUSH1 0x0 SWAP3 PUSH2 0x1347 JUMPI JUMPDEST POP POP DUP2 PUSH1 0x1 SHL SWAP2 PUSH1 0x0 NOT SWAP1 PUSH1 0x3 SHL SHR NOT AND OR PUSH1 0x3 DUP4 ADD SSTORE JUMPDEST PUSH1 0x80 DUP2 ADD MLOAD DUP1 MLOAD SWAP1 PUSH1 0x1 PUSH1 0x40 SHL DUP3 GT PUSH2 0x8D9 JUMPI PUSH1 0x4 DUP5 ADD SLOAD DUP3 PUSH1 0x4 DUP7 ADD SSTORE DUP1 DUP4 LT PUSH2 0x12CF JUMPI JUMPDEST POP PUSH1 0x20 ADD SWAP1 PUSH1 0x4 DUP5 ADD PUSH1 0x0 MSTORE PUSH1 0x20 PUSH1 0x0 KECCAK256 SWAP2 PUSH1 0x0 SWAP1 JUMPDEST DUP3 DUP3 LT PUSH2 0x11BA JUMPI POP POP POP POP PUSH1 0xA0 DUP2 ADD MLOAD DUP1 MLOAD SWAP1 PUSH1 0x1 PUSH1 0x1 PUSH1 0x40 SHL SUB DUP3 GT PUSH2 0x8D9 JUMPI PUSH2 0xFC3 PUSH1 0x5 DUP6 ADD SLOAD PUSH2 0x17B2 JUMP JUMPDEST PUSH1 0x1F DUP2 GT PUSH2 0x1185 JUMPI JUMPDEST POP PUSH1 0x20 SWAP1 PUSH1 0x1F DUP4 GT PUSH1 0x1 EQ PUSH2 0x110C JUMPI SWAP3 DUP3 PUSH1 0x7 SWAP4 PUSH1 0xE0 SWAP4 PUSH2 0x1029 SWAP8 SWAP7 PUSH1 0x0 SWAP3 PUSH2 0x1101 JUMPI JUMPDEST POP POP DUP2 PUSH1 0x1 SHL SWAP2 PUSH1 0x0 NOT SWAP1 PUSH1 0x3 SHL SHR NOT AND OR PUSH1 0x5 DUP6 ADD SSTORE JUMPDEST PUSH1 0xC0 DUP2 ADD MLOAD PUSH1 0x6 DUP6 ADD SSTORE ADD MLOAD ISZERO ISZERO SWAP2 ADD SWAP1 PUSH1 0xFF DUP1 NOT DUP4 SLOAD AND SWAP2 ISZERO ISZERO AND OR SWAP1 SSTORE JUMP JUMPDEST PUSH1 0x40 MLOAD PUSH2 0x1035 DUP2 PUSH2 0x1823 JUMP JUMPDEST PUSH1 0x64 DUP2 MSTORE PUSH1 0x3 PUSH1 0x20 DUP3 ADD PUSH1 0x0 DUP2 MSTORE PUSH1 0x40 DUP4 ADD PUSH1 0x0 DUP2 MSTORE PUSH1 0x60 DUP5 ADD SWAP2 TIMESTAMP DUP4 MSTORE PUSH1 0x1 DUP1 PUSH1 0xA0 SHL SUB DUP9 AND PUSH1 0x0 MSTORE PUSH1 0x2 PUSH1 0x20 MSTORE PUSH1 0x40 PUSH1 0x0 KECCAK256 SWAP5 MLOAD DUP6 SSTORE MLOAD PUSH1 0x1 DUP6 ADD SSTORE MLOAD PUSH1 0x2 DUP5 ADD SSTORE MLOAD SWAP2 ADD SSTORE PUSH1 0x4 SLOAD PUSH1 0x1 PUSH1 0x40 SHL DUP2 LT ISZERO PUSH2 0x8D9 JUMPI PUSH32 0xD73EE4827561FD4BD6453AB3BAB25535B087FED01B153B3E5E7890B21C5057F7 SWAP2 PUSH2 0x10C1 DUP3 PUSH1 0x1 PUSH2 0x7EE SWAP5 ADD PUSH1 0x4 SSTORE PUSH2 0x19B5 JUMP JUMPDEST DUP2 SLOAD SWAP1 PUSH1 0x3 SHL SWAP1 PUSH1 0x1 DUP1 PUSH1 0xA0 SHL SUB DUP9 AND DUP3 SHL SWAP2 PUSH1 0x1 DUP1 PUSH1 0xA0 SHL SUB SWAP1 SHL NOT AND OR SWAP1 SSTORE PUSH1 0x40 MLOAD SWAP2 DUP3 SWAP2 PUSH1 0x20 DUP4 MSTORE CALLER SWAP7 PUSH1 0x1 DUP1 PUSH1 0xA0 SHL SUB AND SWAP6 PUSH1 0x20 DUP5 ADD SWAP2 PUSH2 0x1A76 JUMP JUMPDEST ADD MLOAD SWAP1 POP DUP11 DUP1 PUSH2 0xFF0 JUMP JUMPDEST SWAP1 PUSH1 0x5 DUP6 ADD PUSH1 0x0 MSTORE PUSH1 0x20 PUSH1 0x0 KECCAK256 SWAP2 PUSH1 0x0 JUMPDEST PUSH1 0x1F NOT DUP6 AND DUP2 LT PUSH2 0x116D JUMPI POP DUP4 PUSH1 0xE0 SWAP4 PUSH2 0x1029 SWAP8 SWAP7 SWAP4 PUSH1 0x1 SWAP4 PUSH1 0x7 SWAP8 PUSH1 0x1F NOT DUP2 AND LT PUSH2 0x1154 JUMPI JUMPDEST POP POP POP DUP2 SHL ADD PUSH1 0x5 DUP6 ADD SSTORE PUSH2 0x1008 JUMP JUMPDEST ADD MLOAD PUSH1 0x0 NOT PUSH1 0xF8 DUP5 PUSH1 0x3 SHL AND SHR NOT AND SWAP1 SSTORE DUP11 DUP1 DUP1 PUSH2 0x1144 JUMP JUMPDEST SWAP2 SWAP3 PUSH1 0x20 PUSH1 0x1 DUP2 SWAP3 DUP7 DUP6 ADD MLOAD DUP2 SSTORE ADD SWAP5 ADD SWAP3 ADD PUSH2 0x111D JUMP JUMPDEST PUSH2 0x11B4 SWAP1 PUSH1 0x5 DUP7 ADD PUSH1 0x0 MSTORE PUSH1 0x20 PUSH1 0x0 KECCAK256 PUSH1 0x1F DUP6 ADD PUSH1 0x5 SHR DUP2 ADD SWAP2 PUSH1 0x20 DUP7 LT PUSH2 0x8CF JUMPI PUSH1 0x1F ADD PUSH1 0x5 SHR ADD SWAP1 PUSH2 0x1A5F JUMP JUMPDEST DUP8 PUSH2 0xFCC JUMP JUMPDEST DUP1 MLOAD DUP1 MLOAD SWAP1 PUSH1 0x1 PUSH1 0x1 PUSH1 0x40 SHL SUB DUP3 GT PUSH2 0x8D9 JUMPI PUSH2 0x11D7 DUP7 SLOAD PUSH2 0x17B2 JUMP JUMPDEST PUSH1 0x1F DUP2 GT PUSH2 0x129D JUMPI JUMPDEST POP PUSH1 0x20 SWAP1 PUSH1 0x1F DUP4 GT PUSH1 0x1 EQ PUSH2 0x122D JUMPI SWAP3 DUP3 PUSH1 0x1 SWAP5 SWAP4 PUSH1 0x20 SWAP4 DUP7 SWAP6 PUSH1 0x0 SWAP3 PUSH2 0x1222 JUMPI JUMPDEST POP POP PUSH1 0x0 NOT PUSH1 0x3 DUP4 SWAP1 SHL SHR NOT AND SWAP1 DUP5 SHL OR DUP8 SSTORE JUMPDEST ADD SWAP5 ADD SWAP2 ADD SWAP1 SWAP3 PUSH2 0xF95 JUMP JUMPDEST ADD MLOAD SWAP1 POP DUP15 DUP1 PUSH2 0x1202 JUMP JUMPDEST SWAP1 DUP7 PUSH1 0x0 MSTORE PUSH1 0x20 PUSH1 0x0 KECCAK256 SWAP2 PUSH1 0x0 JUMPDEST PUSH1 0x1F NOT DUP6 AND DUP2 LT PUSH2 0x1285 JUMPI POP DUP4 PUSH1 0x20 SWAP4 PUSH1 0x1 SWAP7 SWAP4 DUP8 SWAP7 SWAP4 DUP8 SWAP5 PUSH1 0x1F NOT DUP2 AND LT PUSH2 0x126C JUMPI JUMPDEST POP POP POP DUP2 SHL ADD DUP8 SSTORE PUSH2 0x1216 JUMP JUMPDEST ADD MLOAD PUSH1 0x0 NOT PUSH1 0xF8 DUP5 PUSH1 0x3 SHL AND SHR NOT AND SWAP1 SSTORE DUP15 DUP1 DUP1 PUSH2 0x125F JUMP JUMPDEST SWAP2 SWAP3 PUSH1 0x20 PUSH1 0x1 DUP2 SWAP3 DUP7 DUP6 ADD MLOAD DUP2 SSTORE ADD SWAP5 ADD SWAP3 ADD PUSH2 0x123B JUMP JUMPDEST PUSH2 0x12C9 SWAP1 DUP8 PUSH1 0x0 MSTORE PUSH1 0x20 PUSH1 0x0 KECCAK256 PUSH1 0x1F DUP6 ADD PUSH1 0x5 SHR DUP2 ADD SWAP2 PUSH1 0x20 DUP7 LT PUSH2 0x8CF JUMPI PUSH1 0x1F ADD PUSH1 0x5 SHR ADD SWAP1 PUSH2 0x1A5F JUMP JUMPDEST DUP12 PUSH2 0x11E0 JUMP JUMPDEST PUSH1 0x4 DUP6 ADD PUSH1 0x0 MSTORE PUSH1 0x20 PUSH1 0x0 KECCAK256 SWAP1 DUP4 DUP3 ADD JUMPDEST DUP2 DUP4 ADD DUP2 LT PUSH2 0x12F0 JUMPI POP POP PUSH2 0xF7F JUMP JUMPDEST DUP1 PUSH2 0x12FD PUSH1 0x1 SWAP3 SLOAD PUSH2 0x17B2 JUMP JUMPDEST DUP1 PUSH2 0x130A JUMPI JUMPDEST POP ADD PUSH2 0x12E0 JUMP JUMPDEST PUSH1 0x1F DUP2 GT DUP4 EQ PUSH2 0x1320 JUMPI POP PUSH1 0x0 DUP2 SSTORE JUMPDEST DUP12 PUSH2 0x1303 JUMP JUMPDEST PUSH1 0x0 SWAP1 DUP3 DUP3 MSTORE PUSH2 0x133E PUSH1 0x1F PUSH1 0x20 DUP5 KECCAK256 SWAP3 ADD PUSH1 0x5 SHR DUP3 ADD DUP6 DUP4 ADD PUSH2 0x1A5F JUMP JUMPDEST DUP2 DUP4 SSTORE SSTORE PUSH2 0x131A JUMP JUMPDEST ADD MLOAD SWAP1 POP DUP8 DUP1 PUSH2 0xF41 JUMP JUMPDEST SWAP3 POP PUSH1 0x3 DUP6 ADD PUSH1 0x0 MSTORE PUSH1 0x20 PUSH1 0x0 KECCAK256 SWAP1 PUSH1 0x0 SWAP4 JUMPDEST PUSH1 0x1F NOT DUP5 AND DUP6 LT PUSH2 0x13A9 JUMPI PUSH1 0x1 SWAP5 POP DUP4 PUSH1 0x1F NOT DUP2 AND LT PUSH2 0x1390 JUMPI JUMPDEST POP POP POP DUP2 SHL ADD PUSH1 0x3 DUP4 ADD SSTORE PUSH2 0xF59 JUMP JUMPDEST ADD MLOAD PUSH1 0x0 NOT PUSH1 0xF8 DUP5 PUSH1 0x3 SHL AND SHR NOT AND SWAP1 SSTORE DUP8 DUP1 DUP1 PUSH2 0x1380 JUMP JUMPDEST DUP2 DUP2 ADD MLOAD DUP4 SSTORE PUSH1 0x20 SWAP5 DUP6 ADD SWAP5 PUSH1 0x1 SWAP1 SWAP4 ADD SWAP3 SWAP1 SWAP2 ADD SWAP1 PUSH2 0x1365 JUMP JUMPDEST PUSH2 0x13F3 SWAP1 PUSH1 0x3 DUP8 ADD PUSH1 0x0 MSTORE PUSH1 0x20 PUSH1 0x0 KECCAK256 PUSH1 0x1F DUP6 ADD PUSH1 0x5 SHR DUP2 ADD SWAP2 PUSH1 0x20 DUP7 LT PUSH2 0x8CF JUMPI PUSH1 0x1F ADD PUSH1 0x5 SHR ADD SWAP1 PUSH2 0x1A5F JUMP JUMPDEST DUP9 PUSH2 0xF2A JUMP JUMPDEST ADD MLOAD SWAP1 POP DUP8 DUP1 PUSH2 0xEE4 JUMP JUMPDEST SWAP3 POP PUSH1 0x2 DUP6 ADD PUSH1 0x0 MSTORE PUSH1 0x20 PUSH1 0x0 KECCAK256 SWAP1 PUSH1 0x0 SWAP4 JUMPDEST PUSH1 0x1F NOT DUP5 AND DUP6 LT PUSH2 0x145B JUMPI PUSH1 0x1 SWAP5 POP DUP4 PUSH1 0x1F NOT DUP2 AND LT PUSH2 0x1442 JUMPI JUMPDEST POP POP POP DUP2 SHL ADD PUSH1 0x2 DUP4 ADD SSTORE PUSH2 0xEFC JUMP JUMPDEST ADD MLOAD PUSH1 0x0 NOT PUSH1 0xF8 DUP5 PUSH1 0x3 SHL AND SHR NOT AND SWAP1 SSTORE DUP8 DUP1 DUP1 PUSH2 0x1432 JUMP JUMPDEST DUP2 DUP2 ADD MLOAD DUP4 SSTORE PUSH1 0x20 SWAP5 DUP6 ADD SWAP5 PUSH1 0x1 SWAP1 SWAP4 ADD SWAP3 SWAP1 SWAP2 ADD SWAP1 PUSH2 0x1417 JUMP JUMPDEST PUSH2 0x14A5 SWAP1 PUSH1 0x2 DUP8 ADD PUSH1 0x0 MSTORE PUSH1 0x20 PUSH1 0x0 KECCAK256 PUSH1 0x1F DUP6 ADD PUSH1 0x5 SHR DUP2 ADD SWAP2 PUSH1 0x20 DUP7 LT PUSH2 0x8CF JUMPI PUSH1 0x1F ADD PUSH1 0x5 SHR ADD SWAP1 PUSH2 0x1A5F JUMP JUMPDEST DUP9 PUSH2 0xECD JUMP JUMPDEST DUP2 CALLDATALOAD PUSH1 0x1 PUSH1 0x1 PUSH1 0x40 SHL SUB DUP2 GT PUSH2 0x193 JUMPI CALLDATASIZE PUSH1 0x43 DUP3 PUSH1 0x64 CALLDATALOAD ADD ADD SLT ISZERO PUSH2 0x193 JUMPI PUSH1 0x20 SWAP2 DUP3 SWAP2 PUSH2 0x14E7 SWAP1 CALLDATASIZE SWAP1 PUSH1 0x64 CALLDATALOAD ADD PUSH1 0x24 DUP2 ADD CALLDATALOAD SWAP1 PUSH1 0x44 ADD PUSH2 0x1A02 JUMP JUMPDEST DUP2 MSTORE ADD SWAP2 ADD SWAP1 PUSH2 0xE16 JUMP JUMPDEST PUSH1 0x40 MLOAD PUSH3 0x461BCD PUSH1 0xE5 SHL DUP2 MSTORE PUSH1 0x20 PUSH1 0x4 DUP3 ADD MSTORE PUSH1 0xC PUSH1 0x24 DUP3 ADD MSTORE PUSH12 0x111251081C995C5D5A5C9959 PUSH1 0xA2 SHL PUSH1 0x44 DUP3 ADD MSTORE PUSH1 0x64 SWAP1 REVERT JUMPDEST PUSH1 0x40 MLOAD PUSH3 0x461BCD PUSH1 0xE5 SHL DUP2 MSTORE PUSH1 0x20 PUSH1 0x4 DUP3 ADD MSTORE PUSH1 0x18 PUSH1 0x24 DUP3 ADD MSTORE PUSH32 0x4167656E7420616C726561647920726567697374657265640000000000000000 PUSH1 0x44 DUP3 ADD MSTORE PUSH1 0x64 SWAP1 REVERT JUMPDEST CALLVALUE PUSH2 0x193 JUMPI PUSH2 0x1579 CALLDATASIZE PUSH2 0x1972 JUMP JUMPDEST SWAP2 PUSH1 0x40 MLOAD SWAP2 PUSH2 0x1587 DUP4 PUSH2 0x17EC JUMP JUMPDEST PUSH1 0x0 DUP4 MSTORE PUSH1 0x0 PUSH1 0xA0 PUSH1 0x20 SWAP5 DUP3 DUP7 DUP3 ADD MSTORE PUSH1 0x60 PUSH1 0x40 DUP3 ADD MSTORE PUSH1 0x60 DUP1 DUP3 ADD MSTORE DUP3 PUSH1 0x80 DUP3 ADD MSTORE ADD MSTORE PUSH2 0x15BF PUSH1 0x40 MLOAD SWAP5 DUP6 SWAP3 DUP6 DUP5 ADD SWAP5 DUP6 PUSH2 0x1B1E JUMP JUMPDEST SUB SWAP3 PUSH2 0x15D3 PUSH1 0x1F NOT SWAP5 DUP6 DUP2 ADD DUP4 MSTORE DUP3 PUSH2 0x183E JUMP JUMPDEST MLOAD SWAP1 KECCAK256 PUSH1 0x0 MSTORE PUSH1 0x3 DUP2 MSTORE PUSH1 0x40 PUSH1 0x0 KECCAK256 PUSH1 0x40 MLOAD SWAP2 PUSH2 0x15EF DUP4 PUSH2 0x17EC JUMP JUMPDEST DUP2 SLOAD PUSH1 0x1 PUSH1 0x1 PUSH1 0xA0 SHL SUB SWAP1 DUP2 AND DUP5 MSTORE PUSH1 0x1 DUP4 ADD SLOAD DUP2 AND DUP3 DUP6 ADD SWAP1 DUP2 MSTORE SWAP1 SWAP5 PUSH2 0x1694 SWAP2 SWAP1 PUSH2 0x1683 PUSH2 0x1621 PUSH1 0x2 DUP8 ADD PUSH2 0x185F JUMP JUMPDEST PUSH1 0x40 DUP9 ADD SWAP1 DUP2 MSTORE DUP9 PUSH2 0x1635 PUSH1 0x3 DUP10 ADD PUSH2 0x185F JUMP JUMPDEST SWAP5 PUSH1 0x60 DUP11 ADD SWAP6 DUP7 MSTORE PUSH1 0xFF PUSH1 0x5 PUSH1 0x4 DUP12 ADD SLOAD SWAP11 PUSH1 0x80 DUP14 ADD SWAP12 DUP13 MSTORE ADD SLOAD AND SWAP8 PUSH1 0xA0 DUP12 ADD SWAP9 ISZERO ISZERO DUP10 MSTORE PUSH1 0x40 MLOAD SWAP12 DUP13 SWAP12 DUP3 DUP14 MSTORE MLOAD AND SWAP1 DUP12 ADD MSTORE MLOAD AND PUSH1 0x40 DUP10 ADD MSTORE MLOAD PUSH1 0xC0 PUSH1 0x60 DUP10 ADD MSTORE PUSH1 0xE0 DUP9 ADD SWAP1 PUSH2 0x1905 JUMP JUMPDEST SWAP2 MLOAD SWAP1 DUP7 DUP4 SUB ADD PUSH1 0x80 DUP8 ADD MSTORE PUSH2 0x1905 JUMP JUMPDEST SWAP2 MLOAD PUSH1 0xA0 DUP5 ADD MSTORE MLOAD ISZERO ISZERO PUSH1 0xC0 DUP4 ADD MSTORE SUB SWAP1 RETURN JUMPDEST CALLVALUE PUSH2 0x193 JUMPI PUSH1 0x20 CALLDATASIZE PUSH1 0x3 NOT ADD SLT PUSH2 0x193 JUMPI PUSH1 0x4 CALLDATALOAD PUSH1 0x0 MSTORE PUSH1 0x3 PUSH1 0x20 MSTORE PUSH1 0x40 PUSH1 0x0 KECCAK256 PUSH1 0x1 DUP1 PUSH1 0xA0 SHL SUB DUP1 DUP3 SLOAD AND SWAP1 PUSH1 0x1 DUP4 ADD SLOAD AND SWAP2 PUSH2 0x16E7 PUSH1 0x2 DUP3 ADD PUSH2 0x185F JUMP JUMPDEST PUSH2 0x1733 PUSH2 0x16F6 PUSH1 0x3 DUP5 ADD PUSH2 0x185F JUMP JUMPDEST PUSH2 0x1725 PUSH1 0xFF PUSH1 0x5 PUSH1 0x4 DUP8 ADD SLOAD SWAP7 ADD SLOAD AND SWAP4 PUSH1 0x40 MLOAD SWAP8 DUP9 SWAP8 DUP9 MSTORE PUSH1 0x20 DUP9 ADD MSTORE PUSH1 0xC0 PUSH1 0x40 DUP9 ADD MSTORE PUSH1 0xC0 DUP8 ADD SWAP1 PUSH2 0x1905 JUMP JUMPDEST SWAP1 DUP6 DUP3 SUB PUSH1 0x60 DUP8 ADD MSTORE PUSH2 0x1905 JUMP JUMPDEST SWAP2 PUSH1 0x80 DUP5 ADD MSTORE ISZERO ISZERO PUSH1 0xA0 DUP4 ADD MSTORE SUB SWAP1 RETURN JUMPDEST CALLVALUE PUSH2 0x193 JUMPI PUSH1 0x20 CALLDATASIZE PUSH1 0x3 NOT ADD SLT PUSH2 0x193 JUMPI PUSH1 0x80 SWAP1 PUSH1 0x1 PUSH1 0x1 PUSH1 0xA0 SHL SUB PUSH2 0x1768 PUSH2 0x179C JUMP JUMPDEST AND PUSH1 0x0 MSTORE PUSH1 0x2 PUSH1 0x20 MSTORE PUSH1 0x40 PUSH1 0x0 KECCAK256 DUP1 SLOAD SWAP1 PUSH1 0x1 DUP2 ADD SLOAD PUSH1 0x3 PUSH1 0x2 DUP4 ADD SLOAD SWAP3 ADD SLOAD SWAP3 DUP5 MSTORE PUSH1 0x20 DUP5 ADD MSTORE PUSH1 0x40 DUP4 ADD MSTORE PUSH1 0x60 DUP3 ADD MSTORE RETURN JUMPDEST PUSH1 0x4 CALLDATALOAD SWAP1 PUSH1 0x1 PUSH1 0x1 PUSH1 0xA0 SHL SUB DUP3 AND DUP3 SUB PUSH2 0x193 JUMPI JUMP JUMPDEST SWAP1 PUSH1 0x1 DUP3 DUP2 SHR SWAP3 AND DUP1 ISZERO PUSH2 0x17E2 JUMPI JUMPDEST PUSH1 0x20 DUP4 LT EQ PUSH2 0x17CC JUMPI JUMP JUMPDEST PUSH4 0x4E487B71 PUSH1 0xE0 SHL PUSH1 0x0 MSTORE PUSH1 0x22 PUSH1 0x4 MSTORE PUSH1 0x24 PUSH1 0x0 REVERT JUMPDEST SWAP2 PUSH1 0x7F AND SWAP2 PUSH2 0x17C1 JUMP JUMPDEST PUSH1 0xC0 DUP2 ADD SWAP1 DUP2 LT PUSH1 0x1 PUSH1 0x1 PUSH1 0x40 SHL SUB DUP3 GT OR PUSH2 0x8D9 JUMPI PUSH1 0x40 MSTORE JUMP JUMPDEST PUSH2 0x100 DUP2 ADD SWAP1 DUP2 LT PUSH1 0x1 PUSH1 0x1 PUSH1 0x40 SHL SUB DUP3 GT OR PUSH2 0x8D9 JUMPI PUSH1 0x40 MSTORE JUMP JUMPDEST PUSH1 0x80 DUP2 ADD SWAP1 DUP2 LT PUSH1 0x1 PUSH1 0x1 PUSH1 0x40 SHL SUB DUP3 GT OR PUSH2 0x8D9 JUMPI PUSH1 0x40 MSTORE JUMP JUMPDEST SWAP1 PUSH1 0x1F DUP1 NOT SWAP2 ADD AND DUP2 ADD SWAP1 DUP2 LT PUSH1 0x1 PUSH1 0x1 PUSH1 0x40 SHL SUB DUP3 GT OR PUSH2 0x8D9 JUMPI PUSH1 0x40 MSTORE JUMP JUMPDEST SWAP1 PUSH1 0x40 MLOAD SWAP2 DUP3 PUSH1 0x0 DUP3 SLOAD SWAP3 PUSH2 0x1873 DUP5 PUSH2 0x17B2 JUMP JUMPDEST SWAP1 DUP2 DUP5 MSTORE PUSH1 0x1 SWAP5 DUP6 DUP2 AND SWAP1 DUP2 PUSH1 0x0 EQ PUSH2 0x18E2 JUMPI POP PUSH1 0x1 EQ PUSH2 0x189F JUMPI JUMPDEST POP POP PUSH2 0x189D SWAP3 POP SUB DUP4 PUSH2 0x183E JUMP JUMPDEST JUMP JUMPDEST SWAP1 SWAP4 SWAP2 POP PUSH1 0x0 MSTORE PUSH1 0x20 SWAP1 DUP2 PUSH1 0x0 KECCAK256 SWAP4 PUSH1 0x0 SWAP2 JUMPDEST DUP2 DUP4 LT PUSH2 0x18CA JUMPI POP POP PUSH2 0x189D SWAP4 POP DUP3 ADD ADD CODESIZE DUP1 PUSH2 0x188F JUMP JUMPDEST DUP6 SLOAD DUP9 DUP5 ADD DUP6 ADD MSTORE SWAP5 DUP6 ADD SWAP5 DUP8 SWAP5 POP SWAP2 DUP4 ADD SWAP2 PUSH2 0x18B2 JUMP JUMPDEST SWAP2 POP POP PUSH2 0x189D SWAP5 POP PUSH1 0x20 SWAP3 POP PUSH1 0xFF NOT AND DUP3 DUP5 ADD MSTORE ISZERO ISZERO PUSH1 0x5 SHL DUP3 ADD ADD CODESIZE DUP1 PUSH2 0x188F JUMP JUMPDEST SWAP2 SWAP1 DUP3 MLOAD SWAP3 DUP4 DUP3 MSTORE PUSH1 0x0 JUMPDEST DUP5 DUP2 LT PUSH2 0x1931 JUMPI POP POP DUP3 PUSH1 0x0 PUSH1 0x20 DUP1 SWAP5 SWAP6 DUP5 ADD ADD MSTORE PUSH1 0x1F DUP1 NOT SWAP2 ADD AND ADD ADD SWAP1 JUMP JUMPDEST PUSH1 0x20 DUP2 DUP4 ADD DUP2 ADD MLOAD DUP5 DUP4 ADD DUP3 ADD MSTORE ADD PUSH2 0x1910 JUMP JUMPDEST SWAP2 DUP2 PUSH1 0x1F DUP5 ADD SLT ISZERO PUSH2 0x193 JUMPI DUP3 CALLDATALOAD SWAP2 PUSH1 0x1 PUSH1 0x1 PUSH1 0x40 SHL SUB DUP4 GT PUSH2 0x193 JUMPI PUSH1 0x20 DUP4 DUP2 DUP7 ADD SWAP6 ADD ADD GT PUSH2 0x193 JUMPI JUMP JUMPDEST SWAP1 PUSH1 0x40 PUSH1 0x3 NOT DUP4 ADD SLT PUSH2 0x193 JUMPI PUSH1 0x4 CALLDATALOAD PUSH1 0x1 PUSH1 0x1 PUSH1 0xA0 SHL SUB DUP2 AND DUP2 SUB PUSH2 0x193 JUMPI SWAP2 PUSH1 0x24 CALLDATALOAD SWAP1 PUSH1 0x1 PUSH1 0x1 PUSH1 0x40 SHL SUB DUP3 GT PUSH2 0x193 JUMPI PUSH2 0x19B1 SWAP2 PUSH1 0x4 ADD PUSH2 0x1945 JUMP JUMPDEST SWAP1 SWAP2 JUMP JUMPDEST PUSH1 0x4 SLOAD DUP2 LT ISZERO PUSH2 0x19EC JUMPI PUSH1 0x4 PUSH1 0x0 MSTORE PUSH32 0x8A35ACFBC15FF81A39AE7D344FD709F28E8600B4AA8C65C6B64BFE7FE36BD19B ADD SWAP1 PUSH1 0x0 SWAP1 JUMP JUMPDEST PUSH4 0x4E487B71 PUSH1 0xE0 SHL PUSH1 0x0 MSTORE PUSH1 0x32 PUSH1 0x4 MSTORE PUSH1 0x24 PUSH1 0x0 REVERT JUMPDEST SWAP3 SWAP2 SWAP3 PUSH1 0x1 PUSH1 0x1 PUSH1 0x40 SHL SUB DUP3 GT PUSH2 0x8D9 JUMPI PUSH1 0x40 MLOAD SWAP2 PUSH2 0x1A2B PUSH1 0x1F DUP3 ADD PUSH1 0x1F NOT AND PUSH1 0x20 ADD DUP5 PUSH2 0x183E JUMP JUMPDEST DUP3 SWAP5 DUP2 DUP5 MSTORE DUP2 DUP4 ADD GT PUSH2 0x193 JUMPI DUP3 DUP2 PUSH1 0x20 SWAP4 DUP5 PUSH1 0x0 SWAP7 ADD CALLDATACOPY ADD ADD MSTORE JUMP JUMPDEST PUSH1 0x1 PUSH1 0x1 PUSH1 0x40 SHL SUB DUP2 GT PUSH2 0x8D9 JUMPI PUSH1 0x5 SHL PUSH1 0x20 ADD SWAP1 JUMP JUMPDEST DUP2 DUP2 LT PUSH2 0x1A6A JUMPI POP POP JUMP JUMPDEST PUSH1 0x0 DUP2 SSTORE PUSH1 0x1 ADD PUSH2 0x1A5F JUMP JUMPDEST SWAP1 DUP1 PUSH1 0x20 SWAP4 SWAP3 DUP2 DUP5 MSTORE DUP5 DUP5 ADD CALLDATACOPY PUSH1 0x0 DUP3 DUP3 ADD DUP5 ADD MSTORE PUSH1 0x1F ADD PUSH1 0x1F NOT AND ADD ADD SWAP1 JUMP JUMPDEST ISZERO PUSH2 0x1A9E JUMPI JUMP JUMPDEST PUSH1 0x40 MLOAD PUSH3 0x461BCD PUSH1 0xE5 SHL DUP2 MSTORE PUSH1 0x20 PUSH1 0x4 DUP3 ADD MSTORE PUSH1 0xA PUSH1 0x24 DUP3 ADD MSTORE PUSH10 0x27B7363C9037BBB732B9 PUSH1 0xB1 SHL PUSH1 0x44 DUP3 ADD MSTORE PUSH1 0x64 SWAP1 REVERT JUMPDEST ISZERO PUSH2 0x1AD7 JUMPI JUMP JUMPDEST PUSH1 0x40 MLOAD PUSH3 0x461BCD PUSH1 0xE5 SHL DUP2 MSTORE PUSH1 0x20 PUSH1 0x4 DUP3 ADD MSTORE PUSH1 0x10 PUSH1 0x24 DUP3 ADD MSTORE PUSH16 0x4167656E74206E6F7420616374697665 PUSH1 0x80 SHL PUSH1 0x44 DUP3 ADD MSTORE PUSH1 0x64 SWAP1 REVERT JUMPDEST PUSH1 0x0 NOT DUP2 EQ PUSH2 0x59D JUMPI PUSH1 0x1 ADD SWAP1 JUMP JUMPDEST SWAP1 SWAP3 DUP1 SWAP3 PUSH1 0x14 SWAP5 PUSH1 0x1 PUSH1 0x1 PUSH1 0x60 SHL SUB NOT SWAP1 PUSH1 0x60 SHL AND DUP4 MSTORE DUP5 DUP4 ADD CALLDATACOPY ADD ADD PUSH1 0x0 DUP2 MSTORE SWAP1 JUMP INVALID LOG2 PUSH5 0x6970667358 0x22 SLT KECCAK256 DELEGATECALL 0x4D STATICCALL 0xA5 0xA6 STATICCALL 0xC2 0xBA CALLDATACOPY 0xAA DUP13 SWAP5 0xDA DUP11 BASEFEE RETURNDATACOPY 0xAA 0x4E PUSH7 0x4BA2E85B222CD4 PUSH0 0xD4 EXTCODEHASH COINBASE GAS BASEFEE PUSH5 0x736F6C6343 STOP ADDMOD EQ STOP CALLER "},"methodIdentifiers":{"credentials(bytes32)":"299d0348","deactivateAgent(address)":"b0a0a927","getAgentIdentity(address)":"8a1ec4dc","getAgentReputation(address)":"ebeae587","getCredential(address,string)":"2f4b5ad3","hasCredential(address,string)":"d9854442","identities(address)":"f653b81e","issueCredential(address,string,string)":"9f4ed4fb","owner()":"8da5cb5b","recordTaskFailure(address,string)":"8d8fc2f7","recordTaskSuccess(address,string)":"a6050c59","registerAgent(address,string,string,string[],string)":"41d08f7a","registeredAgents(uint256)":"a7bd211c","reputations(address)":"06fa15a7","revokeCredential(address,string)":"b94f550c","totalAgents()":"c5053712"}}}}}