{"src/Radrr.sol":{"Radrr":{"abi":[{"inputs":[{"internalType":"address","name":"_platformWallet","type":"address"},{"internalType":"address","name":"_safetyFundWallet","type":"address"}],"stateMutability":"nonpayable","type":"constructor"},{"anonymous":false,"inputs":[{"indexed":true,"internalType":"string","name":"recordingId","type":"string"},{"indexed":false,"internalType":"string","name":"cid","type":"string"}],"name":"CidUpdated","type":"event"},{"anonymous":false,"inputs":[{"indexed":true,"internalType":"string","name":"recordingId","type":"string"},{"indexed":false,"internalType":"uint256","name":"bundleSize","type":"uint256"}],"name":"CorroborationUpdated","type":"event"},{"anonymous":false,"inputs":[{"indexed":true,"internalType":"address","name":"account","type":"address"},{"indexed":false,"internalType":"uint256","name":"newScore","type":"uint256"}],"name":"CredibilityUpdated","type":"event"},{"anonymous":false,"inputs":[{"indexed":true,"internalType":"string","name":"recordingId","type":"string"}],"name":"EncryptedCidUpdated","type":"event"},{"anonymous":false,"inputs":[{"indexed":true,"internalType":"address","name":"account","type":"address"},{"indexed":false,"internalType":"string","name":"pseudonym","type":"string"},{"indexed":false,"internalType":"bool","name":"worldIdVerified","type":"bool"}],"name":"IdentityRegistered","type":"event"},{"anonymous":false,"inputs":[{"indexed":true,"internalType":"string","name":"recordingId","type":"string"},{"indexed":true,"internalType":"address","name":"witness","type":"address"},{"indexed":false,"internalType":"uint256","name":"priceWei","type":"uint256"}],"name":"RecordingAnchored","type":"event"},{"anonymous":false,"inputs":[{"indexed":true,"internalType":"string","name":"recordingId","type":"string"},{"indexed":true,"internalType":"address","name":"buyer","type":"address"},{"indexed":false,"internalType":"uint256","name":"amount","type":"uint256"}],"name":"RecordingPurchased","type":"event"},{"inputs":[{"internalType":"string","name":"recordingId","type":"string"},{"internalType":"string","name":"merkleRoot","type":"string"},{"internalType":"string","name":"gpsApprox","type":"string"},{"internalType":"string","name":"title","type":"string"},{"internalType":"uint256","name":"priceWei","type":"uint256"}],"name":"anchorRecording","outputs":[],"stateMutability":"nonpayable","type":"function"},{"inputs":[{"internalType":"address","name":"account","type":"address"}],"name":"getIdentity","outputs":[{"components":[{"internalType":"address","name":"account","type":"address"},{"internalType":"string","name":"pseudonym","type":"string"},{"internalType":"string","name":"worldIdHash","type":"string"},{"internalType":"bool","name":"worldIdVerified","type":"bool"},{"internalType":"uint256","name":"credibilityScore","type":"uint256"},{"internalType":"uint256","name":"recordingCount","type":"uint256"},{"internalType":"uint256","name":"totalSales","type":"uint256"}],"internalType":"struct Radrr.Identity","name":"","type":"tuple"}],"stateMutability":"view","type":"function"},{"inputs":[{"internalType":"string","name":"recordingId","type":"string"}],"name":"getRecording","outputs":[{"components":[{"internalType":"string","name":"recordingId","type":"string"},{"internalType":"string","name":"merkleRoot","type":"string"},{"internalType":"string","name":"gpsApprox","type":"string"},{"internalType":"uint256","name":"timestamp","type":"uint256"},{"internalType":"string","name":"cid","type":"string"},{"internalType":"string","name":"encryptedCid","type":"string"},{"internalType":"address","name":"witness","type":"address"},{"internalType":"string","name":"title","type":"string"},{"internalType":"uint256","name":"priceWei","type":"uint256"},{"internalType":"bool","name":"sold","type":"bool"},{"internalType":"address","name":"buyer","type":"address"},{"internalType":"string[]","name":"corroborationBundle","type":"string[]"}],"internalType":"struct Radrr.Recording","name":"","type":"tuple"}],"stateMutability":"view","type":"function"},{"inputs":[{"internalType":"uint256","name":"fromIndex","type":"uint256"},{"internalType":"uint256","name":"limit","type":"uint256"}],"name":"getRecordings","outputs":[{"components":[{"internalType":"string","name":"recordingId","type":"string"},{"internalType":"string","name":"merkleRoot","type":"string"},{"internalType":"string","name":"gpsApprox","type":"string"},{"internalType":"uint256","name":"timestamp","type":"uint256"},{"internalType":"string","name":"cid","type":"string"},{"internalType":"string","name":"encryptedCid","type":"string"},{"internalType":"address","name":"witness","type":"address"},{"internalType":"string","name":"title","type":"string"},{"internalType":"uint256","name":"priceWei","type":"uint256"},{"internalType":"bool","name":"sold","type":"bool"},{"internalType":"address","name":"buyer","type":"address"},{"internalType":"string[]","name":"corroborationBundle","type":"string[]"}],"internalType":"struct Radrr.Recording[]","name":"","type":"tuple[]"}],"stateMutability":"view","type":"function"},{"inputs":[{"internalType":"string","name":"gpsApprox","type":"string"}],"name":"getRecordingsByGps","outputs":[{"internalType":"string[]","name":"","type":"string[]"}],"stateMutability":"view","type":"function"},{"inputs":[{"internalType":"address","name":"witness","type":"address"}],"name":"getRecordingsByWitness","outputs":[{"components":[{"internalType":"string","name":"recordingId","type":"string"},{"internalType":"string","name":"merkleRoot","type":"string"},{"internalType":"string","name":"gpsApprox","type":"string"},{"internalType":"uint256","name":"timestamp","type":"uint256"},{"internalType":"string","name":"cid","type":"string"},{"internalType":"string","name":"encryptedCid","type":"string"},{"internalType":"address","name":"witness","type":"address"},{"internalType":"string","name":"title","type":"string"},{"internalType":"uint256","name":"priceWei","type":"uint256"},{"internalType":"bool","name":"sold","type":"bool"},{"internalType":"address","name":"buyer","type":"address"},{"internalType":"string[]","name":"corroborationBundle","type":"string[]"}],"internalType":"struct Radrr.Recording[]","name":"","type":"tuple[]"}],"stateMutability":"view","type":"function"},{"inputs":[{"internalType":"address","name":"account","type":"address"},{"internalType":"uint256","name":"points","type":"uint256"}],"name":"incrementCredibility","outputs":[],"stateMutability":"nonpayable","type":"function"},{"inputs":[{"internalType":"string","name":"recordingId","type":"string"},{"internalType":"address","name":"buyer","type":"address"}],"name":"isPurchased","outputs":[{"internalType":"bool","name":"","type":"bool"}],"stateMutability":"view","type":"function"},{"inputs":[],"name":"owner","outputs":[{"internalType":"address","name":"","type":"address"}],"stateMutability":"view","type":"function"},{"inputs":[],"name":"platformWallet","outputs":[{"internalType":"address","name":"","type":"address"}],"stateMutability":"view","type":"function"},{"inputs":[{"internalType":"string","name":"recordingId","type":"string"}],"name":"purchase","outputs":[],"stateMutability":"payable","type":"function"},{"inputs":[{"internalType":"string","name":"pseudonym","type":"string"},{"internalType":"string","name":"worldIdHash","type":"string"}],"name":"registerIdentity","outputs":[],"stateMutability":"nonpayable","type":"function"},{"inputs":[],"name":"safetyFundWallet","outputs":[{"internalType":"address","name":"","type":"address"}],"stateMutability":"view","type":"function"},{"inputs":[],"name":"totalRecordings","outputs":[{"internalType":"uint256","name":"","type":"uint256"}],"stateMutability":"view","type":"function"},{"inputs":[{"internalType":"string","name":"recordingId","type":"string"},{"internalType":"string","name":"cid","type":"string"}],"name":"updateCid","outputs":[],"stateMutability":"nonpayable","type":"function"},{"inputs":[{"internalType":"string","name":"recordingId","type":"string"},{"internalType":"string[]","name":"bundleIds","type":"string[]"}],"name":"updateCorroboration","outputs":[],"stateMutability":"nonpayable","type":"function"},{"inputs":[{"internalType":"string","name":"recordingId","type":"string"},{"internalType":"string","name":"encryptedCid","type":"string"}],"name":"updateEncryptedCid","outputs":[],"stateMutability":"nonpayable","type":"function"}],"evm":{"bytecode":{"linkReferences":{},"object":"6080346200009b57601f620025b838819003918201601f19168301916001600160401b03831184841017620000a05780849260409485528339810103126200009b576200005a60206200005283620000b6565b9201620000b6565b9060018060a01b0319913383600054161760005560018060a01b03809216836001541617600155169060025416176002556040516124ec9081620000cc8239f35b600080fd5b634e487b7160e01b600052604160045260246000fd5b51906001600160a01b03821682036200009b5756fe608080604052600436101561001357600080fd5b60003560e01c9081630be8293f146117375750806320023e8d146116ba5780632fea7b8114611589578063323ff2ab14610bc257806336c4786a14610ac857806349c26c2114610a595780634a70b7d1146109de5780634cadec821461094c5780634dce6627146109235780635338dcb21461090557806359f5e0ce1461044b5780638da5cb5b146104225780639200789a14610381578063989ad1fd1461034f578063a1d01bb11461026e578063dedd85b7146101085763fa2af9da146100da57600080fd5b34610103576000366003190112610103576001546040516001600160a01b039091168152602090f35b600080fd5b34610103576040366003190112610103576001600160401b0360043581811161010357610139903690600401611aae565b916024928335928284116101035736602385011215610103578360040135938385116101035736868660051b830101116101035761018260018060a01b0360005416331461203f565b60405193838386376101ae6101a7868681016003815260209889910301902054611dd6565b151561207b565b600a6040518585823786818781016003815203019020016101cf8782611ea6565b60009081528581209736849003604219018482015b89841061022c57897f6be0157aefd903bd417a5aaff634f221ed1f881917d0fd29cf4662d69f3467328a8a8a81604051928392833781016000815203902092604051908152a2005b803582811215610103578601838101359086821161010357604401908036038213610103576001926102628c928f948695611f6d565b019b01930192996101e4565b346101035761027c36611adb565b92916040518184823760038183019081528190036020019020600601546001600160a01b0316330361031b577f7dc2939b3b7e8c9de4685741e0eebde455351a6ef7ef94c4860b7a2fb317998e926102ec8584600460405186868237602081888101600381520301902001611f6d565b81604051928392833781016000815203902092610316604051928392602084526020840191611e6e565b0390a2005b60405162461bcd60e51b815260206004820152600c60248201526b4f6e6c79207769746e65737360a01b6044820152606490fd5b346101035760403660031901126101035761037d610371602435600435612400565b60405191829182611cbb565b0390f35b34610103576103e961039236611adb565b906103ab60018060a09795971b0360005416331461203f565b6103cc6101a760405187878237602081898101600381520301902054611dd6565b600560405186868237602081888101600381520301902001611f6d565b8160405192839283378101600081520390207fd3a6bda789b0f9a153b59e95009474b8f2848faf271075194219fe5102d5b270600080a2005b34610103576000366003190112610103576000546040516001600160a01b039091168152602090f35b6020366003190112610103576004356001600160401b03811161010357610476903690600401611aae565b604051818382376020818381016003815203019020916104996101a78454611dd6565b6009830180549060ff82166108d15760068501546001600160a01b0316331461088c576008850154948534106108505760558602908615928783046055148417156107ab57600a880293888504600a1417156107ab5761053e90600161050e60648704610509606488048d6120b3565b6120b3565b610100600160a81b03199091166001600160a81b0319909716969096173360081b610100600160a81b0316179055565b604051602081019061056481610556338b8b876120c0565b03601f198101835282611d6f565b519020604051908160808101106001600160401b0360808401111761083a5760808201604052610595368989611d90565b8252336020830152886040830152426060830152600052600660205260406000209080518051906001600160401b03821161083a576105de826105d88654611dd6565b86611e27565b602090601f83116001146107cc579180600394926060946000926107c1575b50508160011b9160001990861b1c19161784555b6001840160018060a01b036020830151166001600160601b0360a01b82541617905560408101516002850155015191015560018060a01b03600682015416600052600460205260066040600020016106698154612030565b905560018060a01b0360068201541660005260046020526004604060002001805490600582018092116107ab57556006015460009182918291829182916001600160a01b039091169060648104156107a1575b6064900491f1156107795760008080809360018060a01b036001541682916064810415610797575b6064900491f115610779576002546000918291829182916001600160a01b031682821561078e575bf1156107795782341161075a575b8160405192839283378101600081520390206040519182527f649fd51450201af39d9d6ae69e8d8d43b6ca949117f1079100b9573be4ae71ce60203393a3005b600080808061076987346120b3565b818115610785575b3390f161071a575b6040513d6000823e3d90fd5b506108fc610771565b506108fc61070c565b6108fc92506106e4565b6108fc92506106bc565b634e487b7160e01b600052601160045260246000fd5b015190508d806105fd565b908460005260206000209160005b601f19851681106108225750926003949260019260609583601f1981161061080a575b505050811b018455610611565b015160001983881b60f8161c191690558d80806107fd565b919260206001819286850151815501940192016107da565b634e487b7160e01b600052604160045260246000fd5b60405162461bcd60e51b8152602060048201526014602482015273125b9cdd59999a58da595b9d081c185e5b595b9d60621b6044820152606490fd5b60405162461bcd60e51b815260206004820152601860248201527f43616e6e6f7420627579206f776e207265636f7264696e6700000000000000006044820152606490fd5b60405162461bcd60e51b815260206004820152600c60248201526b105b1c9958591e481cdbdb1960a21b6044820152606490fd5b34610103576000366003190112610103576020600754604051908152f35b34610103576000366003190112610103576002546040516001600160a01b039091168152602090f35b3461010357604036600319011261010357610965611b25565b6000546001600160a01b03919061097f908316331461203f565b16806000526004602052600460406000200161099e60243582546120de565b90558060005260046020527fe523e59b52b7d053ab06b9be8218d0c6836f8c3d7db5e4093d445b5bceab98a16020600460406000200154604051908152a2005b34610103576020366003190112610103576004356001600160401b03811161010357610a45610a366020610a23610a1c61037d953690600401611aae565b3691611d90565b8160405193828580945193849201611b3b565b810160058152030190206121ed565b604051918291602083526020830190611b83565b34610103576020366003190112610103576004356001600160401b03811161010357610ab46020610a9161037d933690600401611aae565b9190610a9b6120eb565b5082604051938492833781016003815203019020612242565b604051918291602083526020830190611bdf565b3461010357602036600319011261010357610ae1611b25565b6007546001600160a01b03918216916000805b838110610b865750610b0590612309565b9260009160005b848110610b21576040518061037d8882611cbb565b8083836006610b3b610b35610b4896611f36565b50612359565b01541614610b4d57612030565b610b0c565b610b80610b5c610b3583611f36565b95610b6f610b6982612030565b97612242565b610b79828b6123ec565b52886123ec565b50612030565b84836006610b96610b3585611f36565b01541614610bad575b610ba890612030565b610af4565b90610bba610ba891612030565b919050610b9f565b346101035760a0366003190112610103576004356001600160401b03811161010357610bf2903690600401611aae565b906024356001600160401b03811161010357610c12903690600401611aae565b906044356001600160401b03811161010357610c32903690600401611aae565b9290916064356001600160401b03811161010357610c54903690600401611aae565b9033600052600460205260018060a01b03604060002054161561154457610c8f604051898982376020818b8101600381520301902054611dd6565b61150b57610d1e91610ccc60405194610ca786611d54565b6000865260405196610cb888611d38565b610cc3368d8d611d90565b88523691611d90565b6020860152610cdc368888611d90565b6040860152426060860152604051610cf381611d54565b600081526080860152604051610d0881611d54565b6000815260a08601523360c08601523691611d90565b60e08301526084356101008301526000610120830152600061014083015261016082015260405185858237602081878101600381520301902081518051906001600160401b03821161083a578190610d7a826105d88654611dd6565b602090601f831160011461149f57600092611494575b50508160011b916000199060031b1c19161781555b60208201518051906001600160401b03821161083a578190610dd782610dce6001870154611dd6565b60018701611e27565b602090601f831160011461142257600092611417575b50508160011b916000199060031b1c19161760018201555b60408201518051906001600160401b03821161083a578190610e3782610e2e6002870154611dd6565b60028701611e27565b602090601f83116001146113a55760009261139a575b50508160011b916000199060031b1c19161760028201555b6060820151600382015560808201518051906001600160401b03821161083a578190610ea182610e986004870154611dd6565b60048701611e27565b602090601f83116001146113285760009261131d575b50508160011b916000199060031b1c19161760048201555b60a08201518051906001600160401b03821161083a578190610f0182610ef86005870154611dd6565b60058701611e27565b602090601f83116001146112ab576000926112a0575b50508160011b916000199060031b1c19161760058201555b6006810160018060a01b0360c0840151166001600160601b0360a01b82541617905560e08201518051906001600160401b03821161083a57610f8182610f786007860154611dd6565b60078601611e27565b602090601f831160011461122a5791806101609492600a9460009261121f575b50508160011b916000199060031b1c19161760078201555b610100840151600882015561101060098201610fe86101208701511515829060ff801983541691151516179055565b6101408601518154610100600160a81b03191660089190911b610100600160a81b0316179055565b0191015160208151916110238385611ea6565b01916000526020600020916000905b82821061113c575050505060075491600160401b928381101561083a5780600161105f9201600755611f36565b6111265761107892602092610a1c8888610a2395611f6d565b810160058152030190209081549081101561083a5760018101808355811015611110578284916110b093600052602060002001611f6d565b33600052600460205260056040600020016110cb8154612030565b90558160405192839283378101600081520390206040519060843582527f0b444c12ba330ac6b032fb2cd3e6caf87e4d8928c467be72f33933b43c36ba8760203393a3005b634e487b7160e01b600052603260045260246000fd5b634e487b7160e01b600052600060045260246000fd5b80518051906001600160401b03821161083a576111638261115d8854611dd6565b88611e27565b602090601f83116001146111af5792826001949360209386956000926111a4575b5050600019600383901b1c191690841b1787555b01940191019092611032565b015190508d80611184565b908660005260206000209160005b601f1985168110611207575083602093600196938796938794601f198116106111ee575b505050811b018755611198565b015160001960f88460031b161c191690558d80806111e1565b919260206001819286850151815501940192016111bd565b015190508a80610fa1565b906007840160005260206000209160005b601f19851681106112885750926101609492600192600a9583601f1981161061126f575b505050811b016007820155610fb9565b015160001960f88460031b161c191690558a808061125f565b9192602060018192868501518155019401920161123b565b015190508880610f17565b9250600584016000526020600020906000935b601f1984168510611302576001945083601f198116106112e9575b505050811b016005820155610f2f565b015160001960f88460031b161c191690558880806112d9565b818101518355602094850194600190930192909101906112be565b015190508880610eb7565b9250600484016000526020600020906000935b601f198416851061137f576001945083601f19811610611366575b505050811b016004820155610ecf565b015160001960f88460031b161c19169055888080611356565b8181015183556020948501946001909301929091019061133b565b015190508880610e4d565b9250600284016000526020600020906000935b601f19841685106113fc576001945083601f198116106113e3575b505050811b016002820155610e65565b015160001960f88460031b161c191690558880806113d3565b818101518355602094850194600190930192909101906113b8565b015190508880610ded565b9250600184016000526020600020906000935b601f1984168510611479576001945083601f19811610611460575b505050811b016001820155610e05565b015160001960f88460031b161c19169055888080611450565b81810151835560209485019460019093019290910190611435565b015190508880610d90565b9250836000526020600020906000935b601f19841685106114f0576001945083601f198116106114d7575b505050811b018155610da5565b015160001960f88460031b161c191690558880806114ca565b818101518355602094850194600190930192909101906114af565b60405162461bcd60e51b8152602060048201526011602482015270494420616c72656164792065786973747360781b6044820152606490fd5b60405162461bcd60e51b815260206004820152601760248201527f5265676973746572206964656e746974792066697273740000000000000000006044820152606490fd5b3461010357602080600319360112610103576115a3611b25565b90600060c06040516115b481611d1d565b828152606084820152606060408201528260608201528260808201528260a0820152015260018060a01b03809216600052600481526040600020604051916115fb83611d1d565b83825416835261160d60018301612149565b9181840192835261162060028201612149565b926040850193845261169b60ff6003840154169460608701951515865261168860048501549360808901948552600660058701549660a08b0197885201549660c08a019788526040519a8b9a828c525116908a01525160e060408a0152610100890190611b5e565b9051878203601f19016060890152611b5e565b9351151560808601525160a08501525160c08401525160e08301520390f35b34610103576040366003190112610103576004356001600160401b038111610103576116ea903690600401611aae565b906001600160a01b039060243582811681036101035761171960209461055660405193849288840196876120c0565b51902060005260068252600160406000200154161515604051908152f35b346101035761174536611adb565b92909333600052600460205260018060a01b03908160406000205416611a7757508215611a3d578315611a35576019945b60ff6040519661178588611d1d565b3388526117a6611796368888611d90565b9360208a01948552883691611d90565b60408901528615156060890152166080870152600060a0870152600060c08701523360005260046020526040600020918651166001600160601b0360a01b83541617825551948551956001600160401b039687811161083a57806001850192611813826105d88654611dd6565b602090601f83116001146119cf576000926119c4575b50508160011b916000199060031b1c19161790555b604081015195865190811161083a576118678161185e6002860154611dd6565b60028601611e27565b6020601f82116001146119295761190e9493928260069360c0937f4ab0314c8a84eb15acd288a1e7ab89a8da3fc57c9b2ea0cf20071209add7cc699a9b60009261191e575b50508160011b916000199060031b1c19161760028501555b6118e360608201511515600386019060ff801983541691151516179055565b6080810151600485015560a08101516005850155015191015560405192604084526040840191611e6e565b92151560208201528033930390a2005b015190508b806118ac565b6002840160005260206000209760005b601f19841681106119ac5750926001837f4ab0314c8a84eb15acd288a1e7ab89a8da3fc57c9b2ea0cf20071209add7cc69999a60c09461190e999897600697601f19811610611993575b505050811b0160028501556118c4565b015160001960f88460031b161c191690558b8080611983565b828201518a5560019099019860209283019201611939565b015190508980611829565b6000858152602081209350601f198516905b818110611a1d5750908460019594939210611a04575b505050811b01905561183e565b015160001960f88460031b161c191690558980806119f7565b929360206001819287860151815501950193016119e1565b600a94611776565b60405162461bcd60e51b8152602060048201526012602482015271141cd95d591bdb9e5b481c995c5d5a5c995960721b6044820152606490fd5b62461bcd60e51b8152602060048201526012602482015271105b1c9958591e481c9959da5cdd195c995960721b6044820152606490fd5b9181601f84011215610103578235916001600160401b038311610103576020838186019501011161010357565b6040600319820112610103576001600160401b03916004358381116101035782611b0791600401611aae565b9390939260243591821161010357611b2191600401611aae565b9091565b600435906001600160a01b038216820361010357565b60005b838110611b4e5750506000910152565b8181015183820152602001611b3e565b90602091611b7781518092818552858086019101611b3b565b601f01601f1916010190565b908082519081815260208091019281808460051b8301019501936000915b848310611bb15750505050505090565b9091929394958480611bcf600193601f198682030187528a51611b5e565b9801930193019194939290611ba1565b90611cb891611c55611c43611c27611c15611c038551610180808952880190611b5e565b60208601518782036020890152611b5e565b60408501518682036040880152611b5e565b6060840151606086015260808401518582036080870152611b5e565b60a083015184820360a0860152611b5e565b91611c7f60018060a01b03938460c08501511660c084015260e084015183820360e0850152611b5e565b92610100808401519083015261012080840151151590830152610140908184015116908201526101608092015191818403910152611b83565b90565b602080820190808352835180925260408301928160408460051b8301019501936000915b848310611cef5750505050505090565b9091929394958480611d0d600193603f198682030187528a51611bdf565b9801930193019194939290611cdf565b60e081019081106001600160401b0382111761083a57604052565b61018081019081106001600160401b0382111761083a57604052565b602081019081106001600160401b0382111761083a57604052565b90601f801991011681019081106001600160401b0382111761083a57604052565b9291926001600160401b03821161083a5760405191611db9601f8201601f191660200184611d6f565b829481845281830111610103578281602093846000960137010152565b90600182811c92168015611e06575b6020831014611df057565b634e487b7160e01b600052602260045260246000fd5b91607f1691611de5565b818110611e1b575050565b60008155600101611e10565b9190601f8111611e3657505050565b611e62926000526020600020906020601f840160051c83019310611e64575b601f0160051c0190611e10565b565b9091508190611e55565b908060209392818452848401376000828201840152601f01601f1916010190565b6001600160401b03811161083a5760051b60200190565b600160401b821161083a57805491808255828110611ec357505050565b600091825260209081832093840193015b838110611ee15750505050565b8083611eef60019354611dd6565b80611efd575b505001611ed4565b601f8082118514611f1457505081555b8338611ef5565b611f2d90848452868420920160051c8201858301611e10565b81835555611f0d565b6007548110156111105760076000527fa66cc928b5edb82af9bd49922954155ab7b0942694bea4ce44661d9a8736c6880190600090565b9092916001600160401b03811161083a57611f9281611f8c8454611dd6565b84611e27565b6000601f8211600114611fcc5781929394600092611fc1575b50508160011b916000199060031b1c1916179055565b013590503880611fab565b601f198216948382526020918281209281905b88821061201857505083600195969710611ffe575b505050811b019055565b0135600019600384901b60f8161c19169055388080611ff4565b80600184968294958701358155019501920190611fdf565b60001981146107ab5760010190565b1561204657565b60405162461bcd60e51b815260206004820152600d60248201526c4f6e6c7920706c6174666f726d60981b6044820152606490fd5b1561208257565b60405162461bcd60e51b8152602060048201526009602482015268139bdd08199bdd5b9960ba1b6044820152606490fd5b919082039182116107ab57565b826014949392823701906001600160601b03199060601b1681520190565b919082018092116107ab57565b604051906120f882611d38565b816101606060918281528260208201528260408201526000838201528260808201528260a0820152600060c08201528260e08201526000610100820152600061012082015260006101408201520152565b906040519182600082549261215d84611dd6565b9081845260019485811690816000146121ca5750600114612187575b5050611e6292500383611d6f565b9093915060005260209081600020936000915b8183106121b2575050611e6293508201013880612179565b8554888401850152948501948794509183019161219a565b915050611e6294506020925060ff191682840152151560051b8201013880612179565b9081546121f981611e8f565b926122076040519485611d6f565b818452600090815260208082208186015b848410612226575050505050565b600183819261223485612149565b815201920193019290612218565b9060405161224f81611d38565b610160612304600a839561226281612149565b855261227060018201612149565b602086015261228160028201612149565b60408601526003810154606086015261229c60048201612149565b60808601526122ad60058201612149565b60a086015260068101546001600160a01b0390811660c08701526122d360078301612149565b60e08701526008820154610100870152600982015460ff8116151561012088015260081c16610140860152016121ed565b910152565b9061231382611e8f565b6123206040519182611d6f565b8281528092612331601f1991611e8f565b019060005b82811061234257505050565b60209061234d6120eb565b82828501015201612336565b60405190816000825461236b81611dd6565b936001918083169081156123d05750600114612393575b505060209250600381520301902090565b90915060005260209081600020906000915b8583106123bc575050505060209181013880612382565b8054878401528694509183019181016123a5565b92505050602093915060ff191682528015150281013880612382565b80518210156111105760209160051b010190565b9060328111156124b1575060325b600754908183101561249b578161242582856120de565b111561248b57505b61243f61243a83836120b3565b612309565b91805b82811061244f5750505090565b80610b80612462610b3561248694611f36565b61247561246f86856120b3565b91612242565b61247f82896123ec565b52866123ec565b612442565b6124969150826120de565b61242d565b5050506040516124aa81611d54565b6000815290565b61240e56fea26469706673582212208fd9da596f5fe37c94dce9775ecaa5a45a05c2a68268bc0f68e416f7b6bd9e4764736f6c63430008140033","opcodes":"PUSH1 0x80 CALLVALUE PUSH3 0x9B JUMPI PUSH1 0x1F PUSH3 0x25B8 CODESIZE DUP2 SWAP1 SUB SWAP2 DUP3 ADD PUSH1 0x1F NOT AND DUP4 ADD SWAP2 PUSH1 0x1 PUSH1 0x1 PUSH1 0x40 SHL SUB DUP4 GT DUP5 DUP5 LT OR PUSH3 0xA0 JUMPI DUP1 DUP5 SWAP3 PUSH1 0x40 SWAP5 DUP6 MSTORE DUP4 CODECOPY DUP2 ADD SUB SLT PUSH3 0x9B JUMPI PUSH3 0x5A PUSH1 0x20 PUSH3 0x52 DUP4 PUSH3 0xB6 JUMP JUMPDEST SWAP3 ADD PUSH3 0xB6 JUMP JUMPDEST SWAP1 PUSH1 0x1 DUP1 PUSH1 0xA0 SHL SUB NOT SWAP2 CALLER DUP4 PUSH1 0x0 SLOAD AND OR PUSH1 0x0 SSTORE PUSH1 0x1 DUP1 PUSH1 0xA0 SHL SUB DUP1 SWAP3 AND DUP4 PUSH1 0x1 SLOAD AND OR PUSH1 0x1 SSTORE AND SWAP1 PUSH1 0x2 SLOAD AND OR PUSH1 0x2 SSTORE PUSH1 0x40 MLOAD PUSH2 0x24EC SWAP1 DUP2 PUSH3 0xCC DUP3 CODECOPY RETURN JUMPDEST PUSH1 0x0 DUP1 REVERT JUMPDEST PUSH4 0x4E487B71 PUSH1 0xE0 SHL PUSH1 0x0 MSTORE PUSH1 0x41 PUSH1 0x4 MSTORE PUSH1 0x24 PUSH1 0x0 REVERT JUMPDEST MLOAD SWAP1 PUSH1 0x1 PUSH1 0x1 PUSH1 0xA0 SHL SUB DUP3 AND DUP3 SUB PUSH3 0x9B JUMPI JUMP INVALID PUSH1 0x80 DUP1 PUSH1 0x40 MSTORE PUSH1 0x4 CALLDATASIZE LT ISZERO PUSH2 0x13 JUMPI PUSH1 0x0 DUP1 REVERT JUMPDEST PUSH1 0x0 CALLDATALOAD PUSH1 0xE0 SHR SWAP1 DUP2 PUSH4 0xBE8293F EQ PUSH2 0x1737 JUMPI POP DUP1 PUSH4 0x20023E8D EQ PUSH2 0x16BA JUMPI DUP1 PUSH4 0x2FEA7B81 EQ PUSH2 0x1589 JUMPI DUP1 PUSH4 0x323FF2AB EQ PUSH2 0xBC2 JUMPI DUP1 PUSH4 0x36C4786A EQ PUSH2 0xAC8 JUMPI DUP1 PUSH4 0x49C26C21 EQ PUSH2 0xA59 JUMPI DUP1 PUSH4 0x4A70B7D1 EQ PUSH2 0x9DE JUMPI DUP1 PUSH4 0x4CADEC82 EQ PUSH2 0x94C JUMPI DUP1 PUSH4 0x4DCE6627 EQ PUSH2 0x923 JUMPI DUP1 PUSH4 0x5338DCB2 EQ PUSH2 0x905 JUMPI DUP1 PUSH4 0x59F5E0CE EQ PUSH2 0x44B JUMPI DUP1 PUSH4 0x8DA5CB5B EQ PUSH2 0x422 JUMPI DUP1 PUSH4 0x9200789A EQ PUSH2 0x381 JUMPI DUP1 PUSH4 0x989AD1FD EQ PUSH2 0x34F JUMPI DUP1 PUSH4 0xA1D01BB1 EQ PUSH2 0x26E JUMPI DUP1 PUSH4 0xDEDD85B7 EQ PUSH2 0x108 JUMPI PUSH4 0xFA2AF9DA EQ PUSH2 0xDA JUMPI PUSH1 0x0 DUP1 REVERT JUMPDEST CALLVALUE PUSH2 0x103 JUMPI PUSH1 0x0 CALLDATASIZE PUSH1 0x3 NOT ADD SLT PUSH2 0x103 JUMPI PUSH1 0x1 SLOAD PUSH1 0x40 MLOAD PUSH1 0x1 PUSH1 0x1 PUSH1 0xA0 SHL SUB SWAP1 SWAP2 AND DUP2 MSTORE PUSH1 0x20 SWAP1 RETURN JUMPDEST PUSH1 0x0 DUP1 REVERT JUMPDEST CALLVALUE PUSH2 0x103 JUMPI PUSH1 0x40 CALLDATASIZE PUSH1 0x3 NOT ADD SLT PUSH2 0x103 JUMPI PUSH1 0x1 PUSH1 0x1 PUSH1 0x40 SHL SUB PUSH1 0x4 CALLDATALOAD DUP2 DUP2 GT PUSH2 0x103 JUMPI PUSH2 0x139 SWAP1 CALLDATASIZE SWAP1 PUSH1 0x4 ADD PUSH2 0x1AAE JUMP JUMPDEST SWAP2 PUSH1 0x24 SWAP3 DUP4 CALLDATALOAD SWAP3 DUP3 DUP5 GT PUSH2 0x103 JUMPI CALLDATASIZE PUSH1 0x23 DUP6 ADD SLT ISZERO PUSH2 0x103 JUMPI DUP4 PUSH1 0x4 ADD CALLDATALOAD SWAP4 DUP4 DUP6 GT PUSH2 0x103 JUMPI CALLDATASIZE DUP7 DUP7 PUSH1 0x5 SHL DUP4 ADD ADD GT PUSH2 0x103 JUMPI PUSH2 0x182 PUSH1 0x1 DUP1 PUSH1 0xA0 SHL SUB PUSH1 0x0 SLOAD AND CALLER EQ PUSH2 0x203F JUMP JUMPDEST PUSH1 0x40 MLOAD SWAP4 DUP4 DUP4 DUP7 CALLDATACOPY PUSH2 0x1AE PUSH2 0x1A7 DUP7 DUP7 DUP2 ADD PUSH1 0x3 DUP2 MSTORE PUSH1 0x20 SWAP9 DUP10 SWAP2 SUB ADD SWAP1 KECCAK256 SLOAD PUSH2 0x1DD6 JUMP JUMPDEST ISZERO ISZERO PUSH2 0x207B JUMP JUMPDEST PUSH1 0xA PUSH1 0x40 MLOAD DUP6 DUP6 DUP3 CALLDATACOPY DUP7 DUP2 DUP8 DUP2 ADD PUSH1 0x3 DUP2 MSTORE SUB ADD SWAP1 KECCAK256 ADD PUSH2 0x1CF DUP8 DUP3 PUSH2 0x1EA6 JUMP JUMPDEST PUSH1 0x0 SWAP1 DUP2 MSTORE DUP6 DUP2 KECCAK256 SWAP8 CALLDATASIZE DUP5 SWAP1 SUB PUSH1 0x42 NOT ADD DUP5 DUP3 ADD JUMPDEST DUP10 DUP5 LT PUSH2 0x22C JUMPI DUP10 PUSH32 0x6BE0157AEFD903BD417A5AAFF634F221ED1F881917D0FD29CF4662D69F346732 DUP11 DUP11 DUP11 DUP2 PUSH1 0x40 MLOAD SWAP3 DUP4 SWAP3 DUP4 CALLDATACOPY DUP2 ADD PUSH1 0x0 DUP2 MSTORE SUB SWAP1 KECCAK256 SWAP3 PUSH1 0x40 MLOAD SWAP1 DUP2 MSTORE LOG2 STOP JUMPDEST DUP1 CALLDATALOAD DUP3 DUP2 SLT ISZERO PUSH2 0x103 JUMPI DUP7 ADD DUP4 DUP2 ADD CALLDATALOAD SWAP1 DUP7 DUP3 GT PUSH2 0x103 JUMPI PUSH1 0x44 ADD SWAP1 DUP1 CALLDATASIZE SUB DUP3 SGT PUSH2 0x103 JUMPI PUSH1 0x1 SWAP3 PUSH2 0x262 DUP13 SWAP3 DUP16 SWAP5 DUP7 SWAP6 PUSH2 0x1F6D JUMP JUMPDEST ADD SWAP12 ADD SWAP4 ADD SWAP3 SWAP10 PUSH2 0x1E4 JUMP JUMPDEST CALLVALUE PUSH2 0x103 JUMPI PUSH2 0x27C CALLDATASIZE PUSH2 0x1ADB JUMP JUMPDEST SWAP3 SWAP2 PUSH1 0x40 MLOAD DUP2 DUP5 DUP3 CALLDATACOPY PUSH1 0x3 DUP2 DUP4 ADD SWAP1 DUP2 MSTORE DUP2 SWAP1 SUB PUSH1 0x20 ADD SWAP1 KECCAK256 PUSH1 0x6 ADD SLOAD PUSH1 0x1 PUSH1 0x1 PUSH1 0xA0 SHL SUB AND CALLER SUB PUSH2 0x31B JUMPI PUSH32 0x7DC2939B3B7E8C9DE4685741E0EEBDE455351A6EF7EF94C4860B7A2FB317998E SWAP3 PUSH2 0x2EC DUP6 DUP5 PUSH1 0x4 PUSH1 0x40 MLOAD DUP7 DUP7 DUP3 CALLDATACOPY PUSH1 0x20 DUP2 DUP9 DUP2 ADD PUSH1 0x3 DUP2 MSTORE SUB ADD SWAP1 KECCAK256 ADD PUSH2 0x1F6D JUMP JUMPDEST DUP2 PUSH1 0x40 MLOAD SWAP3 DUP4 SWAP3 DUP4 CALLDATACOPY DUP2 ADD PUSH1 0x0 DUP2 MSTORE SUB SWAP1 KECCAK256 SWAP3 PUSH2 0x316 PUSH1 0x40 MLOAD SWAP3 DUP4 SWAP3 PUSH1 0x20 DUP5 MSTORE PUSH1 0x20 DUP5 ADD SWAP2 PUSH2 0x1E6E JUMP JUMPDEST SUB SWAP1 LOG2 STOP JUMPDEST PUSH1 0x40 MLOAD PUSH3 0x461BCD PUSH1 0xE5 SHL DUP2 MSTORE PUSH1 0x20 PUSH1 0x4 DUP3 ADD MSTORE PUSH1 0xC PUSH1 0x24 DUP3 ADD MSTORE PUSH12 0x4F6E6C79207769746E657373 PUSH1 0xA0 SHL PUSH1 0x44 DUP3 ADD MSTORE PUSH1 0x64 SWAP1 REVERT JUMPDEST CALLVALUE PUSH2 0x103 JUMPI PUSH1 0x40 CALLDATASIZE PUSH1 0x3 NOT ADD SLT PUSH2 0x103 JUMPI PUSH2 0x37D PUSH2 0x371 PUSH1 0x24 CALLDATALOAD PUSH1 0x4 CALLDATALOAD PUSH2 0x2400 JUMP JUMPDEST PUSH1 0x40 MLOAD SWAP2 DUP3 SWAP2 DUP3 PUSH2 0x1CBB JUMP JUMPDEST SUB SWAP1 RETURN JUMPDEST CALLVALUE PUSH2 0x103 JUMPI PUSH2 0x3E9 PUSH2 0x392 CALLDATASIZE PUSH2 0x1ADB JUMP JUMPDEST SWAP1 PUSH2 0x3AB PUSH1 0x1 DUP1 PUSH1 0xA0 SWAP8 SWAP6 SWAP8 SHL SUB PUSH1 0x0 SLOAD AND CALLER EQ PUSH2 0x203F JUMP JUMPDEST PUSH2 0x3CC PUSH2 0x1A7 PUSH1 0x40 MLOAD DUP8 DUP8 DUP3 CALLDATACOPY PUSH1 0x20 DUP2 DUP10 DUP2 ADD PUSH1 0x3 DUP2 MSTORE SUB ADD SWAP1 KECCAK256 SLOAD PUSH2 0x1DD6 JUMP JUMPDEST PUSH1 0x5 PUSH1 0x40 MLOAD DUP7 DUP7 DUP3 CALLDATACOPY PUSH1 0x20 DUP2 DUP9 DUP2 ADD PUSH1 0x3 DUP2 MSTORE SUB ADD SWAP1 KECCAK256 ADD PUSH2 0x1F6D JUMP JUMPDEST DUP2 PUSH1 0x40 MLOAD SWAP3 DUP4 SWAP3 DUP4 CALLDATACOPY DUP2 ADD PUSH1 0x0 DUP2 MSTORE SUB SWAP1 KECCAK256 PUSH32 0xD3A6BDA789B0F9A153B59E95009474B8F2848FAF271075194219FE5102D5B270 PUSH1 0x0 DUP1 LOG2 STOP JUMPDEST CALLVALUE PUSH2 0x103 JUMPI PUSH1 0x0 CALLDATASIZE PUSH1 0x3 NOT ADD SLT PUSH2 0x103 JUMPI PUSH1 0x0 SLOAD PUSH1 0x40 MLOAD PUSH1 0x1 PUSH1 0x1 PUSH1 0xA0 SHL SUB SWAP1 SWAP2 AND DUP2 MSTORE PUSH1 0x20 SWAP1 RETURN JUMPDEST PUSH1 0x20 CALLDATASIZE PUSH1 0x3 NOT ADD SLT PUSH2 0x103 JUMPI PUSH1 0x4 CALLDATALOAD PUSH1 0x1 PUSH1 0x1 PUSH1 0x40 SHL SUB DUP2 GT PUSH2 0x103 JUMPI PUSH2 0x476 SWAP1 CALLDATASIZE SWAP1 PUSH1 0x4 ADD PUSH2 0x1AAE JUMP JUMPDEST PUSH1 0x40 MLOAD DUP2 DUP4 DUP3 CALLDATACOPY PUSH1 0x20 DUP2 DUP4 DUP2 ADD PUSH1 0x3 DUP2 MSTORE SUB ADD SWAP1 KECCAK256 SWAP2 PUSH2 0x499 PUSH2 0x1A7 DUP5 SLOAD PUSH2 0x1DD6 JUMP JUMPDEST PUSH1 0x9 DUP4 ADD DUP1 SLOAD SWAP1 PUSH1 0xFF DUP3 AND PUSH2 0x8D1 JUMPI PUSH1 0x6 DUP6 ADD SLOAD PUSH1 0x1 PUSH1 0x1 PUSH1 0xA0 SHL SUB AND CALLER EQ PUSH2 0x88C JUMPI PUSH1 0x8 DUP6 ADD SLOAD SWAP5 DUP6 CALLVALUE LT PUSH2 0x850 JUMPI PUSH1 0x55 DUP7 MUL SWAP1 DUP7 ISZERO SWAP3 DUP8 DUP4 DIV PUSH1 0x55 EQ DUP5 OR ISZERO PUSH2 0x7AB JUMPI PUSH1 0xA DUP9 MUL SWAP4 DUP9 DUP6 DIV PUSH1 0xA EQ OR ISZERO PUSH2 0x7AB JUMPI PUSH2 0x53E SWAP1 PUSH1 0x1 PUSH2 0x50E PUSH1 0x64 DUP8 DIV PUSH2 0x509 PUSH1 0x64 DUP9 DIV DUP14 PUSH2 0x20B3 JUMP JUMPDEST PUSH2 0x20B3 JUMP JUMPDEST PUSH2 0x100 PUSH1 0x1 PUSH1 0xA8 SHL SUB NOT SWAP1 SWAP2 AND PUSH1 0x1 PUSH1 0x1 PUSH1 0xA8 SHL SUB NOT SWAP1 SWAP8 AND SWAP7 SWAP1 SWAP7 OR CALLER PUSH1 0x8 SHL PUSH2 0x100 PUSH1 0x1 PUSH1 0xA8 SHL SUB AND OR SWAP1 SSTORE JUMP JUMPDEST PUSH1 0x40 MLOAD PUSH1 0x20 DUP2 ADD SWAP1 PUSH2 0x564 DUP2 PUSH2 0x556 CALLER DUP12 DUP12 DUP8 PUSH2 0x20C0 JUMP JUMPDEST SUB PUSH1 0x1F NOT DUP2 ADD DUP4 MSTORE DUP3 PUSH2 0x1D6F JUMP JUMPDEST MLOAD SWAP1 KECCAK256 PUSH1 0x40 MLOAD SWAP1 DUP2 PUSH1 0x80 DUP2 ADD LT PUSH1 0x1 PUSH1 0x1 PUSH1 0x40 SHL SUB PUSH1 0x80 DUP5 ADD GT OR PUSH2 0x83A JUMPI PUSH1 0x80 DUP3 ADD PUSH1 0x40 MSTORE PUSH2 0x595 CALLDATASIZE DUP10 DUP10 PUSH2 0x1D90 JUMP JUMPDEST DUP3 MSTORE CALLER PUSH1 0x20 DUP4 ADD MSTORE DUP9 PUSH1 0x40 DUP4 ADD MSTORE TIMESTAMP PUSH1 0x60 DUP4 ADD MSTORE PUSH1 0x0 MSTORE PUSH1 0x6 PUSH1 0x20 MSTORE PUSH1 0x40 PUSH1 0x0 KECCAK256 SWAP1 DUP1 MLOAD DUP1 MLOAD SWAP1 PUSH1 0x1 PUSH1 0x1 PUSH1 0x40 SHL SUB DUP3 GT PUSH2 0x83A JUMPI PUSH2 0x5DE DUP3 PUSH2 0x5D8 DUP7 SLOAD PUSH2 0x1DD6 JUMP JUMPDEST DUP7 PUSH2 0x1E27 JUMP JUMPDEST PUSH1 0x20 SWAP1 PUSH1 0x1F DUP4 GT PUSH1 0x1 EQ PUSH2 0x7CC JUMPI SWAP2 DUP1 PUSH1 0x3 SWAP5 SWAP3 PUSH1 0x60 SWAP5 PUSH1 0x0 SWAP3 PUSH2 0x7C1 JUMPI JUMPDEST POP POP DUP2 PUSH1 0x1 SHL SWAP2 PUSH1 0x0 NOT SWAP1 DUP7 SHL SHR NOT AND OR DUP5 SSTORE JUMPDEST PUSH1 0x1 DUP5 ADD PUSH1 0x1 DUP1 PUSH1 0xA0 SHL SUB PUSH1 0x20 DUP4 ADD MLOAD AND PUSH1 0x1 PUSH1 0x1 PUSH1 0x60 SHL SUB PUSH1 0xA0 SHL DUP3 SLOAD AND OR SWAP1 SSTORE PUSH1 0x40 DUP2 ADD MLOAD PUSH1 0x2 DUP6 ADD SSTORE ADD MLOAD SWAP2 ADD SSTORE PUSH1 0x1 DUP1 PUSH1 0xA0 SHL SUB PUSH1 0x6 DUP3 ADD SLOAD AND PUSH1 0x0 MSTORE PUSH1 0x4 PUSH1 0x20 MSTORE PUSH1 0x6 PUSH1 0x40 PUSH1 0x0 KECCAK256 ADD PUSH2 0x669 DUP2 SLOAD PUSH2 0x2030 JUMP JUMPDEST SWAP1 SSTORE PUSH1 0x1 DUP1 PUSH1 0xA0 SHL SUB PUSH1 0x6 DUP3 ADD SLOAD AND PUSH1 0x0 MSTORE PUSH1 0x4 PUSH1 0x20 MSTORE PUSH1 0x4 PUSH1 0x40 PUSH1 0x0 KECCAK256 ADD DUP1 SLOAD SWAP1 PUSH1 0x5 DUP3 ADD DUP1 SWAP3 GT PUSH2 0x7AB JUMPI SSTORE PUSH1 0x6 ADD SLOAD PUSH1 0x0 SWAP2 DUP3 SWAP2 DUP3 SWAP2 DUP3 SWAP2 DUP3 SWAP2 PUSH1 0x1 PUSH1 0x1 PUSH1 0xA0 SHL SUB SWAP1 SWAP2 AND SWAP1 PUSH1 0x64 DUP2 DIV ISZERO PUSH2 0x7A1 JUMPI JUMPDEST PUSH1 0x64 SWAP1 DIV SWAP2 CALL ISZERO PUSH2 0x779 JUMPI PUSH1 0x0 DUP1 DUP1 DUP1 SWAP4 PUSH1 0x1 DUP1 PUSH1 0xA0 SHL SUB PUSH1 0x1 SLOAD AND DUP3 SWAP2 PUSH1 0x64 DUP2 DIV ISZERO PUSH2 0x797 JUMPI JUMPDEST PUSH1 0x64 SWAP1 DIV SWAP2 CALL ISZERO PUSH2 0x779 JUMPI PUSH1 0x2 SLOAD PUSH1 0x0 SWAP2 DUP3 SWAP2 DUP3 SWAP2 DUP3 SWAP2 PUSH1 0x1 PUSH1 0x1 PUSH1 0xA0 SHL SUB AND DUP3 DUP3 ISZERO PUSH2 0x78E JUMPI JUMPDEST CALL ISZERO PUSH2 0x779 JUMPI DUP3 CALLVALUE GT PUSH2 0x75A JUMPI JUMPDEST DUP2 PUSH1 0x40 MLOAD SWAP3 DUP4 SWAP3 DUP4 CALLDATACOPY DUP2 ADD PUSH1 0x0 DUP2 MSTORE SUB SWAP1 KECCAK256 PUSH1 0x40 MLOAD SWAP2 DUP3 MSTORE PUSH32 0x649FD51450201AF39D9D6AE69E8D8D43B6CA949117F1079100B9573BE4AE71CE PUSH1 0x20 CALLER SWAP4 LOG3 STOP JUMPDEST PUSH1 0x0 DUP1 DUP1 DUP1 PUSH2 0x769 DUP8 CALLVALUE PUSH2 0x20B3 JUMP JUMPDEST DUP2 DUP2 ISZERO PUSH2 0x785 JUMPI JUMPDEST CALLER SWAP1 CALL PUSH2 0x71A JUMPI JUMPDEST PUSH1 0x40 MLOAD RETURNDATASIZE PUSH1 0x0 DUP3 RETURNDATACOPY RETURNDATASIZE SWAP1 REVERT JUMPDEST POP PUSH2 0x8FC PUSH2 0x771 JUMP JUMPDEST POP PUSH2 0x8FC PUSH2 0x70C JUMP JUMPDEST PUSH2 0x8FC SWAP3 POP PUSH2 0x6E4 JUMP JUMPDEST PUSH2 0x8FC SWAP3 POP PUSH2 0x6BC JUMP JUMPDEST PUSH4 0x4E487B71 PUSH1 0xE0 SHL PUSH1 0x0 MSTORE PUSH1 0x11 PUSH1 0x4 MSTORE PUSH1 0x24 PUSH1 0x0 REVERT JUMPDEST ADD MLOAD SWAP1 POP DUP14 DUP1 PUSH2 0x5FD JUMP JUMPDEST SWAP1 DUP5 PUSH1 0x0 MSTORE PUSH1 0x20 PUSH1 0x0 KECCAK256 SWAP2 PUSH1 0x0 JUMPDEST PUSH1 0x1F NOT DUP6 AND DUP2 LT PUSH2 0x822 JUMPI POP SWAP3 PUSH1 0x3 SWAP5 SWAP3 PUSH1 0x1 SWAP3 PUSH1 0x60 SWAP6 DUP4 PUSH1 0x1F NOT DUP2 AND LT PUSH2 0x80A JUMPI JUMPDEST POP POP POP DUP2 SHL ADD DUP5 SSTORE PUSH2 0x611 JUMP JUMPDEST ADD MLOAD PUSH1 0x0 NOT DUP4 DUP9 SHL PUSH1 0xF8 AND SHR NOT AND SWAP1 SSTORE DUP14 DUP1 DUP1 PUSH2 0x7FD JUMP JUMPDEST SWAP2 SWAP3 PUSH1 0x20 PUSH1 0x1 DUP2 SWAP3 DUP7 DUP6 ADD MLOAD DUP2 SSTORE ADD SWAP5 ADD SWAP3 ADD PUSH2 0x7DA JUMP JUMPDEST PUSH4 0x4E487B71 PUSH1 0xE0 SHL PUSH1 0x0 MSTORE PUSH1 0x41 PUSH1 0x4 MSTORE PUSH1 0x24 PUSH1 0x0 REVERT JUMPDEST PUSH1 0x40 MLOAD PUSH3 0x461BCD PUSH1 0xE5 SHL DUP2 MSTORE PUSH1 0x20 PUSH1 0x4 DUP3 ADD MSTORE PUSH1 0x14 PUSH1 0x24 DUP3 ADD MSTORE PUSH20 0x125B9CDD59999A58DA595B9D081C185E5B595B9D PUSH1 0x62 SHL PUSH1 0x44 DUP3 ADD MSTORE PUSH1 0x64 SWAP1 REVERT JUMPDEST PUSH1 0x40 MLOAD PUSH3 0x461BCD PUSH1 0xE5 SHL DUP2 MSTORE PUSH1 0x20 PUSH1 0x4 DUP3 ADD MSTORE PUSH1 0x18 PUSH1 0x24 DUP3 ADD MSTORE PUSH32 0x43616E6E6F7420627579206F776E207265636F7264696E670000000000000000 PUSH1 0x44 DUP3 ADD MSTORE PUSH1 0x64 SWAP1 REVERT JUMPDEST PUSH1 0x40 MLOAD PUSH3 0x461BCD PUSH1 0xE5 SHL DUP2 MSTORE PUSH1 0x20 PUSH1 0x4 DUP3 ADD MSTORE PUSH1 0xC PUSH1 0x24 DUP3 ADD MSTORE PUSH12 0x105B1C9958591E481CDBDB19 PUSH1 0xA2 SHL PUSH1 0x44 DUP3 ADD MSTORE PUSH1 0x64 SWAP1 REVERT JUMPDEST CALLVALUE PUSH2 0x103 JUMPI PUSH1 0x0 CALLDATASIZE PUSH1 0x3 NOT ADD SLT PUSH2 0x103 JUMPI PUSH1 0x20 PUSH1 0x7 SLOAD PUSH1 0x40 MLOAD SWAP1 DUP2 MSTORE RETURN JUMPDEST CALLVALUE PUSH2 0x103 JUMPI PUSH1 0x0 CALLDATASIZE PUSH1 0x3 NOT ADD SLT PUSH2 0x103 JUMPI PUSH1 0x2 SLOAD PUSH1 0x40 MLOAD PUSH1 0x1 PUSH1 0x1 PUSH1 0xA0 SHL SUB SWAP1 SWAP2 AND DUP2 MSTORE PUSH1 0x20 SWAP1 RETURN JUMPDEST CALLVALUE PUSH2 0x103 JUMPI PUSH1 0x40 CALLDATASIZE PUSH1 0x3 NOT ADD SLT PUSH2 0x103 JUMPI PUSH2 0x965 PUSH2 0x1B25 JUMP JUMPDEST PUSH1 0x0 SLOAD PUSH1 0x1 PUSH1 0x1 PUSH1 0xA0 SHL SUB SWAP2 SWAP1 PUSH2 0x97F SWAP1 DUP4 AND CALLER EQ PUSH2 0x203F JUMP JUMPDEST AND DUP1 PUSH1 0x0 MSTORE PUSH1 0x4 PUSH1 0x20 MSTORE PUSH1 0x4 PUSH1 0x40 PUSH1 0x0 KECCAK256 ADD PUSH2 0x99E PUSH1 0x24 CALLDATALOAD DUP3 SLOAD PUSH2 0x20DE JUMP JUMPDEST SWAP1 SSTORE DUP1 PUSH1 0x0 MSTORE PUSH1 0x4 PUSH1 0x20 MSTORE PUSH32 0xE523E59B52B7D053AB06B9BE8218D0C6836F8C3D7DB5E4093D445B5BCEAB98A1 PUSH1 0x20 PUSH1 0x4 PUSH1 0x40 PUSH1 0x0 KECCAK256 ADD SLOAD PUSH1 0x40 MLOAD SWAP1 DUP2 MSTORE LOG2 STOP JUMPDEST CALLVALUE PUSH2 0x103 JUMPI PUSH1 0x20 CALLDATASIZE PUSH1 0x3 NOT ADD SLT PUSH2 0x103 JUMPI PUSH1 0x4 CALLDATALOAD PUSH1 0x1 PUSH1 0x1 PUSH1 0x40 SHL SUB DUP2 GT PUSH2 0x103 JUMPI PUSH2 0xA45 PUSH2 0xA36 PUSH1 0x20 PUSH2 0xA23 PUSH2 0xA1C PUSH2 0x37D SWAP6 CALLDATASIZE SWAP1 PUSH1 0x4 ADD PUSH2 0x1AAE JUMP JUMPDEST CALLDATASIZE SWAP2 PUSH2 0x1D90 JUMP JUMPDEST DUP2 PUSH1 0x40 MLOAD SWAP4 DUP3 DUP6 DUP1 SWAP5 MLOAD SWAP4 DUP5 SWAP3 ADD PUSH2 0x1B3B JUMP JUMPDEST DUP2 ADD PUSH1 0x5 DUP2 MSTORE SUB ADD SWAP1 KECCAK256 PUSH2 0x21ED JUMP JUMPDEST PUSH1 0x40 MLOAD SWAP2 DUP3 SWAP2 PUSH1 0x20 DUP4 MSTORE PUSH1 0x20 DUP4 ADD SWAP1 PUSH2 0x1B83 JUMP JUMPDEST CALLVALUE PUSH2 0x103 JUMPI PUSH1 0x20 CALLDATASIZE PUSH1 0x3 NOT ADD SLT PUSH2 0x103 JUMPI PUSH1 0x4 CALLDATALOAD PUSH1 0x1 PUSH1 0x1 PUSH1 0x40 SHL SUB DUP2 GT PUSH2 0x103 JUMPI PUSH2 0xAB4 PUSH1 0x20 PUSH2 0xA91 PUSH2 0x37D SWAP4 CALLDATASIZE SWAP1 PUSH1 0x4 ADD PUSH2 0x1AAE JUMP JUMPDEST SWAP2 SWAP1 PUSH2 0xA9B PUSH2 0x20EB JUMP JUMPDEST POP DUP3 PUSH1 0x40 MLOAD SWAP4 DUP5 SWAP3 DUP4 CALLDATACOPY DUP2 ADD PUSH1 0x3 DUP2 MSTORE SUB ADD SWAP1 KECCAK256 PUSH2 0x2242 JUMP JUMPDEST PUSH1 0x40 MLOAD SWAP2 DUP3 SWAP2 PUSH1 0x20 DUP4 MSTORE PUSH1 0x20 DUP4 ADD SWAP1 PUSH2 0x1BDF JUMP JUMPDEST CALLVALUE PUSH2 0x103 JUMPI PUSH1 0x20 CALLDATASIZE PUSH1 0x3 NOT ADD SLT PUSH2 0x103 JUMPI PUSH2 0xAE1 PUSH2 0x1B25 JUMP JUMPDEST PUSH1 0x7 SLOAD PUSH1 0x1 PUSH1 0x1 PUSH1 0xA0 SHL SUB SWAP2 DUP3 AND SWAP2 PUSH1 0x0 DUP1 JUMPDEST DUP4 DUP2 LT PUSH2 0xB86 JUMPI POP PUSH2 0xB05 SWAP1 PUSH2 0x2309 JUMP JUMPDEST SWAP3 PUSH1 0x0 SWAP2 PUSH1 0x0 JUMPDEST DUP5 DUP2 LT PUSH2 0xB21 JUMPI PUSH1 0x40 MLOAD DUP1 PUSH2 0x37D DUP9 DUP3 PUSH2 0x1CBB JUMP JUMPDEST DUP1 DUP4 DUP4 PUSH1 0x6 PUSH2 0xB3B PUSH2 0xB35 PUSH2 0xB48 SWAP7 PUSH2 0x1F36 JUMP JUMPDEST POP PUSH2 0x2359 JUMP JUMPDEST ADD SLOAD AND EQ PUSH2 0xB4D JUMPI PUSH2 0x2030 JUMP JUMPDEST PUSH2 0xB0C JUMP JUMPDEST PUSH2 0xB80 PUSH2 0xB5C PUSH2 0xB35 DUP4 PUSH2 0x1F36 JUMP JUMPDEST SWAP6 PUSH2 0xB6F PUSH2 0xB69 DUP3 PUSH2 0x2030 JUMP JUMPDEST SWAP8 PUSH2 0x2242 JUMP JUMPDEST PUSH2 0xB79 DUP3 DUP12 PUSH2 0x23EC JUMP JUMPDEST MSTORE DUP9 PUSH2 0x23EC JUMP JUMPDEST POP PUSH2 0x2030 JUMP JUMPDEST DUP5 DUP4 PUSH1 0x6 PUSH2 0xB96 PUSH2 0xB35 DUP6 PUSH2 0x1F36 JUMP JUMPDEST ADD SLOAD AND EQ PUSH2 0xBAD JUMPI JUMPDEST PUSH2 0xBA8 SWAP1 PUSH2 0x2030 JUMP JUMPDEST PUSH2 0xAF4 JUMP JUMPDEST SWAP1 PUSH2 0xBBA PUSH2 0xBA8 SWAP2 PUSH2 0x2030 JUMP JUMPDEST SWAP2 SWAP1 POP PUSH2 0xB9F JUMP JUMPDEST CALLVALUE PUSH2 0x103 JUMPI PUSH1 0xA0 CALLDATASIZE PUSH1 0x3 NOT ADD SLT PUSH2 0x103 JUMPI PUSH1 0x4 CALLDATALOAD PUSH1 0x1 PUSH1 0x1 PUSH1 0x40 SHL SUB DUP2 GT PUSH2 0x103 JUMPI PUSH2 0xBF2 SWAP1 CALLDATASIZE SWAP1 PUSH1 0x4 ADD PUSH2 0x1AAE JUMP JUMPDEST SWAP1 PUSH1 0x24 CALLDATALOAD PUSH1 0x1 PUSH1 0x1 PUSH1 0x40 SHL SUB DUP2 GT PUSH2 0x103 JUMPI PUSH2 0xC12 SWAP1 CALLDATASIZE SWAP1 PUSH1 0x4 ADD PUSH2 0x1AAE JUMP JUMPDEST SWAP1 PUSH1 0x44 CALLDATALOAD PUSH1 0x1 PUSH1 0x1 PUSH1 0x40 SHL SUB DUP2 GT PUSH2 0x103 JUMPI PUSH2 0xC32 SWAP1 CALLDATASIZE SWAP1 PUSH1 0x4 ADD PUSH2 0x1AAE JUMP JUMPDEST SWAP3 SWAP1 SWAP2 PUSH1 0x64 CALLDATALOAD PUSH1 0x1 PUSH1 0x1 PUSH1 0x40 SHL SUB DUP2 GT PUSH2 0x103 JUMPI PUSH2 0xC54 SWAP1 CALLDATASIZE SWAP1 PUSH1 0x4 ADD PUSH2 0x1AAE JUMP JUMPDEST SWAP1 CALLER PUSH1 0x0 MSTORE PUSH1 0x4 PUSH1 0x20 MSTORE PUSH1 0x1 DUP1 PUSH1 0xA0 SHL SUB PUSH1 0x40 PUSH1 0x0 KECCAK256 SLOAD AND ISZERO PUSH2 0x1544 JUMPI PUSH2 0xC8F PUSH1 0x40 MLOAD DUP10 DUP10 DUP3 CALLDATACOPY PUSH1 0x20 DUP2 DUP12 DUP2 ADD PUSH1 0x3 DUP2 MSTORE SUB ADD SWAP1 KECCAK256 SLOAD PUSH2 0x1DD6 JUMP JUMPDEST PUSH2 0x150B JUMPI PUSH2 0xD1E SWAP2 PUSH2 0xCCC PUSH1 0x40 MLOAD SWAP5 PUSH2 0xCA7 DUP7 PUSH2 0x1D54 JUMP JUMPDEST PUSH1 0x0 DUP7 MSTORE PUSH1 0x40 MLOAD SWAP7 PUSH2 0xCB8 DUP9 PUSH2 0x1D38 JUMP JUMPDEST PUSH2 0xCC3 CALLDATASIZE DUP14 DUP14 PUSH2 0x1D90 JUMP JUMPDEST DUP9 MSTORE CALLDATASIZE SWAP2 PUSH2 0x1D90 JUMP JUMPDEST PUSH1 0x20 DUP7 ADD MSTORE PUSH2 0xCDC CALLDATASIZE DUP9 DUP9 PUSH2 0x1D90 JUMP JUMPDEST PUSH1 0x40 DUP7 ADD MSTORE TIMESTAMP PUSH1 0x60 DUP7 ADD MSTORE PUSH1 0x40 MLOAD PUSH2 0xCF3 DUP2 PUSH2 0x1D54 JUMP JUMPDEST PUSH1 0x0 DUP2 MSTORE PUSH1 0x80 DUP7 ADD MSTORE PUSH1 0x40 MLOAD PUSH2 0xD08 DUP2 PUSH2 0x1D54 JUMP JUMPDEST PUSH1 0x0 DUP2 MSTORE PUSH1 0xA0 DUP7 ADD MSTORE CALLER PUSH1 0xC0 DUP7 ADD MSTORE CALLDATASIZE SWAP2 PUSH2 0x1D90 JUMP JUMPDEST PUSH1 0xE0 DUP4 ADD MSTORE PUSH1 0x84 CALLDATALOAD PUSH2 0x100 DUP4 ADD MSTORE PUSH1 0x0 PUSH2 0x120 DUP4 ADD MSTORE PUSH1 0x0 PUSH2 0x140 DUP4 ADD MSTORE PUSH2 0x160 DUP3 ADD MSTORE PUSH1 0x40 MLOAD DUP6 DUP6 DUP3 CALLDATACOPY PUSH1 0x20 DUP2 DUP8 DUP2 ADD PUSH1 0x3 DUP2 MSTORE SUB ADD SWAP1 KECCAK256 DUP2 MLOAD DUP1 MLOAD SWAP1 PUSH1 0x1 PUSH1 0x1 PUSH1 0x40 SHL SUB DUP3 GT PUSH2 0x83A JUMPI DUP2 SWAP1 PUSH2 0xD7A DUP3 PUSH2 0x5D8 DUP7 SLOAD PUSH2 0x1DD6 JUMP JUMPDEST PUSH1 0x20 SWAP1 PUSH1 0x1F DUP4 GT PUSH1 0x1 EQ PUSH2 0x149F JUMPI PUSH1 0x0 SWAP3 PUSH2 0x1494 JUMPI JUMPDEST POP POP DUP2 PUSH1 0x1 SHL SWAP2 PUSH1 0x0 NOT SWAP1 PUSH1 0x3 SHL SHR NOT AND OR DUP2 SSTORE JUMPDEST PUSH1 0x20 DUP3 ADD MLOAD DUP1 MLOAD SWAP1 PUSH1 0x1 PUSH1 0x1 PUSH1 0x40 SHL SUB DUP3 GT PUSH2 0x83A JUMPI DUP2 SWAP1 PUSH2 0xDD7 DUP3 PUSH2 0xDCE PUSH1 0x1 DUP8 ADD SLOAD PUSH2 0x1DD6 JUMP JUMPDEST PUSH1 0x1 DUP8 ADD PUSH2 0x1E27 JUMP JUMPDEST PUSH1 0x20 SWAP1 PUSH1 0x1F DUP4 GT PUSH1 0x1 EQ PUSH2 0x1422 JUMPI PUSH1 0x0 SWAP3 PUSH2 0x1417 JUMPI JUMPDEST POP POP DUP2 PUSH1 0x1 SHL SWAP2 PUSH1 0x0 NOT SWAP1 PUSH1 0x3 SHL SHR NOT AND OR PUSH1 0x1 DUP3 ADD SSTORE JUMPDEST PUSH1 0x40 DUP3 ADD MLOAD DUP1 MLOAD SWAP1 PUSH1 0x1 PUSH1 0x1 PUSH1 0x40 SHL SUB DUP3 GT PUSH2 0x83A JUMPI DUP2 SWAP1 PUSH2 0xE37 DUP3 PUSH2 0xE2E PUSH1 0x2 DUP8 ADD SLOAD PUSH2 0x1DD6 JUMP JUMPDEST PUSH1 0x2 DUP8 ADD PUSH2 0x1E27 JUMP JUMPDEST PUSH1 0x20 SWAP1 PUSH1 0x1F DUP4 GT PUSH1 0x1 EQ PUSH2 0x13A5 JUMPI PUSH1 0x0 SWAP3 PUSH2 0x139A JUMPI JUMPDEST POP POP DUP2 PUSH1 0x1 SHL SWAP2 PUSH1 0x0 NOT SWAP1 PUSH1 0x3 SHL SHR NOT AND OR PUSH1 0x2 DUP3 ADD SSTORE JUMPDEST PUSH1 0x60 DUP3 ADD MLOAD PUSH1 0x3 DUP3 ADD SSTORE PUSH1 0x80 DUP3 ADD MLOAD DUP1 MLOAD SWAP1 PUSH1 0x1 PUSH1 0x1 PUSH1 0x40 SHL SUB DUP3 GT PUSH2 0x83A JUMPI DUP2 SWAP1 PUSH2 0xEA1 DUP3 PUSH2 0xE98 PUSH1 0x4 DUP8 ADD SLOAD PUSH2 0x1DD6 JUMP JUMPDEST PUSH1 0x4 DUP8 ADD PUSH2 0x1E27 JUMP JUMPDEST PUSH1 0x20 SWAP1 PUSH1 0x1F DUP4 GT PUSH1 0x1 EQ PUSH2 0x1328 JUMPI PUSH1 0x0 SWAP3 PUSH2 0x131D JUMPI JUMPDEST POP POP DUP2 PUSH1 0x1 SHL SWAP2 PUSH1 0x0 NOT SWAP1 PUSH1 0x3 SHL SHR NOT AND OR PUSH1 0x4 DUP3 ADD SSTORE JUMPDEST PUSH1 0xA0 DUP3 ADD MLOAD DUP1 MLOAD SWAP1 PUSH1 0x1 PUSH1 0x1 PUSH1 0x40 SHL SUB DUP3 GT PUSH2 0x83A JUMPI DUP2 SWAP1 PUSH2 0xF01 DUP3 PUSH2 0xEF8 PUSH1 0x5 DUP8 ADD SLOAD PUSH2 0x1DD6 JUMP JUMPDEST PUSH1 0x5 DUP8 ADD PUSH2 0x1E27 JUMP JUMPDEST PUSH1 0x20 SWAP1 PUSH1 0x1F DUP4 GT PUSH1 0x1 EQ PUSH2 0x12AB JUMPI PUSH1 0x0 SWAP3 PUSH2 0x12A0 JUMPI JUMPDEST POP POP DUP2 PUSH1 0x1 SHL SWAP2 PUSH1 0x0 NOT SWAP1 PUSH1 0x3 SHL SHR NOT AND OR PUSH1 0x5 DUP3 ADD SSTORE JUMPDEST PUSH1 0x6 DUP2 ADD PUSH1 0x1 DUP1 PUSH1 0xA0 SHL SUB PUSH1 0xC0 DUP5 ADD MLOAD AND PUSH1 0x1 PUSH1 0x1 PUSH1 0x60 SHL SUB PUSH1 0xA0 SHL DUP3 SLOAD AND OR SWAP1 SSTORE PUSH1 0xE0 DUP3 ADD MLOAD DUP1 MLOAD SWAP1 PUSH1 0x1 PUSH1 0x1 PUSH1 0x40 SHL SUB DUP3 GT PUSH2 0x83A JUMPI PUSH2 0xF81 DUP3 PUSH2 0xF78 PUSH1 0x7 DUP7 ADD SLOAD PUSH2 0x1DD6 JUMP JUMPDEST PUSH1 0x7 DUP7 ADD PUSH2 0x1E27 JUMP JUMPDEST PUSH1 0x20 SWAP1 PUSH1 0x1F DUP4 GT PUSH1 0x1 EQ PUSH2 0x122A JUMPI SWAP2 DUP1 PUSH2 0x160 SWAP5 SWAP3 PUSH1 0xA SWAP5 PUSH1 0x0 SWAP3 PUSH2 0x121F JUMPI JUMPDEST POP POP DUP2 PUSH1 0x1 SHL SWAP2 PUSH1 0x0 NOT SWAP1 PUSH1 0x3 SHL SHR NOT AND OR PUSH1 0x7 DUP3 ADD SSTORE JUMPDEST PUSH2 0x100 DUP5 ADD MLOAD PUSH1 0x8 DUP3 ADD SSTORE PUSH2 0x1010 PUSH1 0x9 DUP3 ADD PUSH2 0xFE8 PUSH2 0x120 DUP8 ADD MLOAD ISZERO ISZERO DUP3 SWAP1 PUSH1 0xFF DUP1 NOT DUP4 SLOAD AND SWAP2 ISZERO ISZERO AND OR SWAP1 SSTORE JUMP JUMPDEST PUSH2 0x140 DUP7 ADD MLOAD DUP2 SLOAD PUSH2 0x100 PUSH1 0x1 PUSH1 0xA8 SHL SUB NOT AND PUSH1 0x8 SWAP2 SWAP1 SWAP2 SHL PUSH2 0x100 PUSH1 0x1 PUSH1 0xA8 SHL SUB AND OR SWAP1 SSTORE JUMP JUMPDEST ADD SWAP2 ADD MLOAD PUSH1 0x20 DUP2 MLOAD SWAP2 PUSH2 0x1023 DUP4 DUP6 PUSH2 0x1EA6 JUMP JUMPDEST ADD SWAP2 PUSH1 0x0 MSTORE PUSH1 0x20 PUSH1 0x0 KECCAK256 SWAP2 PUSH1 0x0 SWAP1 JUMPDEST DUP3 DUP3 LT PUSH2 0x113C JUMPI POP POP POP POP PUSH1 0x7 SLOAD SWAP2 PUSH1 0x1 PUSH1 0x40 SHL SWAP3 DUP4 DUP2 LT ISZERO PUSH2 0x83A JUMPI DUP1 PUSH1 0x1 PUSH2 0x105F SWAP3 ADD PUSH1 0x7 SSTORE PUSH2 0x1F36 JUMP JUMPDEST PUSH2 0x1126 JUMPI PUSH2 0x1078 SWAP3 PUSH1 0x20 SWAP3 PUSH2 0xA1C DUP9 DUP9 PUSH2 0xA23 SWAP6 PUSH2 0x1F6D JUMP JUMPDEST DUP2 ADD PUSH1 0x5 DUP2 MSTORE SUB ADD SWAP1 KECCAK256 SWAP1 DUP2 SLOAD SWAP1 DUP2 LT ISZERO PUSH2 0x83A JUMPI PUSH1 0x1 DUP2 ADD DUP1 DUP4 SSTORE DUP2 LT ISZERO PUSH2 0x1110 JUMPI DUP3 DUP5 SWAP2 PUSH2 0x10B0 SWAP4 PUSH1 0x0 MSTORE PUSH1 0x20 PUSH1 0x0 KECCAK256 ADD PUSH2 0x1F6D JUMP JUMPDEST CALLER PUSH1 0x0 MSTORE PUSH1 0x4 PUSH1 0x20 MSTORE PUSH1 0x5 PUSH1 0x40 PUSH1 0x0 KECCAK256 ADD PUSH2 0x10CB DUP2 SLOAD PUSH2 0x2030 JUMP JUMPDEST SWAP1 SSTORE DUP2 PUSH1 0x40 MLOAD SWAP3 DUP4 SWAP3 DUP4 CALLDATACOPY DUP2 ADD PUSH1 0x0 DUP2 MSTORE SUB SWAP1 KECCAK256 PUSH1 0x40 MLOAD SWAP1 PUSH1 0x84 CALLDATALOAD DUP3 MSTORE PUSH32 0xB444C12BA330AC6B032FB2CD3E6CAF87E4D8928C467BE72F33933B43C36BA87 PUSH1 0x20 CALLER SWAP4 LOG3 STOP JUMPDEST PUSH4 0x4E487B71 PUSH1 0xE0 SHL PUSH1 0x0 MSTORE PUSH1 0x32 PUSH1 0x4 MSTORE PUSH1 0x24 PUSH1 0x0 REVERT JUMPDEST PUSH4 0x4E487B71 PUSH1 0xE0 SHL PUSH1 0x0 MSTORE PUSH1 0x0 PUSH1 0x4 MSTORE PUSH1 0x24 PUSH1 0x0 REVERT JUMPDEST DUP1 MLOAD DUP1 MLOAD SWAP1 PUSH1 0x1 PUSH1 0x1 PUSH1 0x40 SHL SUB DUP3 GT PUSH2 0x83A JUMPI PUSH2 0x1163 DUP3 PUSH2 0x115D DUP9 SLOAD PUSH2 0x1DD6 JUMP JUMPDEST DUP9 PUSH2 0x1E27 JUMP JUMPDEST PUSH1 0x20 SWAP1 PUSH1 0x1F DUP4 GT PUSH1 0x1 EQ PUSH2 0x11AF JUMPI SWAP3 DUP3 PUSH1 0x1 SWAP5 SWAP4 PUSH1 0x20 SWAP4 DUP7 SWAP6 PUSH1 0x0 SWAP3 PUSH2 0x11A4 JUMPI JUMPDEST POP POP PUSH1 0x0 NOT PUSH1 0x3 DUP4 SWAP1 SHL SHR NOT AND SWAP1 DUP5 SHL OR DUP8 SSTORE JUMPDEST ADD SWAP5 ADD SWAP2 ADD SWAP1 SWAP3 PUSH2 0x1032 JUMP JUMPDEST ADD MLOAD SWAP1 POP DUP14 DUP1 PUSH2 0x1184 JUMP JUMPDEST SWAP1 DUP7 PUSH1 0x0 MSTORE PUSH1 0x20 PUSH1 0x0 KECCAK256 SWAP2 PUSH1 0x0 JUMPDEST PUSH1 0x1F NOT DUP6 AND DUP2 LT PUSH2 0x1207 JUMPI POP DUP4 PUSH1 0x20 SWAP4 PUSH1 0x1 SWAP7 SWAP4 DUP8 SWAP7 SWAP4 DUP8 SWAP5 PUSH1 0x1F NOT DUP2 AND LT PUSH2 0x11EE JUMPI JUMPDEST POP POP POP DUP2 SHL ADD DUP8 SSTORE PUSH2 0x1198 JUMP JUMPDEST ADD MLOAD PUSH1 0x0 NOT PUSH1 0xF8 DUP5 PUSH1 0x3 SHL AND SHR NOT AND SWAP1 SSTORE DUP14 DUP1 DUP1 PUSH2 0x11E1 JUMP JUMPDEST SWAP2 SWAP3 PUSH1 0x20 PUSH1 0x1 DUP2 SWAP3 DUP7 DUP6 ADD MLOAD DUP2 SSTORE ADD SWAP5 ADD SWAP3 ADD PUSH2 0x11BD JUMP JUMPDEST ADD MLOAD SWAP1 POP DUP11 DUP1 PUSH2 0xFA1 JUMP JUMPDEST SWAP1 PUSH1 0x7 DUP5 ADD PUSH1 0x0 MSTORE PUSH1 0x20 PUSH1 0x0 KECCAK256 SWAP2 PUSH1 0x0 JUMPDEST PUSH1 0x1F NOT DUP6 AND DUP2 LT PUSH2 0x1288 JUMPI POP SWAP3 PUSH2 0x160 SWAP5 SWAP3 PUSH1 0x1 SWAP3 PUSH1 0xA SWAP6 DUP4 PUSH1 0x1F NOT DUP2 AND LT PUSH2 0x126F JUMPI JUMPDEST POP POP POP DUP2 SHL ADD PUSH1 0x7 DUP3 ADD SSTORE PUSH2 0xFB9 JUMP JUMPDEST ADD MLOAD PUSH1 0x0 NOT PUSH1 0xF8 DUP5 PUSH1 0x3 SHL AND SHR NOT AND SWAP1 SSTORE DUP11 DUP1 DUP1 PUSH2 0x125F JUMP JUMPDEST SWAP2 SWAP3 PUSH1 0x20 PUSH1 0x1 DUP2 SWAP3 DUP7 DUP6 ADD MLOAD DUP2 SSTORE ADD SWAP5 ADD SWAP3 ADD PUSH2 0x123B JUMP JUMPDEST ADD MLOAD SWAP1 POP DUP9 DUP1 PUSH2 0xF17 JUMP JUMPDEST SWAP3 POP PUSH1 0x5 DUP5 ADD PUSH1 0x0 MSTORE PUSH1 0x20 PUSH1 0x0 KECCAK256 SWAP1 PUSH1 0x0 SWAP4 JUMPDEST PUSH1 0x1F NOT DUP5 AND DUP6 LT PUSH2 0x1302 JUMPI PUSH1 0x1 SWAP5 POP DUP4 PUSH1 0x1F NOT DUP2 AND LT PUSH2 0x12E9 JUMPI JUMPDEST POP POP POP DUP2 SHL ADD PUSH1 0x5 DUP3 ADD SSTORE PUSH2 0xF2F JUMP JUMPDEST ADD MLOAD PUSH1 0x0 NOT PUSH1 0xF8 DUP5 PUSH1 0x3 SHL AND SHR NOT AND SWAP1 SSTORE DUP9 DUP1 DUP1 PUSH2 0x12D9 JUMP JUMPDEST DUP2 DUP2 ADD MLOAD DUP4 SSTORE PUSH1 0x20 SWAP5 DUP6 ADD SWAP5 PUSH1 0x1 SWAP1 SWAP4 ADD SWAP3 SWAP1 SWAP2 ADD SWAP1 PUSH2 0x12BE JUMP JUMPDEST ADD MLOAD SWAP1 POP DUP9 DUP1 PUSH2 0xEB7 JUMP JUMPDEST SWAP3 POP PUSH1 0x4 DUP5 ADD PUSH1 0x0 MSTORE PUSH1 0x20 PUSH1 0x0 KECCAK256 SWAP1 PUSH1 0x0 SWAP4 JUMPDEST PUSH1 0x1F NOT DUP5 AND DUP6 LT PUSH2 0x137F JUMPI PUSH1 0x1 SWAP5 POP DUP4 PUSH1 0x1F NOT DUP2 AND LT PUSH2 0x1366 JUMPI JUMPDEST POP POP POP DUP2 SHL ADD PUSH1 0x4 DUP3 ADD SSTORE PUSH2 0xECF JUMP JUMPDEST ADD MLOAD PUSH1 0x0 NOT PUSH1 0xF8 DUP5 PUSH1 0x3 SHL AND SHR NOT AND SWAP1 SSTORE DUP9 DUP1 DUP1 PUSH2 0x1356 JUMP JUMPDEST DUP2 DUP2 ADD MLOAD DUP4 SSTORE PUSH1 0x20 SWAP5 DUP6 ADD SWAP5 PUSH1 0x1 SWAP1 SWAP4 ADD SWAP3 SWAP1 SWAP2 ADD SWAP1 PUSH2 0x133B JUMP JUMPDEST ADD MLOAD SWAP1 POP DUP9 DUP1 PUSH2 0xE4D JUMP JUMPDEST SWAP3 POP PUSH1 0x2 DUP5 ADD PUSH1 0x0 MSTORE PUSH1 0x20 PUSH1 0x0 KECCAK256 SWAP1 PUSH1 0x0 SWAP4 JUMPDEST PUSH1 0x1F NOT DUP5 AND DUP6 LT PUSH2 0x13FC JUMPI PUSH1 0x1 SWAP5 POP DUP4 PUSH1 0x1F NOT DUP2 AND LT PUSH2 0x13E3 JUMPI JUMPDEST POP POP POP DUP2 SHL ADD PUSH1 0x2 DUP3 ADD SSTORE PUSH2 0xE65 JUMP JUMPDEST ADD MLOAD PUSH1 0x0 NOT PUSH1 0xF8 DUP5 PUSH1 0x3 SHL AND SHR NOT AND SWAP1 SSTORE DUP9 DUP1 DUP1 PUSH2 0x13D3 JUMP JUMPDEST DUP2 DUP2 ADD MLOAD DUP4 SSTORE PUSH1 0x20 SWAP5 DUP6 ADD SWAP5 PUSH1 0x1 SWAP1 SWAP4 ADD SWAP3 SWAP1 SWAP2 ADD SWAP1 PUSH2 0x13B8 JUMP JUMPDEST ADD MLOAD SWAP1 POP DUP9 DUP1 PUSH2 0xDED JUMP JUMPDEST SWAP3 POP PUSH1 0x1 DUP5 ADD PUSH1 0x0 MSTORE PUSH1 0x20 PUSH1 0x0 KECCAK256 SWAP1 PUSH1 0x0 SWAP4 JUMPDEST PUSH1 0x1F NOT DUP5 AND DUP6 LT PUSH2 0x1479 JUMPI PUSH1 0x1 SWAP5 POP DUP4 PUSH1 0x1F NOT DUP2 AND LT PUSH2 0x1460 JUMPI JUMPDEST POP POP POP DUP2 SHL ADD PUSH1 0x1 DUP3 ADD SSTORE PUSH2 0xE05 JUMP JUMPDEST ADD MLOAD PUSH1 0x0 NOT PUSH1 0xF8 DUP5 PUSH1 0x3 SHL AND SHR NOT AND SWAP1 SSTORE DUP9 DUP1 DUP1 PUSH2 0x1450 JUMP JUMPDEST DUP2 DUP2 ADD MLOAD DUP4 SSTORE PUSH1 0x20 SWAP5 DUP6 ADD SWAP5 PUSH1 0x1 SWAP1 SWAP4 ADD SWAP3 SWAP1 SWAP2 ADD SWAP1 PUSH2 0x1435 JUMP JUMPDEST ADD MLOAD SWAP1 POP DUP9 DUP1 PUSH2 0xD90 JUMP JUMPDEST SWAP3 POP DUP4 PUSH1 0x0 MSTORE PUSH1 0x20 PUSH1 0x0 KECCAK256 SWAP1 PUSH1 0x0 SWAP4 JUMPDEST PUSH1 0x1F NOT DUP5 AND DUP6 LT PUSH2 0x14F0 JUMPI PUSH1 0x1 SWAP5 POP DUP4 PUSH1 0x1F NOT DUP2 AND LT PUSH2 0x14D7 JUMPI JUMPDEST POP POP POP DUP2 SHL ADD DUP2 SSTORE PUSH2 0xDA5 JUMP JUMPDEST ADD MLOAD PUSH1 0x0 NOT PUSH1 0xF8 DUP5 PUSH1 0x3 SHL AND SHR NOT AND SWAP1 SSTORE DUP9 DUP1 DUP1 PUSH2 0x14CA JUMP JUMPDEST DUP2 DUP2 ADD MLOAD DUP4 SSTORE PUSH1 0x20 SWAP5 DUP6 ADD SWAP5 PUSH1 0x1 SWAP1 SWAP4 ADD SWAP3 SWAP1 SWAP2 ADD SWAP1 PUSH2 0x14AF JUMP JUMPDEST PUSH1 0x40 MLOAD PUSH3 0x461BCD PUSH1 0xE5 SHL DUP2 MSTORE PUSH1 0x20 PUSH1 0x4 DUP3 ADD MSTORE PUSH1 0x11 PUSH1 0x24 DUP3 ADD MSTORE PUSH17 0x494420616C726561647920657869737473 PUSH1 0x78 SHL PUSH1 0x44 DUP3 ADD MSTORE PUSH1 0x64 SWAP1 REVERT JUMPDEST PUSH1 0x40 MLOAD PUSH3 0x461BCD PUSH1 0xE5 SHL DUP2 MSTORE PUSH1 0x20 PUSH1 0x4 DUP3 ADD MSTORE PUSH1 0x17 PUSH1 0x24 DUP3 ADD MSTORE PUSH32 0x5265676973746572206964656E74697479206669727374000000000000000000 PUSH1 0x44 DUP3 ADD MSTORE PUSH1 0x64 SWAP1 REVERT JUMPDEST CALLVALUE PUSH2 0x103 JUMPI PUSH1 0x20 DUP1 PUSH1 0x3 NOT CALLDATASIZE ADD SLT PUSH2 0x103 JUMPI PUSH2 0x15A3 PUSH2 0x1B25 JUMP JUMPDEST SWAP1 PUSH1 0x0 PUSH1 0xC0 PUSH1 0x40 MLOAD PUSH2 0x15B4 DUP2 PUSH2 0x1D1D JUMP JUMPDEST DUP3 DUP2 MSTORE PUSH1 0x60 DUP5 DUP3 ADD MSTORE PUSH1 0x60 PUSH1 0x40 DUP3 ADD MSTORE DUP3 PUSH1 0x60 DUP3 ADD MSTORE DUP3 PUSH1 0x80 DUP3 ADD MSTORE DUP3 PUSH1 0xA0 DUP3 ADD MSTORE ADD MSTORE PUSH1 0x1 DUP1 PUSH1 0xA0 SHL SUB DUP1 SWAP3 AND PUSH1 0x0 MSTORE PUSH1 0x4 DUP2 MSTORE PUSH1 0x40 PUSH1 0x0 KECCAK256 PUSH1 0x40 MLOAD SWAP2 PUSH2 0x15FB DUP4 PUSH2 0x1D1D JUMP JUMPDEST DUP4 DUP3 SLOAD AND DUP4 MSTORE PUSH2 0x160D PUSH1 0x1 DUP4 ADD PUSH2 0x2149 JUMP JUMPDEST SWAP2 DUP2 DUP5 ADD SWAP3 DUP4 MSTORE PUSH2 0x1620 PUSH1 0x2 DUP3 ADD PUSH2 0x2149 JUMP JUMPDEST SWAP3 PUSH1 0x40 DUP6 ADD SWAP4 DUP5 MSTORE PUSH2 0x169B PUSH1 0xFF PUSH1 0x3 DUP5 ADD SLOAD AND SWAP5 PUSH1 0x60 DUP8 ADD SWAP6 ISZERO ISZERO DUP7 MSTORE PUSH2 0x1688 PUSH1 0x4 DUP6 ADD SLOAD SWAP4 PUSH1 0x80 DUP10 ADD SWAP5 DUP6 MSTORE PUSH1 0x6 PUSH1 0x5 DUP8 ADD SLOAD SWAP7 PUSH1 0xA0 DUP12 ADD SWAP8 DUP9 MSTORE ADD SLOAD SWAP7 PUSH1 0xC0 DUP11 ADD SWAP8 DUP9 MSTORE PUSH1 0x40 MLOAD SWAP11 DUP12 SWAP11 DUP3 DUP13 MSTORE MLOAD AND SWAP1 DUP11 ADD MSTORE MLOAD PUSH1 0xE0 PUSH1 0x40 DUP11 ADD MSTORE PUSH2 0x100 DUP10 ADD SWAP1 PUSH2 0x1B5E JUMP JUMPDEST SWAP1 MLOAD DUP8 DUP3 SUB PUSH1 0x1F NOT ADD PUSH1 0x60 DUP10 ADD MSTORE PUSH2 0x1B5E JUMP JUMPDEST SWAP4 MLOAD ISZERO ISZERO PUSH1 0x80 DUP7 ADD MSTORE MLOAD PUSH1 0xA0 DUP6 ADD MSTORE MLOAD PUSH1 0xC0 DUP5 ADD MSTORE MLOAD PUSH1 0xE0 DUP4 ADD MSTORE SUB SWAP1 RETURN JUMPDEST CALLVALUE PUSH2 0x103 JUMPI PUSH1 0x40 CALLDATASIZE PUSH1 0x3 NOT ADD SLT PUSH2 0x103 JUMPI PUSH1 0x4 CALLDATALOAD PUSH1 0x1 PUSH1 0x1 PUSH1 0x40 SHL SUB DUP2 GT PUSH2 0x103 JUMPI PUSH2 0x16EA SWAP1 CALLDATASIZE SWAP1 PUSH1 0x4 ADD PUSH2 0x1AAE JUMP JUMPDEST SWAP1 PUSH1 0x1 PUSH1 0x1 PUSH1 0xA0 SHL SUB SWAP1 PUSH1 0x24 CALLDATALOAD DUP3 DUP2 AND DUP2 SUB PUSH2 0x103 JUMPI PUSH2 0x1719 PUSH1 0x20 SWAP5 PUSH2 0x556 PUSH1 0x40 MLOAD SWAP4 DUP5 SWAP3 DUP9 DUP5 ADD SWAP7 DUP8 PUSH2 0x20C0 JUMP JUMPDEST MLOAD SWAP1 KECCAK256 PUSH1 0x0 MSTORE PUSH1 0x6 DUP3 MSTORE PUSH1 0x1 PUSH1 0x40 PUSH1 0x0 KECCAK256 ADD SLOAD AND ISZERO ISZERO PUSH1 0x40 MLOAD SWAP1 DUP2 MSTORE RETURN JUMPDEST CALLVALUE PUSH2 0x103 JUMPI PUSH2 0x1745 CALLDATASIZE PUSH2 0x1ADB JUMP JUMPDEST SWAP3 SWAP1 SWAP4 CALLER PUSH1 0x0 MSTORE PUSH1 0x4 PUSH1 0x20 MSTORE PUSH1 0x1 DUP1 PUSH1 0xA0 SHL SUB SWAP1 DUP2 PUSH1 0x40 PUSH1 0x0 KECCAK256 SLOAD AND PUSH2 0x1A77 JUMPI POP DUP3 ISZERO PUSH2 0x1A3D JUMPI DUP4 ISZERO PUSH2 0x1A35 JUMPI PUSH1 0x19 SWAP5 JUMPDEST PUSH1 0xFF PUSH1 0x40 MLOAD SWAP7 PUSH2 0x1785 DUP9 PUSH2 0x1D1D JUMP JUMPDEST CALLER DUP9 MSTORE PUSH2 0x17A6 PUSH2 0x1796 CALLDATASIZE DUP9 DUP9 PUSH2 0x1D90 JUMP JUMPDEST SWAP4 PUSH1 0x20 DUP11 ADD SWAP5 DUP6 MSTORE DUP9 CALLDATASIZE SWAP2 PUSH2 0x1D90 JUMP JUMPDEST PUSH1 0x40 DUP10 ADD MSTORE DUP7 ISZERO ISZERO PUSH1 0x60 DUP10 ADD MSTORE AND PUSH1 0x80 DUP8 ADD MSTORE PUSH1 0x0 PUSH1 0xA0 DUP8 ADD MSTORE PUSH1 0x0 PUSH1 0xC0 DUP8 ADD MSTORE CALLER PUSH1 0x0 MSTORE PUSH1 0x4 PUSH1 0x20 MSTORE PUSH1 0x40 PUSH1 0x0 KECCAK256 SWAP2 DUP7 MLOAD AND PUSH1 0x1 PUSH1 0x1 PUSH1 0x60 SHL SUB PUSH1 0xA0 SHL DUP4 SLOAD AND OR DUP3 SSTORE MLOAD SWAP5 DUP6 MLOAD SWAP6 PUSH1 0x1 PUSH1 0x1 PUSH1 0x40 SHL SUB SWAP7 DUP8 DUP2 GT PUSH2 0x83A JUMPI DUP1 PUSH1 0x1 DUP6 ADD SWAP3 PUSH2 0x1813 DUP3 PUSH2 0x5D8 DUP7 SLOAD PUSH2 0x1DD6 JUMP JUMPDEST PUSH1 0x20 SWAP1 PUSH1 0x1F DUP4 GT PUSH1 0x1 EQ PUSH2 0x19CF JUMPI PUSH1 0x0 SWAP3 PUSH2 0x19C4 JUMPI JUMPDEST POP POP DUP2 PUSH1 0x1 SHL SWAP2 PUSH1 0x0 NOT SWAP1 PUSH1 0x3 SHL SHR NOT AND OR SWAP1 SSTORE JUMPDEST PUSH1 0x40 DUP2 ADD MLOAD SWAP6 DUP7 MLOAD SWAP1 DUP2 GT PUSH2 0x83A JUMPI PUSH2 0x1867 DUP2 PUSH2 0x185E PUSH1 0x2 DUP7 ADD SLOAD PUSH2 0x1DD6 JUMP JUMPDEST PUSH1 0x2 DUP7 ADD PUSH2 0x1E27 JUMP JUMPDEST PUSH1 0x20 PUSH1 0x1F DUP3 GT PUSH1 0x1 EQ PUSH2 0x1929 JUMPI PUSH2 0x190E SWAP5 SWAP4 SWAP3 DUP3 PUSH1 0x6 SWAP4 PUSH1 0xC0 SWAP4 PUSH32 0x4AB0314C8A84EB15ACD288A1E7AB89A8DA3FC57C9B2EA0CF20071209ADD7CC69 SWAP11 SWAP12 PUSH1 0x0 SWAP3 PUSH2 0x191E JUMPI JUMPDEST POP POP DUP2 PUSH1 0x1 SHL SWAP2 PUSH1 0x0 NOT SWAP1 PUSH1 0x3 SHL SHR NOT AND OR PUSH1 0x2 DUP6 ADD SSTORE JUMPDEST PUSH2 0x18E3 PUSH1 0x60 DUP3 ADD MLOAD ISZERO ISZERO PUSH1 0x3 DUP7 ADD SWAP1 PUSH1 0xFF DUP1 NOT DUP4 SLOAD AND SWAP2 ISZERO ISZERO AND OR SWAP1 SSTORE JUMP JUMPDEST PUSH1 0x80 DUP2 ADD MLOAD PUSH1 0x4 DUP6 ADD SSTORE PUSH1 0xA0 DUP2 ADD MLOAD PUSH1 0x5 DUP6 ADD SSTORE ADD MLOAD SWAP2 ADD SSTORE PUSH1 0x40 MLOAD SWAP3 PUSH1 0x40 DUP5 MSTORE PUSH1 0x40 DUP5 ADD SWAP2 PUSH2 0x1E6E JUMP JUMPDEST SWAP3 ISZERO ISZERO PUSH1 0x20 DUP3 ADD MSTORE DUP1 CALLER SWAP4 SUB SWAP1 LOG2 STOP JUMPDEST ADD MLOAD SWAP1 POP DUP12 DUP1 PUSH2 0x18AC JUMP JUMPDEST PUSH1 0x2 DUP5 ADD PUSH1 0x0 MSTORE PUSH1 0x20 PUSH1 0x0 KECCAK256 SWAP8 PUSH1 0x0 JUMPDEST PUSH1 0x1F NOT DUP5 AND DUP2 LT PUSH2 0x19AC JUMPI POP SWAP3 PUSH1 0x1 DUP4 PUSH32 0x4AB0314C8A84EB15ACD288A1E7AB89A8DA3FC57C9B2EA0CF20071209ADD7CC69 SWAP10 SWAP11 PUSH1 0xC0 SWAP5 PUSH2 0x190E SWAP10 SWAP9 SWAP8 PUSH1 0x6 SWAP8 PUSH1 0x1F NOT DUP2 AND LT PUSH2 0x1993 JUMPI JUMPDEST POP POP POP DUP2 SHL ADD PUSH1 0x2 DUP6 ADD SSTORE PUSH2 0x18C4 JUMP JUMPDEST ADD MLOAD PUSH1 0x0 NOT PUSH1 0xF8 DUP5 PUSH1 0x3 SHL AND SHR NOT AND SWAP1 SSTORE DUP12 DUP1 DUP1 PUSH2 0x1983 JUMP JUMPDEST DUP3 DUP3 ADD MLOAD DUP11 SSTORE PUSH1 0x1 SWAP1 SWAP10 ADD SWAP9 PUSH1 0x20 SWAP3 DUP4 ADD SWAP3 ADD PUSH2 0x1939 JUMP JUMPDEST ADD MLOAD SWAP1 POP DUP10 DUP1 PUSH2 0x1829 JUMP JUMPDEST PUSH1 0x0 DUP6 DUP2 MSTORE PUSH1 0x20 DUP2 KECCAK256 SWAP4 POP PUSH1 0x1F NOT DUP6 AND SWAP1 JUMPDEST DUP2 DUP2 LT PUSH2 0x1A1D JUMPI POP SWAP1 DUP5 PUSH1 0x1 SWAP6 SWAP5 SWAP4 SWAP3 LT PUSH2 0x1A04 JUMPI JUMPDEST POP POP POP DUP2 SHL ADD SWAP1 SSTORE PUSH2 0x183E JUMP JUMPDEST ADD MLOAD PUSH1 0x0 NOT PUSH1 0xF8 DUP5 PUSH1 0x3 SHL AND SHR NOT AND SWAP1 SSTORE DUP10 DUP1 DUP1 PUSH2 0x19F7 JUMP JUMPDEST SWAP3 SWAP4 PUSH1 0x20 PUSH1 0x1 DUP2 SWAP3 DUP8 DUP7 ADD MLOAD DUP2 SSTORE ADD SWAP6 ADD SWAP4 ADD PUSH2 0x19E1 JUMP JUMPDEST PUSH1 0xA SWAP5 PUSH2 0x1776 JUMP JUMPDEST PUSH1 0x40 MLOAD PUSH3 0x461BCD PUSH1 0xE5 SHL DUP2 MSTORE PUSH1 0x20 PUSH1 0x4 DUP3 ADD MSTORE PUSH1 0x12 PUSH1 0x24 DUP3 ADD MSTORE PUSH18 0x141CD95D591BDB9E5B481C995C5D5A5C9959 PUSH1 0x72 SHL PUSH1 0x44 DUP3 ADD MSTORE PUSH1 0x64 SWAP1 REVERT JUMPDEST PUSH3 0x461BCD PUSH1 0xE5 SHL DUP2 MSTORE PUSH1 0x20 PUSH1 0x4 DUP3 ADD MSTORE PUSH1 0x12 PUSH1 0x24 DUP3 ADD MSTORE PUSH18 0x105B1C9958591E481C9959DA5CDD195C9959 PUSH1 0x72 SHL PUSH1 0x44 DUP3 ADD MSTORE PUSH1 0x64 SWAP1 REVERT JUMPDEST SWAP2 DUP2 PUSH1 0x1F DUP5 ADD SLT ISZERO PUSH2 0x103 JUMPI DUP3 CALLDATALOAD SWAP2 PUSH1 0x1 PUSH1 0x1 PUSH1 0x40 SHL SUB DUP4 GT PUSH2 0x103 JUMPI PUSH1 0x20 DUP4 DUP2 DUP7 ADD SWAP6 ADD ADD GT PUSH2 0x103 JUMPI JUMP JUMPDEST PUSH1 0x40 PUSH1 0x3 NOT DUP3 ADD SLT PUSH2 0x103 JUMPI PUSH1 0x1 PUSH1 0x1 PUSH1 0x40 SHL SUB SWAP2 PUSH1 0x4 CALLDATALOAD DUP4 DUP2 GT PUSH2 0x103 JUMPI DUP3 PUSH2 0x1B07 SWAP2 PUSH1 0x4 ADD PUSH2 0x1AAE JUMP JUMPDEST SWAP4 SWAP1 SWAP4 SWAP3 PUSH1 0x24 CALLDATALOAD SWAP2 DUP3 GT PUSH2 0x103 JUMPI PUSH2 0x1B21 SWAP2 PUSH1 0x4 ADD PUSH2 0x1AAE JUMP JUMPDEST SWAP1 SWAP2 JUMP JUMPDEST PUSH1 0x4 CALLDATALOAD SWAP1 PUSH1 0x1 PUSH1 0x1 PUSH1 0xA0 SHL SUB DUP3 AND DUP3 SUB PUSH2 0x103 JUMPI JUMP JUMPDEST PUSH1 0x0 JUMPDEST DUP4 DUP2 LT PUSH2 0x1B4E JUMPI POP POP PUSH1 0x0 SWAP2 ADD MSTORE JUMP JUMPDEST DUP2 DUP2 ADD MLOAD DUP4 DUP3 ADD MSTORE PUSH1 0x20 ADD PUSH2 0x1B3E JUMP JUMPDEST SWAP1 PUSH1 0x20 SWAP2 PUSH2 0x1B77 DUP2 MLOAD DUP1 SWAP3 DUP2 DUP6 MSTORE DUP6 DUP1 DUP7 ADD SWAP2 ADD PUSH2 0x1B3B JUMP JUMPDEST PUSH1 0x1F ADD PUSH1 0x1F NOT AND ADD ADD SWAP1 JUMP JUMPDEST SWAP1 DUP1 DUP3 MLOAD SWAP1 DUP2 DUP2 MSTORE PUSH1 0x20 DUP1 SWAP2 ADD SWAP3 DUP2 DUP1 DUP5 PUSH1 0x5 SHL DUP4 ADD ADD SWAP6 ADD SWAP4 PUSH1 0x0 SWAP2 JUMPDEST DUP5 DUP4 LT PUSH2 0x1BB1 JUMPI POP POP POP POP POP POP SWAP1 JUMP JUMPDEST SWAP1 SWAP2 SWAP3 SWAP4 SWAP5 SWAP6 DUP5 DUP1 PUSH2 0x1BCF PUSH1 0x1 SWAP4 PUSH1 0x1F NOT DUP7 DUP3 SUB ADD DUP8 MSTORE DUP11 MLOAD PUSH2 0x1B5E JUMP JUMPDEST SWAP9 ADD SWAP4 ADD SWAP4 ADD SWAP2 SWAP5 SWAP4 SWAP3 SWAP1 PUSH2 0x1BA1 JUMP JUMPDEST SWAP1 PUSH2 0x1CB8 SWAP2 PUSH2 0x1C55 PUSH2 0x1C43 PUSH2 0x1C27 PUSH2 0x1C15 PUSH2 0x1C03 DUP6 MLOAD PUSH2 0x180 DUP1 DUP10 MSTORE DUP9 ADD SWAP1 PUSH2 0x1B5E JUMP JUMPDEST PUSH1 0x20 DUP7 ADD MLOAD DUP8 DUP3 SUB PUSH1 0x20 DUP10 ADD MSTORE PUSH2 0x1B5E JUMP JUMPDEST PUSH1 0x40 DUP6 ADD MLOAD DUP7 DUP3 SUB PUSH1 0x40 DUP9 ADD MSTORE PUSH2 0x1B5E JUMP JUMPDEST PUSH1 0x60 DUP5 ADD MLOAD PUSH1 0x60 DUP7 ADD MSTORE PUSH1 0x80 DUP5 ADD MLOAD DUP6 DUP3 SUB PUSH1 0x80 DUP8 ADD MSTORE PUSH2 0x1B5E JUMP JUMPDEST PUSH1 0xA0 DUP4 ADD MLOAD DUP5 DUP3 SUB PUSH1 0xA0 DUP7 ADD MSTORE PUSH2 0x1B5E JUMP JUMPDEST SWAP2 PUSH2 0x1C7F PUSH1 0x1 DUP1 PUSH1 0xA0 SHL SUB SWAP4 DUP5 PUSH1 0xC0 DUP6 ADD MLOAD AND PUSH1 0xC0 DUP5 ADD MSTORE PUSH1 0xE0 DUP5 ADD MLOAD DUP4 DUP3 SUB PUSH1 0xE0 DUP6 ADD MSTORE PUSH2 0x1B5E JUMP JUMPDEST SWAP3 PUSH2 0x100 DUP1 DUP5 ADD MLOAD SWAP1 DUP4 ADD MSTORE PUSH2 0x120 DUP1 DUP5 ADD MLOAD ISZERO ISZERO SWAP1 DUP4 ADD MSTORE PUSH2 0x140 SWAP1 DUP2 DUP5 ADD MLOAD AND SWAP1 DUP3 ADD MSTORE PUSH2 0x160 DUP1 SWAP3 ADD MLOAD SWAP2 DUP2 DUP5 SUB SWAP2 ADD MSTORE PUSH2 0x1B83 JUMP JUMPDEST SWAP1 JUMP JUMPDEST PUSH1 0x20 DUP1 DUP3 ADD SWAP1 DUP1 DUP4 MSTORE DUP4 MLOAD DUP1 SWAP3 MSTORE PUSH1 0x40 DUP4 ADD SWAP3 DUP2 PUSH1 0x40 DUP5 PUSH1 0x5 SHL DUP4 ADD ADD SWAP6 ADD SWAP4 PUSH1 0x0 SWAP2 JUMPDEST DUP5 DUP4 LT PUSH2 0x1CEF JUMPI POP POP POP POP POP POP SWAP1 JUMP JUMPDEST SWAP1 SWAP2 SWAP3 SWAP4 SWAP5 SWAP6 DUP5 DUP1 PUSH2 0x1D0D PUSH1 0x1 SWAP4 PUSH1 0x3F NOT DUP7 DUP3 SUB ADD DUP8 MSTORE DUP11 MLOAD PUSH2 0x1BDF JUMP JUMPDEST SWAP9 ADD SWAP4 ADD SWAP4 ADD SWAP2 SWAP5 SWAP4 SWAP3 SWAP1 PUSH2 0x1CDF JUMP JUMPDEST PUSH1 0xE0 DUP2 ADD SWAP1 DUP2 LT PUSH1 0x1 PUSH1 0x1 PUSH1 0x40 SHL SUB DUP3 GT OR PUSH2 0x83A JUMPI PUSH1 0x40 MSTORE JUMP JUMPDEST PUSH2 0x180 DUP2 ADD SWAP1 DUP2 LT PUSH1 0x1 PUSH1 0x1 PUSH1 0x40 SHL SUB DUP3 GT OR PUSH2 0x83A JUMPI PUSH1 0x40 MSTORE JUMP JUMPDEST PUSH1 0x20 DUP2 ADD SWAP1 DUP2 LT PUSH1 0x1 PUSH1 0x1 PUSH1 0x40 SHL SUB DUP3 GT OR PUSH2 0x83A JUMPI PUSH1 0x40 MSTORE JUMP JUMPDEST SWAP1 PUSH1 0x1F DUP1 NOT SWAP2 ADD AND DUP2 ADD SWAP1 DUP2 LT PUSH1 0x1 PUSH1 0x1 PUSH1 0x40 SHL SUB DUP3 GT OR PUSH2 0x83A JUMPI PUSH1 0x40 MSTORE JUMP JUMPDEST SWAP3 SWAP2 SWAP3 PUSH1 0x1 PUSH1 0x1 PUSH1 0x40 SHL SUB DUP3 GT PUSH2 0x83A JUMPI PUSH1 0x40 MLOAD SWAP2 PUSH2 0x1DB9 PUSH1 0x1F DUP3 ADD PUSH1 0x1F NOT AND PUSH1 0x20 ADD DUP5 PUSH2 0x1D6F JUMP JUMPDEST DUP3 SWAP5 DUP2 DUP5 MSTORE DUP2 DUP4 ADD GT PUSH2 0x103 JUMPI DUP3 DUP2 PUSH1 0x20 SWAP4 DUP5 PUSH1 0x0 SWAP7 ADD CALLDATACOPY ADD ADD MSTORE JUMP JUMPDEST SWAP1 PUSH1 0x1 DUP3 DUP2 SHR SWAP3 AND DUP1 ISZERO PUSH2 0x1E06 JUMPI JUMPDEST PUSH1 0x20 DUP4 LT EQ PUSH2 0x1DF0 JUMPI JUMP JUMPDEST PUSH4 0x4E487B71 PUSH1 0xE0 SHL PUSH1 0x0 MSTORE PUSH1 0x22 PUSH1 0x4 MSTORE PUSH1 0x24 PUSH1 0x0 REVERT JUMPDEST SWAP2 PUSH1 0x7F AND SWAP2 PUSH2 0x1DE5 JUMP JUMPDEST DUP2 DUP2 LT PUSH2 0x1E1B JUMPI POP POP JUMP JUMPDEST PUSH1 0x0 DUP2 SSTORE PUSH1 0x1 ADD PUSH2 0x1E10 JUMP JUMPDEST SWAP2 SWAP1 PUSH1 0x1F DUP2 GT PUSH2 0x1E36 JUMPI POP POP POP JUMP JUMPDEST PUSH2 0x1E62 SWAP3 PUSH1 0x0 MSTORE PUSH1 0x20 PUSH1 0x0 KECCAK256 SWAP1 PUSH1 0x20 PUSH1 0x1F DUP5 ADD PUSH1 0x5 SHR DUP4 ADD SWAP4 LT PUSH2 0x1E64 JUMPI JUMPDEST PUSH1 0x1F ADD PUSH1 0x5 SHR ADD SWAP1 PUSH2 0x1E10 JUMP JUMPDEST JUMP JUMPDEST SWAP1 SWAP2 POP DUP2 SWAP1 PUSH2 0x1E55 JUMP JUMPDEST SWAP1 DUP1 PUSH1 0x20 SWAP4 SWAP3 DUP2 DUP5 MSTORE DUP5 DUP5 ADD CALLDATACOPY PUSH1 0x0 DUP3 DUP3 ADD DUP5 ADD MSTORE PUSH1 0x1F ADD PUSH1 0x1F NOT AND ADD ADD SWAP1 JUMP JUMPDEST PUSH1 0x1 PUSH1 0x1 PUSH1 0x40 SHL SUB DUP2 GT PUSH2 0x83A JUMPI PUSH1 0x5 SHL PUSH1 0x20 ADD SWAP1 JUMP JUMPDEST PUSH1 0x1 PUSH1 0x40 SHL DUP3 GT PUSH2 0x83A JUMPI DUP1 SLOAD SWAP2 DUP1 DUP3 SSTORE DUP3 DUP2 LT PUSH2 0x1EC3 JUMPI POP POP POP JUMP JUMPDEST PUSH1 0x0 SWAP2 DUP3 MSTORE PUSH1 0x20 SWAP1 DUP2 DUP4 KECCAK256 SWAP4 DUP5 ADD SWAP4 ADD JUMPDEST DUP4 DUP2 LT PUSH2 0x1EE1 JUMPI POP POP POP POP JUMP JUMPDEST DUP1 DUP4 PUSH2 0x1EEF PUSH1 0x1 SWAP4 SLOAD PUSH2 0x1DD6 JUMP JUMPDEST DUP1 PUSH2 0x1EFD JUMPI JUMPDEST POP POP ADD PUSH2 0x1ED4 JUMP JUMPDEST PUSH1 0x1F DUP1 DUP3 GT DUP6 EQ PUSH2 0x1F14 JUMPI POP POP DUP2 SSTORE JUMPDEST DUP4 CODESIZE PUSH2 0x1EF5 JUMP JUMPDEST PUSH2 0x1F2D SWAP1 DUP5 DUP5 MSTORE DUP7 DUP5 KECCAK256 SWAP3 ADD PUSH1 0x5 SHR DUP3 ADD DUP6 DUP4 ADD PUSH2 0x1E10 JUMP JUMPDEST DUP2 DUP4 SSTORE SSTORE PUSH2 0x1F0D JUMP JUMPDEST PUSH1 0x7 SLOAD DUP2 LT ISZERO PUSH2 0x1110 JUMPI PUSH1 0x7 PUSH1 0x0 MSTORE PUSH32 0xA66CC928B5EDB82AF9BD49922954155AB7B0942694BEA4CE44661D9A8736C688 ADD SWAP1 PUSH1 0x0 SWAP1 JUMP JUMPDEST SWAP1 SWAP3 SWAP2 PUSH1 0x1 PUSH1 0x1 PUSH1 0x40 SHL SUB DUP2 GT PUSH2 0x83A JUMPI PUSH2 0x1F92 DUP2 PUSH2 0x1F8C DUP5 SLOAD PUSH2 0x1DD6 JUMP JUMPDEST DUP5 PUSH2 0x1E27 JUMP JUMPDEST PUSH1 0x0 PUSH1 0x1F DUP3 GT PUSH1 0x1 EQ PUSH2 0x1FCC JUMPI DUP2 SWAP3 SWAP4 SWAP5 PUSH1 0x0 SWAP3 PUSH2 0x1FC1 JUMPI JUMPDEST POP POP DUP2 PUSH1 0x1 SHL SWAP2 PUSH1 0x0 NOT SWAP1 PUSH1 0x3 SHL SHR NOT AND OR SWAP1 SSTORE JUMP JUMPDEST ADD CALLDATALOAD SWAP1 POP CODESIZE DUP1 PUSH2 0x1FAB JUMP JUMPDEST PUSH1 0x1F NOT DUP3 AND SWAP5 DUP4 DUP3 MSTORE PUSH1 0x20 SWAP2 DUP3 DUP2 KECCAK256 SWAP3 DUP2 SWAP1 JUMPDEST DUP9 DUP3 LT PUSH2 0x2018 JUMPI POP POP DUP4 PUSH1 0x1 SWAP6 SWAP7 SWAP8 LT PUSH2 0x1FFE JUMPI JUMPDEST POP POP POP DUP2 SHL ADD SWAP1 SSTORE JUMP JUMPDEST ADD CALLDATALOAD PUSH1 0x0 NOT PUSH1 0x3 DUP5 SWAP1 SHL PUSH1 0xF8 AND SHR NOT AND SWAP1 SSTORE CODESIZE DUP1 DUP1 PUSH2 0x1FF4 JUMP JUMPDEST DUP1 PUSH1 0x1 DUP5 SWAP7 DUP3 SWAP5 SWAP6 DUP8 ADD CALLDATALOAD DUP2 SSTORE ADD SWAP6 ADD SWAP3 ADD SWAP1 PUSH2 0x1FDF JUMP JUMPDEST PUSH1 0x0 NOT DUP2 EQ PUSH2 0x7AB JUMPI PUSH1 0x1 ADD SWAP1 JUMP JUMPDEST ISZERO PUSH2 0x2046 JUMPI JUMP JUMPDEST PUSH1 0x40 MLOAD PUSH3 0x461BCD PUSH1 0xE5 SHL DUP2 MSTORE PUSH1 0x20 PUSH1 0x4 DUP3 ADD MSTORE PUSH1 0xD PUSH1 0x24 DUP3 ADD MSTORE PUSH13 0x4F6E6C7920706C6174666F726D PUSH1 0x98 SHL PUSH1 0x44 DUP3 ADD MSTORE PUSH1 0x64 SWAP1 REVERT JUMPDEST ISZERO PUSH2 0x2082 JUMPI JUMP JUMPDEST PUSH1 0x40 MLOAD PUSH3 0x461BCD PUSH1 0xE5 SHL DUP2 MSTORE PUSH1 0x20 PUSH1 0x4 DUP3 ADD MSTORE PUSH1 0x9 PUSH1 0x24 DUP3 ADD MSTORE PUSH9 0x139BDD08199BDD5B99 PUSH1 0xBA SHL PUSH1 0x44 DUP3 ADD MSTORE PUSH1 0x64 SWAP1 REVERT JUMPDEST SWAP2 SWAP1 DUP3 SUB SWAP2 DUP3 GT PUSH2 0x7AB JUMPI JUMP JUMPDEST DUP3 PUSH1 0x14 SWAP5 SWAP4 SWAP3 DUP3 CALLDATACOPY ADD SWAP1 PUSH1 0x1 PUSH1 0x1 PUSH1 0x60 SHL SUB NOT SWAP1 PUSH1 0x60 SHL AND DUP2 MSTORE ADD SWAP1 JUMP JUMPDEST SWAP2 SWAP1 DUP3 ADD DUP1 SWAP3 GT PUSH2 0x7AB JUMPI JUMP JUMPDEST PUSH1 0x40 MLOAD SWAP1 PUSH2 0x20F8 DUP3 PUSH2 0x1D38 JUMP JUMPDEST DUP2 PUSH2 0x160 PUSH1 0x60 SWAP2 DUP3 DUP2 MSTORE DUP3 PUSH1 0x20 DUP3 ADD MSTORE DUP3 PUSH1 0x40 DUP3 ADD MSTORE PUSH1 0x0 DUP4 DUP3 ADD MSTORE DUP3 PUSH1 0x80 DUP3 ADD MSTORE DUP3 PUSH1 0xA0 DUP3 ADD MSTORE PUSH1 0x0 PUSH1 0xC0 DUP3 ADD MSTORE DUP3 PUSH1 0xE0 DUP3 ADD MSTORE PUSH1 0x0 PUSH2 0x100 DUP3 ADD MSTORE PUSH1 0x0 PUSH2 0x120 DUP3 ADD MSTORE PUSH1 0x0 PUSH2 0x140 DUP3 ADD MSTORE ADD MSTORE JUMP JUMPDEST SWAP1 PUSH1 0x40 MLOAD SWAP2 DUP3 PUSH1 0x0 DUP3 SLOAD SWAP3 PUSH2 0x215D DUP5 PUSH2 0x1DD6 JUMP JUMPDEST SWAP1 DUP2 DUP5 MSTORE PUSH1 0x1 SWAP5 DUP6 DUP2 AND SWAP1 DUP2 PUSH1 0x0 EQ PUSH2 0x21CA JUMPI POP PUSH1 0x1 EQ PUSH2 0x2187 JUMPI JUMPDEST POP POP PUSH2 0x1E62 SWAP3 POP SUB DUP4 PUSH2 0x1D6F JUMP JUMPDEST SWAP1 SWAP4 SWAP2 POP PUSH1 0x0 MSTORE PUSH1 0x20 SWAP1 DUP2 PUSH1 0x0 KECCAK256 SWAP4 PUSH1 0x0 SWAP2 JUMPDEST DUP2 DUP4 LT PUSH2 0x21B2 JUMPI POP POP PUSH2 0x1E62 SWAP4 POP DUP3 ADD ADD CODESIZE DUP1 PUSH2 0x2179 JUMP JUMPDEST DUP6 SLOAD DUP9 DUP5 ADD DUP6 ADD MSTORE SWAP5 DUP6 ADD SWAP5 DUP8 SWAP5 POP SWAP2 DUP4 ADD SWAP2 PUSH2 0x219A JUMP JUMPDEST SWAP2 POP POP PUSH2 0x1E62 SWAP5 POP PUSH1 0x20 SWAP3 POP PUSH1 0xFF NOT AND DUP3 DUP5 ADD MSTORE ISZERO ISZERO PUSH1 0x5 SHL DUP3 ADD ADD CODESIZE DUP1 PUSH2 0x2179 JUMP JUMPDEST SWAP1 DUP2 SLOAD PUSH2 0x21F9 DUP2 PUSH2 0x1E8F JUMP JUMPDEST SWAP3 PUSH2 0x2207 PUSH1 0x40 MLOAD SWAP5 DUP6 PUSH2 0x1D6F JUMP JUMPDEST DUP2 DUP5 MSTORE PUSH1 0x0 SWAP1 DUP2 MSTORE PUSH1 0x20 DUP1 DUP3 KECCAK256 DUP2 DUP7 ADD JUMPDEST DUP5 DUP5 LT PUSH2 0x2226 JUMPI POP POP POP POP POP JUMP JUMPDEST PUSH1 0x1 DUP4 DUP2 SWAP3 PUSH2 0x2234 DUP6 PUSH2 0x2149 JUMP JUMPDEST DUP2 MSTORE ADD SWAP3 ADD SWAP4 ADD SWAP3 SWAP1 PUSH2 0x2218 JUMP JUMPDEST SWAP1 PUSH1 0x40 MLOAD PUSH2 0x224F DUP2 PUSH2 0x1D38 JUMP JUMPDEST PUSH2 0x160 PUSH2 0x2304 PUSH1 0xA DUP4 SWAP6 PUSH2 0x2262 DUP2 PUSH2 0x2149 JUMP JUMPDEST DUP6 MSTORE PUSH2 0x2270 PUSH1 0x1 DUP3 ADD PUSH2 0x2149 JUMP JUMPDEST PUSH1 0x20 DUP7 ADD MSTORE PUSH2 0x2281 PUSH1 0x2 DUP3 ADD PUSH2 0x2149 JUMP JUMPDEST PUSH1 0x40 DUP7 ADD MSTORE PUSH1 0x3 DUP2 ADD SLOAD PUSH1 0x60 DUP7 ADD MSTORE PUSH2 0x229C PUSH1 0x4 DUP3 ADD PUSH2 0x2149 JUMP JUMPDEST PUSH1 0x80 DUP7 ADD MSTORE PUSH2 0x22AD PUSH1 0x5 DUP3 ADD PUSH2 0x2149 JUMP JUMPDEST PUSH1 0xA0 DUP7 ADD MSTORE PUSH1 0x6 DUP2 ADD SLOAD PUSH1 0x1 PUSH1 0x1 PUSH1 0xA0 SHL SUB SWAP1 DUP2 AND PUSH1 0xC0 DUP8 ADD MSTORE PUSH2 0x22D3 PUSH1 0x7 DUP4 ADD PUSH2 0x2149 JUMP JUMPDEST PUSH1 0xE0 DUP8 ADD MSTORE PUSH1 0x8 DUP3 ADD SLOAD PUSH2 0x100 DUP8 ADD MSTORE PUSH1 0x9 DUP3 ADD SLOAD PUSH1 0xFF DUP2 AND ISZERO ISZERO PUSH2 0x120 DUP9 ADD MSTORE PUSH1 0x8 SHR AND PUSH2 0x140 DUP7 ADD MSTORE ADD PUSH2 0x21ED JUMP JUMPDEST SWAP2 ADD MSTORE JUMP JUMPDEST SWAP1 PUSH2 0x2313 DUP3 PUSH2 0x1E8F JUMP JUMPDEST PUSH2 0x2320 PUSH1 0x40 MLOAD SWAP2 DUP3 PUSH2 0x1D6F JUMP JUMPDEST DUP3 DUP2 MSTORE DUP1 SWAP3 PUSH2 0x2331 PUSH1 0x1F NOT SWAP2 PUSH2 0x1E8F JUMP JUMPDEST ADD SWAP1 PUSH1 0x0 JUMPDEST DUP3 DUP2 LT PUSH2 0x2342 JUMPI POP POP POP JUMP JUMPDEST PUSH1 0x20 SWAP1 PUSH2 0x234D PUSH2 0x20EB JUMP JUMPDEST DUP3 DUP3 DUP6 ADD ADD MSTORE ADD PUSH2 0x2336 JUMP JUMPDEST PUSH1 0x40 MLOAD SWAP1 DUP2 PUSH1 0x0 DUP3 SLOAD PUSH2 0x236B DUP2 PUSH2 0x1DD6 JUMP JUMPDEST SWAP4 PUSH1 0x1 SWAP2 DUP1 DUP4 AND SWAP1 DUP2 ISZERO PUSH2 0x23D0 JUMPI POP PUSH1 0x1 EQ PUSH2 0x2393 JUMPI JUMPDEST POP POP PUSH1 0x20 SWAP3 POP PUSH1 0x3 DUP2 MSTORE SUB ADD SWAP1 KECCAK256 SWAP1 JUMP JUMPDEST SWAP1 SWAP2 POP PUSH1 0x0 MSTORE PUSH1 0x20 SWAP1 DUP2 PUSH1 0x0 KECCAK256 SWAP1 PUSH1 0x0 SWAP2 JUMPDEST DUP6 DUP4 LT PUSH2 0x23BC JUMPI POP POP POP POP PUSH1 0x20 SWAP2 DUP2 ADD CODESIZE DUP1 PUSH2 0x2382 JUMP JUMPDEST DUP1 SLOAD DUP8 DUP5 ADD MSTORE DUP7 SWAP5 POP SWAP2 DUP4 ADD SWAP2 DUP2 ADD PUSH2 0x23A5 JUMP JUMPDEST SWAP3 POP POP POP PUSH1 0x20 SWAP4 SWAP2 POP PUSH1 0xFF NOT AND DUP3 MSTORE DUP1 ISZERO ISZERO MUL DUP2 ADD CODESIZE DUP1 PUSH2 0x2382 JUMP JUMPDEST DUP1 MLOAD DUP3 LT ISZERO PUSH2 0x1110 JUMPI PUSH1 0x20 SWAP2 PUSH1 0x5 SHL ADD ADD SWAP1 JUMP JUMPDEST SWAP1 PUSH1 0x32 DUP2 GT ISZERO PUSH2 0x24B1 JUMPI POP PUSH1 0x32 JUMPDEST PUSH1 0x7 SLOAD SWAP1 DUP2 DUP4 LT ISZERO PUSH2 0x249B JUMPI DUP2 PUSH2 0x2425 DUP3 DUP6 PUSH2 0x20DE JUMP JUMPDEST GT ISZERO PUSH2 0x248B JUMPI POP JUMPDEST PUSH2 0x243F PUSH2 0x243A DUP4 DUP4 PUSH2 0x20B3 JUMP JUMPDEST PUSH2 0x2309 JUMP JUMPDEST SWAP2 DUP1 JUMPDEST DUP3 DUP2 LT PUSH2 0x244F JUMPI POP POP POP SWAP1 JUMP JUMPDEST DUP1 PUSH2 0xB80 PUSH2 0x2462 PUSH2 0xB35 PUSH2 0x2486 SWAP5 PUSH2 0x1F36 JUMP JUMPDEST PUSH2 0x2475 PUSH2 0x246F DUP7 DUP6 PUSH2 0x20B3 JUMP JUMPDEST SWAP2 PUSH2 0x2242 JUMP JUMPDEST PUSH2 0x247F DUP3 DUP10 PUSH2 0x23EC JUMP JUMPDEST MSTORE DUP7 PUSH2 0x23EC JUMP JUMPDEST PUSH2 0x2442 JUMP JUMPDEST PUSH2 0x2496 SWAP2 POP DUP3 PUSH2 0x20DE JUMP JUMPDEST PUSH2 0x242D JUMP JUMPDEST POP POP POP PUSH1 0x40 MLOAD PUSH2 0x24AA DUP2 PUSH2 0x1D54 JUMP JUMPDEST PUSH1 0x0 DUP2 MSTORE SWAP1 JUMP JUMPDEST PUSH2 0x240E JUMP INVALID LOG2 PUSH5 0x6970667358 0x22 SLT KECCAK256 DUP16 0xD9 0xDA MSIZE PUSH16 0x5FE37C94DCE9775ECAA5A45A05C2A682 PUSH9 0xBC0F68E416F7B6BD9E SELFBALANCE PUSH5 0x736F6C6343 STOP ADDMOD EQ STOP CALLER "},"methodIdentifiers":{"anchorRecording(string,string,string,string,uint256)":"323ff2ab","getIdentity(address)":"2fea7b81","getRecording(string)":"49c26c21","getRecordings(uint256,uint256)":"989ad1fd","getRecordingsByGps(string)":"4a70b7d1","getRecordingsByWitness(address)":"36c4786a","incrementCredibility(address,uint256)":"4cadec82","isPurchased(string,address)":"20023e8d","owner()":"8da5cb5b","platformWallet()":"fa2af9da","purchase(string)":"59f5e0ce","registerIdentity(string,string)":"0be8293f","safetyFundWallet()":"4dce6627","totalRecordings()":"5338dcb2","updateCid(string,string)":"a1d01bb1","updateCorroboration(string,string[])":"dedd85b7","updateEncryptedCid(string,string)":"9200789a"}}}}}